:020000040800F2
:10000000F013002061020008254600089D43000807
:100010002146000859150008FD47000800000000AF
:100020000000000000000000000000002D46000855
:100030005D15000800000000294600083146000850
:100040007B0200087B0200087B0200087B0200089C
:100050007B0200087B0200087B0200087B0200088C
:100060007B0200087B0200087B0200087B0200087C
:100070007B0200087B0200087B0200087B0200086C
:100080007B0200087B0200087B0200087B0200085C
:100090007B0200087B0200087B0200087B0200084C
:1000A0007B0200087B0200087B0200087B0200083C
:1000B0003946000845460008514600087B02000802
:1000C0007B0200087B0200087B0200087B0200081C
:1000D0007B020008E5470008F14700087B020008A2
:1000E0007B0200087B0200087B02000800F002F897
:1000F00000F0A6F814A696E8000CB244B344DA4522
:1001000001D100F09DF8BAE80F000FA696E8300084
:10011000A5EB040504EB0607AAEB0704A7F101070A
:100120004FEA15154FEA3414A4F10104AC4201D38F
:1001300000F086F813F0010F18BFFB1A43F001031B
:1001400000F001F8DBE71847A4610000C46100007B
:10015000103A24BF78C878C1FAD8520724BF30C8F3
:1001600030C144BF04680C60704700007047000055
:100170000023002400250026103A28BF78C1FBD8B0
:10018000520728BF30C148BF0B6070476E2900F08E
:100190007483702900F0CF84662905F08B8065296F
:1001A00005F08880672905F08580612905F0848045
:1001B00003681B0A28BF41F08001692900F0D8803C
:1001C000642900F0D580752900F0D2806F2900F0F5
:1001D0005D84782900F09B84E92900F0F783E42905
:1001E00000F0F483F52900F0F183EF2900F05A8440
:1001F000F82900F09A840368DB0928BF41F08001E8
:10020000632900F07983732900F07E83E32901F0EC
:100210008580F32901F08A80002070471FB501F026
:10022000D3F804000020002105F018F8401C60609D
:100230000020002105F028F8E0601FBD10B510BDBA
:1002400001F09CF81146FFF7E9FF04F0D9FA01F03C
:1002500071F903B4FFF7F2FF03BC01F075F9000078
:100260000948804709480047FEE7FEE7FEE7FEE74A
:10027000FEE7FEE7FEE7FEE7FEE7FEE70448054986
:10028000054A064B7047000035460008ED0000089F
:10029000F00D0020F0130020F00F0020F00F0020E0
:1002A0007CB51D4616460C00009007D04142A14285
:1002B00002D32044401E01E04FF0FF30064B7B4448
:1002C0002A4669460190304600F0F1FA002C02D02F
:1002D000009A002111707CBD130600000FB41CB5FC
:1002E0000C0007AA009007D04142A14202D320444B
:1002F000401E01E04FF0FF30074B7B446946019000
:10030000069800F0D4FA0021002C01D0009A117058
:100310001CBC5DF814FB0000D705000070B50C464E
:100320000546012A05D02878800600D5EA69002311
:1003300002E0012305E05B1C934202D2E05C00284E
:10034000F9D1A869E618C01AA861286A1844286279
:10035000284600F000FA04E0D5E9012114F8010B69
:100360009047B442F8D3284600F00BFA70BD000065
:100370002DE9F0410646002410687529314616A57E
:1003800010D000F00FFA002802DA404213A507E06F
:1003900031688A0701D512A502E0490704D511A5E5
:1003A000012401E000F007FA00210A2206F12407E7
:1003B00009E0B0FBF2FCB0FBF2F302FB1C003030B2
:1003C00078541846491C0028F3D123462A46304663
:1003D000BDE8F04100F0F8B9000000002D00000079
:1003E0002B000000200000002DE9F05F8946044644
:1003F0004FF0000ADFF874B1FB44C0F820A020469B
:10040000E1688847002874D0252806D0D4E9012166
:100410009047206A401C2062F1E700265F46204694
:10042000E16888472028054607DB312D05D2781979
:1004300010F8200C08B10643F1E7B00701D526F00B
:100440000406C4F81CA00027C4F818A02A2D09D05F
:10045000284604F0FBFE38B304EB8708303DC8F8AB
:10046000185019E059F8041B204604EB87029161EB
:10047000E1688847012F054618D1E069002820DA95
:1004800026F020061DE0D8F8180000EB800005EBF0
:1004900040003038C8F818002046E1688847054613
:1004A00004F0D4FE0028EED1012F0AD02E2D08D161
:1004B0002046E16888477F1C0546022F46F020064B
:1004C000C4DBA069002803DA404246F00106A061BF
:1004D000F00701D026F010066C2D0BD0682D09D046
:1004E0004C2D39D06A2D35D0742D35D07A2D33D09E
:1004F00016E038E0E1682F4620468847B8420546B6
:1005000009D16C2F26D04FF48060E1680643204665
:100510008847054604E06C2F1AD04FF480700643DC
:100520000DB3A5F14100192802D8203546F4006624
:100530004A462946204626604E46FFF727FE80B1F0
:1005400001280BD0F61D26F0070000F1080956E738
:100550004020E4E78020D8E70020D6E706F1040930
:100560004DE7284652E7206ABDE8F09FC04E0000E4
:10057000401ECAB210F8011F8A4202D00029F9D1E8
:100580000020704730B505460B462A4613F8014B4C
:1005900012F8010B08B1A042F8D01CB1002802D01B
:1005A0006D1CF1E7284630BD10B5431C02E010F881
:1005B000011B71B18107FAD14FF0013202C88C1AC8
:1005C0008C4314EAC211F9D0C01A0A0603D0C01E27
:1005D00010BDC01A10BD0A0401D0801E10BD090252
:1005E000FCD0401E10BD4FF000020429C0F0128064
:1005F00010F0030C00F01B80CCF1040CBCF1020FD6
:1006000018BF00F8012BA8BF20F8022BA1EB0C01AA
:1006100000F00DB85FEAC17C24BF00F8012B00F8A0
:10062000012B48BF00F8012B70474FF0000200B5C6
:10063000134694469646203922BFA0E80C50A0E805
:100640000C50B1F12001BFF4F7AF090728BFA0E8B3
:100650000C5048BF0CC05DF804EB890028BF40F87F
:10066000042B08BF704748BF20F8022B11F0804FC1
:1006700018BF00F8012B704710B5044610F0030FA7
:1006800008BF11F0030F40F015804FF0013E121F1C
:10069000C0F20E8051F8043BA3EB0E0C2CEA030CC5
:1006A0001CEACE1C08BF40F8043BF0D0A1F10401C5
:1006B00002F10402521E08DB11F8013B00F8013B75
:1006C000002BF7D11146FFF78EFF204610BD00002A
:1006D0004FF0013C50F8042B51F8043B9A4221D1D1
:1006E000A2EB0C03934313EACC1317D150F8042B5D
:1006F00051F8043B9A4215D1A2EB0C03934313EA41
:10070000CC130BD150F8042B51F8043B9A4209D179
:10071000A2EB0C03934313EACC13DBD04FF00000A1
:10072000704700BFD01A01BAB1FA81F101F0180187
:1007300022FA01F0CB40DBB2C0B2C01AC1F12001F5
:100740002CFA01F3D11A914311EAC311E6D1704793
:1007500070477047704770B5044685690068C106E8
:1007600001D5302600E02026C00707D070BDD4E9AF
:10077000012130469047206A401C20626D1EF6D54C
:1007800070BD70B5044685690078C00707D170BD9B
:10079000D4E9012120209047206A401C20626D1E70
:1007A000F6D570BD09684A0501D540B27047C90544
:1007B000FCD500B2704709684A0501D5C0B2704740
:1007C000C905FCD580B270472DE9F0470D46994622
:1007D0009246044600F124080168880604D5E069C1
:1007E00021F01001216000E00120A84201DD471B3B
:1007F00000E00027A1697A1902EB0900081AA0613C
:100800002078C00602D42046FFF7A5FF002608E0A6
:10081000D4E901211AF806009047206A401C761C92
:1008200020624E45F4DB2078C0060AD52046FFF74B
:1008300092FF06E0D4E9012130209047206A401C55
:100840002062381EA7F10107F4DC07E0D4E901219A
:1008500018F805009047206A401C2062281EA5F168
:100860000105F3DC2046FFF78CFF2078000602D557
:100870000220BDE8F0870120FBE711680268006AEA
:10088000530501D508700AE0D30501D5088006E0BC
:10089000130603D5C217C1E9000200E00860012079
:1008A0007047000001694A1C02610878704700B572
:1008B0008FB0CDE901310021059105497944CDE999
:1008C000031011466846FFF78FFD0FB000BD000012
:1008D000E5FFFFFFD1E900239A4202D2531C0B60CF
:1008E0001070704710B5436913B1AFF3008001E099
:1008F000FFF714FD012010BD127800F124010A70E9
:1009000000224A700122EDE711684FF0FF32E9E75B
:100910002DE9FF5F15468A460446DFF8AC80F844AF
:100920000027D8E900103E46CDE9001010E03AF863
:1009300016106A4602A800F0FDFC411C07D0217881
:10094000890603D5E269391891420DD80744761C0F
:100950002078800602D5E069B84205DDAE42E6DBCC
:100960003AF816000028E2D1A069C01BA061204619
:10097000FFF7F1FED8E90010CDE90010002017E0E4
:100980003AF818106A4602A800F0D4FCB0F1FF3F14
:1009900081460BD000250DF1080B05E0D4E90121BB
:1009A0001BF8050090476D1C4D45F7D308F1010079
:1009B000B0428046E4DB206A384420622046FFF7DC
:1009C000E0FEBDE8FF9F0000AE4900002DE9F041C8
:1009D0008046D21D22F007020025D2E90002F52947
:1009E00015A614D0011E72F1000106DA0023D0EB27
:1009F000030063EB020211A608E0D8F800108B0791
:100A000001D50FA602E0490701D50EA60125114622
:100A1000002408F1240704E000F0A4F830323A552D
:100A2000641C50EA0102F7D12B463246214640466B
:100A3000BDE8F041FFF7C8BE000000002D00000037
:100A40002B0000002000000030B4002100F124043D
:100A500008E002F00705D208303542EA4372DB08AD
:100A60006554491C52EA0305F3D10468002310A21F
:100A7000250708D504F020040C4304D0C4690123E1
:100A80000CA2641EC46130BCFFF79EBE10B50446C4
:100A900021461068FFF78FFE02462046BDE8104051
:100AA0000023D1E7D21D22F00701D1E90023CBE7D3
:100AB0000000000030000000F0B40D460188090578
:100AC00002D5214C7C4402E01F4C7C440E340021B2
:100AD00000F1240608E002F00F071209E75D42EA80
:100AE00003721B097754491C52EA0307F3D10278B9
:100AF0000023120704D5702D06D009B1022311344A
:100B00002246F0BCFFF760BE01231034F8E770B551
:100B100004460D4621461068FFF74DFE0246294661
:100B20002046BDE870400023C6E7D21D22F007032F
:100B3000D3E90023C0E70368126843F02003036091
:100B40000823C3610023B7E710480000004870473E
:100B50001000002010B500F037FC001D10BD00BFD4
:100B6000FD46000030B5B0F10A0271F100034FEA12
:100B7000900E4EEA817EB0EB0E0061EB91014FEAE0
:100B8000101E4EEA017E10EB0E0041EB11114FEAF0
:100B9000102E4EEA016E10EB0E0041EB11214FEAD0
:100BA000104E4EEA014E10EB0E0041EB1141401881
:100BB00041F100014FEAD00040EA41704FEAD10113
:100BC0004FEA810444EA907410EB800544EB010481
:100BD0006D1944EB0404521BA3414FF0000348BFBE
:100BE0000A3200D530BD401C41F1000130BD2DE975
:100BF000FF4F0C461E464FF0FF378BB0D2E9000185
:100C0000DDF860800A908A46C1F30A5505B93D4671
:100C1000002108464FF00000BAF1000F00F4400038
:100C200005DA00EB80004FF4400101EA50004FEA82
:100C30009059B9F1010F00DDB9460A9850EA4A000F
:100C40000ED044F61050A5F2FF3545432F14B8F1ED
:100C5000000F1ED07542291E1EDDC9F100021CE0E6
:100C6000B8F1010F4FF0000001D0302103E0F24352
:100C700005E02154401CB042FBDB3046002200213D
:100C800021540B99C1F80880C1E900200FB0BDE8DC
:100C9000F08FBD1B6D1CDEE74A4600DA694206A8EC
:100CA00000F0D6FB06AB93E8070003AB83E8070030
:100CB00050460A9903F0EEFE8DE80700A0F50050BB
:100CC0001F3800900398002D0ADD42F21F014A46AA
:100CD0000844002303A90390684604F057F909E08B
:100CE000A0F500504A461F38002303A90390684628
:100CF00004F061F98DE807000004000C03D04FF008
:100D0000FF30410800E01046B8F1000F03D0002288
:100D1000009215461EE0751E05D4FFF723FF303202
:100D200062556D1EF9D5B3460122084302D0002258
:100D30007F1C04E02078302801D100227F1E002A89
:100D4000099784D01DE0112D07DAFFF70BFF303231
:100D500062556D1C50EA0102F5D1084302D000989B
:100D6000C8B10EE00021681E05E0235C625C63549C
:100D70002254401E491C8142F7DBAB46A81B401E93
:100D80000990002004F80B000B98099AC0F808801D
:100D9000C0E9002B7AE711264FF0000857E72DE94C
:100DA000F04F88460446D21D22F0070191B0D1E9E8
:100DB0000001CDE90A0104F035FA02460B98C00F94
:100DC00001D02D2007E02068810701D52B2002E00B
:100DD000202101EAC000032A099001D0072A05DB7F
:100DE00003464146204600F0F3FA0BE120788006E6
:100DF00001D5E06900E00620B8F1650F814606D014
:100E0000B8F1660F18D0B8F1670F70D131E000204B
:100E1000B9F1110F009001DB112301E009F1010389
:100E20000AAA01A90CA8FFF7E2FEDDE90C70002672
:100E300009F10105834647E001204B4600904FF041
:100E400000470AAA01A90CA8FFF7D1FEDDE90DB001
:100E50000C995D46002610B909F101000D18B9EB97
:100E6000050003D4C0F1FF3609F10105A5EB090027
:100E70002BE0B9F1010F01DA4FF001090020B9F1BF
:100E8000110F0090484601DD112300E003460AAA35
:100E900001A90CA8FFF7ABFEDDE90C704D4600265A
:100EA0008346207800070AD4AB4500DA5D4601A8E6
:100EB000012D04DD411911F8011C302907D04F45DF
:100EC00002DA17F1040F04DA012082460FE06D1EEA
:100ED000EEE7002F02DCED1B3E4403E0781CA84245
:100EE00000DD7D1CB81B00F1010A4FF0004720789F
:100EF000000703D4AA4501DB4FF0FF3A0021B7F108
:100F0000004F0DF143088DF8431024D002202B230D
:100F1000002F01DA7F422D230A21021EA0F10100D9
:100F200000DC5FB197FBF1FC97FBF1F201FB1C7C4D
:100F300017460CF1300C08F801CDEEE7A8F10100DE
:100F400003702188090501D5452100E06521A0F144
:100F5000010800F8011C09980FA9A1EB0807FF1D63
:100F600000B10120411901EBEA70A1693844081A67
:100F7000401EA0612078C00602D42046FFF7EBFB9C
:100F8000099828B1D4E901219047206A401C2062C9
:100F90002078C00622D52046FFF7DDFB1EE0002E9C
:100FA00004DBB34502DD01A8805D00E03020D4E918
:100FB00001219047206A401C2062761CAAF10100A2
:100FC0005FEA000A0AD100F0FFF9C0680168405CDE
:100FD000D4E901219047206A401C2062281EA5F117
:100FE0000105DCDC07E0D4E9012118F8010B90478A
:100FF000206A401C2062381EA7F10107F3DC20465E
:10100000FFF7BFFB032011B041E600002DE9F04FD0
:1010100004460D46D21D22F0070089B0D0E90097A2
:101020004846394604F0FEF80246F80F01D02D2359
:1010300007E02068810701D52B2302E0202101EA87
:10104000C0038DF820300BB1012000E00020032AFE
:10105000824601D0072A04DB2946204600F0B8F971
:101060003FE12078800601D40D2500E0E569C7F353
:101070000A560D2D49DA00214FEA175B08464FF05A
:101080000000002F00F4400007DA00EB80004FF46E
:10109000400100EBD07001EA60008115012901DDFB
:1010A0004FF0FF3100224FEA850CBCF1180F06D338
:1010B0001346ACF118004FF08052C24003E04FF4E9
:1010C000801323FA0CF30CF10C0CBCF1200F04D3A9
:1010D000ACF1200C09FA0CF001E007FA0CF0002941
:1010E0004FF0004801DD18B90FE00ED140450CD398
:1010F00019EB02095F4121B9404502D19F4329EA1A
:101100000209BBEB175F00D0761C2088000502D5D2
:101110007B48784402E07A487844193808AA30239A
:1011200002F80A30037C0AF10101002E0AF1020ADA
:1011300053546A4602DC4FF0300101E04FF03101B8
:101140004FF001088DF8001002D0A6F2FF3603E040
:1011500059EA470100D06B4E002D02DC21780907C7
:1011600004D54FF002082E218DF80110C44600214D
:101170000BE0C7F303433F01C35C491C6D1E02F83B
:101180000830052908F1010801DA002DF1DC002101
:101190000CE000EB1973491C1B786D1E082902F83E
:1011A00008304FEA091908F1010801DA002DF0DCD6
:1011B00021688B0602D516E0A8F10108E04505DD9F
:1011C00002EB080313F8013C302BF5D0B8F1000F07
:1011D00009DD02EB080313F8013C2E2B03D10907AC
:1011E00001D4A8F10108002D05DD3E2102F8081008
:1011F0006D1E08F10108407C002E02F8080008F17D
:10120000010804DA2D20764202F8080002E02B20C3
:1012100002F808000A214FF47A70864208F10108AA
:101220000BDB96FBF0F3303302F8083096FBF0F35B
:1012300008F1010800FB136601E0642E0CDB64205A
:1012400096FBF0F3303302F8083096FBF0F308F128
:10125000010800FB136601E00A2E06DB96FBF1F0A5
:10126000303002F8080008F1010896FBF1F001FBAC
:101270001060303002F80800A16908F1010808EB9D
:10128000050202EB0A00081AA0612078C00602D409
:101290002046FFF760FA216A08AE01EB0A002062DF
:1012A00004E0D4E9012116F8010B9047BAF1010AD4
:1012B000F7D22078C00602D52046FFF74CFA6E46DA
:1012C00009E016F8010B3E280FD0D4E90121904720
:1012D000206A401C2062B8F10108F2D22046FFF7D4
:1012E00050FA09B00320BDE8F08F206A284420623C
:1012F00003E0D4E90121302090476D1EEBD3F8E7DD
:10130000FD41000002FCFFFF10B5436913B1AFF3CC
:10131000008001E0FFF7FCFA012010BD128800F107
:10132000240182840022C2840122EDE711684FF07B
:10133000FF32E9E72DE9F04116460C460546FFF776
:1013400009FC036893F80101012807D0FF2C12D88B
:10135000185D80B101202C70BDE8F081D3F8070141
:101360003246214603F20713C7182846BC46BDE89B
:10137000F041002360474FF0FF30EDE77546FFF77F
:10138000E5FBAE4605006946534620F0070085465A
:1013900018B020B5FEF772FFBDE820404FF0000600
:1013A0004FF000074FF000084FF0000BAC46ACE8E0
:1013B000C009ACE8C009ACE8C009ACE8C00921F03C
:1013C00007018D467047000000487047300000203C
:1013D0002DE9F0411F46044603260168072A01F45F
:1013E000006004DB08B116A505E016A503E008B10E
:1013F00015A500E015A521F010002060A069C01E11
:10140000A0610FB1401EA0612046FFF7A4F94FB1C3
:10141000D4E9012138469047206A401C2062C01C54
:10142000206206E0206AFAE7D4E9012115F8010BF1
:101430009047761EF8D22046FFF7A3F9BDE8F08169
:101440004E414E006E616E00494E4600696E660068
:101450002DE9F047814616468AB0354878440DC8D4
:101460008DE80D0032487844801C03AC0DC884E838
:101470000D0041F69B300844372190FBF1F290FBC0
:10148000F1F5A5F1800501FB12041B3C02D5644275
:10149000012000E00020DFF898A080460027FA44F1
:1014A000AAF1BE0A0EE0E0070AD03246684607EB12
:1014B000470101230AEB810103F07DFD8DE8070060
:1014C00064107F1C002CEED1194F7F44AE3F19E011
:1014D000E80715D007EB04100DF1180A90E80E008C
:1014E0008AE80E00C068F04201D19819089032468F
:1014F000012306A903A803F05EFD03AB83E8070000
:101500006D10641C002DE3D14FF001033246694693
:10151000B8F1000F03A802D003F038FD01E003F09A
:101520004AFDC9E90001C9F808200AB0BDE8F08702
:10153000443F000010B50446AFF300802046BDE8EC
:101540001040FEF786BE000001491820ABBEFEE742
:101550002600020070470000FEE700007047000010
:101560002DE9F047ADF5147D0C46054654A84FF41F
:1015700080719A461746FFF758F80DF15009484612
:101580004FF48071FFF751F80DF1100840464021EB
:10159000FFF74BF845F69376C0F6000645F6DA708D
:1015A000002D3346C0F6000018BF0346002C31461C
:1015B000324618BF0146002F18BF0246BAF1000F8D
:1015C00018BF0646CDE9001246F24522C0F60002D9
:1015D00048464FF480710296FEF780FE4846FEF7BB
:1015E000E3FF0546A0F5807010F5807F0CD845F22A
:1015F0002F60C0F60000294603F030F800200DF5FA
:10160000147DBDE8F08700BF45F68E7746F23B12A9
:1016100045F6B643C0F60007C0F60002C0F6000368
:10162000404640210097FEF759FE45F2E63254ACA1
:10163000C0F6000220464FF480710023CDE90085FA
:10164000FEF74CFE45F66C41C0F600012046002234
:1016500041F2883300F0ACFA90B140F25410AAB2D3
:10166000C2F2000014A902F077FE88B1014617A06B
:1016700002F0F4FF00200DF5147DBDE8F08700BFF7
:1016800008A002F0EBFF00200DF5147DBDE8F08707
:101690001AA014A902F0E2FF01200DF5147DBDE8A7
:1016A000F08700BF4D515454205075626C697368C7
:1016B000204661696C65643A20415420436D642082
:1016C00053656E64204572726F7200004D51545420
:1016D000205075626C697368204661696C65643A74
:1016E000204A534F4E20446174612053656E64203C
:1016F0004572726F72202825642900004D515454A0
:10170000205075626C6973682053756363657373E9
:101710003A2025730000000080B54FF47A7001F084
:10172000F9F845F6AC4045F66C41C0F60000C0F64D
:10173000000100224FF4FA7300F03AFA002840F05A
:10174000EA8045F2DB40C0F60000012102F086FF8E
:101750004FF4FA7001F0DEF845F6AC4045F66C4106
:10176000C0F60000C0F6000100224FF4FA7300F04A
:101770001FFA002840F0CF8045F2DB40C0F60000A1
:10178000022102F06BFF4FF4FA7001F0C3F845F646
:10179000AC4045F66C41C0F60000C0F600010022E6
:1017A0004FF4FA7300F004FA002840F0B48045F2D8
:1017B000DB40C0F60000032102F050FF4FF4FA7046
:1017C00001F0A8F845F6AC4045F66C41C0F60000C3
:1017D000C0F6000100224FF4FA7300F0E9F9002886
:1017E00040F0998045F2DB40C0F60000042102F091
:1017F00035FF4FF4FA7001F08DF845F6AC4045F630
:101800006C41C0F60000C0F6000100224FF4FA73EC
:1018100000F0CEF900287ED145F2DB40C0F6000092
:10182000052102F01BFF4FF4FA7001F073F845F642
:10183000AC4045F66C41C0F60000C0F60001002245
:101840004FF4FA7300F0B4F9002864D145F2DB409C
:10185000C0F60000062102F001FF4FF4FA7001F01B
:1018600059F845F6AC4045F66C41C0F60000C0F6AC
:10187000000100224FF4FA7300F09AF900284AD1CF
:1018800045F2DB40C0F60000072102F0E7FE4FF40E
:10189000FA7001F03FF845F6AC4045F66C41C0F6F1
:1018A0000000C0F6000100224FF4FA7300F080F946
:1018B00088BB45F2DB40C0F60000082102F0CEFEF6
:1018C0004FF4FA7001F026F845F6AC4045F66C414D
:1018D000C0F60000C0F6000100224FF4FA7300F0D9
:1018E00067F9C0B945F2DB40C0F60000092102F0FB
:1018F000B5FE4FF4FA7001F00DF845F6AC4045F630
:101900006C41C0F60000C0F6000100224FF4FA73EB
:1019100000F04EF940B146F21B10C0F60000BDE8E1
:10192000804002F09BBE00BF45F2DB40C0F60000E5
:101930000A2102F093FE4FF4FA7000F0EBFF02A0D0
:10194000BDE8804002F08ABE45535038323636201A
:10195000415420436F6D6D616E6420546573742033
:1019600046696E616C204661696C6564202831307F
:101970002052657472696573204578686175737467
:101980006564290010B588B0002045F60B526C46FE
:10199000CDE90600CDE90400CDE90200CDE9000063
:1019A000C0F60002204620210123FEF797FC45F6F1
:1019B0007210C0F6000002F051FE45F66C4145F68B
:1019C0008472C0F60001C0F6000220464FF47A731C
:1019D00000F0EEF890B346F2FE0045F61171C0F645
:1019E0000000C0F6000102F039FE4FF47A7000F0FA
:1019F00091FF45F6C11045F69B11C0F60000C0F6F8
:101A0000000100F04FFA28B34FF47A7000F082FF23
:101A100045F6DF71C0F6000124A20220002300F089
:101A2000E3FA014645F6BF6222A0C0F60002002993
:101A300018BF104602F012FE08B010BD45F6136044
:101A4000C0F6000002F00AFE05A002F007FE08B092
:101A500010BD00BF0CA002F001FE08B010BD00BF19
:101A60004D515454204578616D706C653A20436F38
:101A70006E66696775726520535441204D6F6465C9
:101A8000204661696C6564004D515454204578616D
:101A90006D706C653A204C696E6B20576946692001
:101AA0004150204661696C6564000000313838336C
:101AB000000000004D515454204578616D706C65F4
:101AC0003A2041697468696E6B6572204D515454B7
:101AD00020436F6E6E656374204661696C656400B7
:101AE00070B5ADF5027D42AE30464FF48071FEF721
:101AF0009CFD02AD28464FF48071FEF796FD45F639
:101B0000AC20C0F6000002F0A9FD45F68E7446F246
:101B10003B1245F6B643C0F60004C0F60002C0F61C
:101B2000000328464FF480710094FEF7D7FB45F67A
:101B3000DB420024C0F6000230464FF480710023DF
:101B4000CDE90054FEF7CAFB45F66C41C0F6000132
:101B5000304600224FF4FA5300F02AF8044645F6C6
:101B6000A730C0F6000005A1002C18BF084602F0FF
:101B700075FD20460DF5027D70BD00BF3D3D3D3D2C
:101B80003D204F6E654E4554204D51545420546FA6
:101B900070696320537562736372696265202046C1
:101BA000696E6973686564203D3D3D3D3D00000000
:101BB0002DE9F047D0B340F2E414C2F20004054628
:101BC000894620464FF480611F469046FEF72DFD62
:101BD00040F2E850C2F200004FF48061FEF725FDAC
:101BE000B4F8000440F2541600F40040A4F80004D5
:101BF000B4F80004C2F200066FF3DF30A4F800046A
:101C00000020A4F80004304601F014FE642000F027
:101C100081FE30462146012202F05EFA80B15FA0CB
:101C200002F01CFD0020BDE8F08700BF45F68440AF
:101C3000C0F6000002F012FD0020BDE8F08700BFF2
:101C400040F2E856C2F200065EA230464FF48061D0
:101C50002B46FEF743FB3046FEF7A6FC05465BA08D
:101C6000314602F0FBFC40F25410AAB2C2F200006E
:101C700031464FF4FA6302F0A5FA58B157A002F0CA
:101C8000EDFC40F25410C2F2000001F0D3FD002040
:101C9000BDE8F087642000F03DFE59EA08000FD14E
:101CA00045F66B50C0F6000002F0D8FCB4F8000412
:101CB0006FF3DF30A4F800040120BDE8F08700BF17
:101CC00000F04AFF054600F047FF401BB8421AD219
:101CD00047F6FE7A40F2FD36B4F9000400280FD42E
:101CE000B4F8000400EA0A00B04209D80A2000F063
:101CF00011FE00F031FF401BB842EDD303E000BFFE
:101D00003EA002F0ABFCB4F8000440F2FF316FF3E8
:101D1000DF30884228BF08460021215446F2E00007
:101D2000C0F60000214602F099FCB9F1000F0DD079
:101D300099F8000050B140F2E410C2F200004946A8
:101D4000FEF720FC002818BF012000E00020B8F1B9
:101D5000000F10D078B998F8000058B140F2E410A4
:101D6000C2F200004146FEF70DFC002818BF01201A
:101D700001E000BF00200546322000F0CBFDB4F8A2
:101D80000014284601F40041A4F80014B4F800142B
:101D90006FF3DF31A4F80014BDE8F08745535038E5
:101DA00032363620554152543120496E7465727274
:101DB000757074205374617274204661696C656437
:101DC0000000000025730D0A0000000073656E64BA
:101DD000206F726465723A257300000045535038D5
:101DE000323636205541525431205472616E736D33
:101DF0006974204661696C65640000004553503881
:101E000032363620436D64205375636365737320E7
:101E1000526573706F6E736520000000B0B545F2B7
:101E20000360C0F6000002F019FC45F6AF40C0F6B2
:101E30000000002100224FF47A730025FFF7B8FE5E
:101E400040F2E41440F25410C2F20004C2F2000066
:101E50002146012202F040F94FF4FA6000F05AFDE9
:101E600020464FF48061FEF7E0FBB4F8000400F474
:101E70000040A4F80004B4F800046FF3DF30A4F8C5
:101E8000000445F69A60C0F60000A4F8005402F081
:101E9000E5FB4FF47A6000F03DFDBDE8B040FFF790
:101EA0003BBC000070B592B00D46044602A840212C
:101EB000FEF7BBFB84B1207870B125B12846FEF750
:101EC00073FB072812D845F6CE10C0F6000002F0CA
:101ED000C5FB002012B070BD46F2B610C0F600007F
:101EE00002F0BCFB002012B070BD00BF45F6B5107B
:101EF00045F66C4145F68472C0F60000C0F600015C
:101F0000C0F600024FF47A73FFF752FEF0B14FF4BF
:101F1000FA7000F0FFFC02AE21A2304640212346B9
:101F20000095FEF7DBF945F66C41C0F6000121A2F1
:101F3000304641F28833FFF73BFE68B121A02146CD
:101F400002F08CFB012012B070BD00BF07A002F0B0
:101F500085FB002012B070BD45F2F170C0F60000A4
:101F6000214602F07BFB002012B070BD4553503873
:101F7000323636204C494E4B204150204572726F0C
:101F8000723A20535441204D6F646520436F6E6652
:101F90006967757265204661696C656400000000C0
:101FA00041542B43574A41503D222573222C222570
:101FB000732200005749464920434F4E4E45435433
:101FC0004544000045535038323636204C494E4B7C
:101FD0002041502053756363657373202853534920
:101FE000443A202573290000F0B5C7B00D460746D6
:101FF00007A84FF480711E461446FEF716FB022F09
:102000000CD1002D18BF002C0ED146F28310C0F663
:10201000000002F023FB002047B0F0BD55A002F005
:102020001DFB002047B0F0BD28780028EDD02078B7
:102030000028EAD0052E07D145F29C40C0F60000EA
:1020400002F00CFB002602E0042E00F28D8045F623
:10205000DA20C0F6000002F001FB45F68E7746F26A
:102060008F00C0F60007C0F60000294622463B4616
:1020700002F0F4FA45F6D03045F6B6410122C0F63A
:102080000000C0F60001CDE9002745F2384207AF55
:102090004FF0000CCDE90210C0F6000238464FF4B4
:1020A00080713346CDF810C0CDF814C0FEF716F994
:1020B00046F2B700C0F60000394602F0CFFA45F606
:1020C0006C4145F68472C0F60001C0F60002384645
:1020D0004FF4FA63FFF76CFDB0B34FF4FA7000F001
:1020E00019FC43A12046FEF7F3FA0746002818BF63
:1020F0000127CDE9005445F6F14207ACC0F60002D5
:1021000020464FF4807100230297FEF7E7F845F66A
:10211000524145F66C42C0F60001C0F6000220466E
:102120004FF4FA53FFF744FD45F25170C0F600003A
:1021300002F094FA45F60C20C0F6000002F08EFA88
:10214000012047B0F0BD00BF45F63960C0F6000081
:1021500002F084FA45F65330C0F6000002F07EFA31
:10216000002047B0F0BD00BF12A002F077FA0020B7
:1021700047B0F0BD4D515454204572726F723A20F1
:102180004F6E6C79204D5154542050726F746F63B0
:102190006F6C20537570706F72746564202841698C
:1021A0007468696E6B6572204669726D77617265DD
:1021B000290000004D515454204572726F723A202C
:1021C000496E76616C696420436F6E6E65637469F5
:1021D0006F6E20494420284F6E6C7920302D3420BA
:1021E0006F72203520416C6C6F77656429000000A8
:1021F000383838330000000070B5E2B022AE304607
:102200004FF48071FEF711FA02AD28468021FEF7E7
:102210000CFA45F6AC20C0F6000002F01FFA45F6B5
:102220008E7445F6B643C0F6000415A2C0F600034E
:10223000284680210094FEF751F845F6DB42002441
:10224000C0F6000230464FF480710023CDE90054FF
:10225000FEF744F845F66C41C0F600013046002216
:102260004FF4FA53FFF7A4FC04461AA00CA1002C6B
:1022700018BF084602F0F2F9204662B070BD00BFF8
:10228000247379732F25732F25732F7468696E67F4
:102290002F70726F70657274792F7365740000000F
:1022A0003D3D3D3D3D204F6E654E4554204D5154C2
:1022B0005420546F7069632053756273637269624E
:1022C000652046696E6973686564203D3D3D3D3D0E
:1022D000000000003D3D3D3D3D204F6E654E4554A4
:1022E000204D5154542053756273637269626520A6
:1022F00041626F7274203D3D3D3D3D0070B5E2B0DE
:1023000022AE30464FF48071FEF78FF902AD2846B9
:102310008021FEF78AF91CA002F0A0F945F68E7420
:1023200046F25A1245F6B643C0F60004C0F6000263
:10233000C0F60003284680210094FDF7CFFF45F644
:10234000DB420024C0F6000230464FF480710023C7
:10235000CDE90054FDF7C2FF45F66C41C0F600011F
:10236000304600224FF4FA53FFF722FC044645F6AC
:10237000A730C0F6000011A1002C18BF084602F0DB
:102380006DF9204662B070BD3D3D3D3D3D2053742A
:10239000617274204F6E654E4554204D5154542047
:1023A000546F70696320537562736372696265204C
:1023B0006E657773203D3D3D3D3D00003D3D3D3D1B
:1023C0003D204F6E654E4554204D51545420546F5E
:1023D0007069632053756273637269626520526528
:1023E00070616C792046696E6973686564203D3D53
:1023F0003D3D3D002DE9F04784B028B30646007806
:1024000010B30FF288313046FEF7BCF8804618B39F
:1024100008F10A0101E000BF04310878092801D061
:10242000202824D14878202801D009281CD1887878
:10243000202801D0092819D1C8782028ECD00928F3
:10244000EAD0033113E000BF0FF2943004B0BDE8CE
:10245000F04702F003B900BF40F27000C2F2000082
:1024600090F802A03DE000BF013100E002310022FF
:10247000C0B2D8B12C2819D07D2817D0881843783D
:10248000B3B12C2B14D07D2B12D0837893B12C2B8D
:1024900010D07D2B0ED0C37873B12C2B0CD07D2B9C
:1024A0000AD000790432C0B20028E3D1881804E0D1
:1024B000013002E0023000E003300022ADF80C20D1
:1024C000CDE90122421A01A8FEF7D6F845F6DA71E5
:1024D000C0F60001FEF756F88246002818BF4FF0FC
:1024E000010AADA13046FEF74DF88146D0B109F1A1
:1024F0000D0100E004310878092801D020281AD104
:102500004878202801D0092812D18878202801D0C5
:1025100009280FD1C8782028ECD00928EAD0033147
:1025200009E000BF40F27000C2F20000C4783BE056
:10253000013100E002310022C0B2D8B12C2819D0FC
:102540007D2817D088184378B3B12C2B14D07D2B5D
:1025500012D0837893B12C2B10D07D2B0ED0C37862
:1025600073B12C2B0CD07D2B0AD000790432C0B271
:102570000028E3D1881804E0013002E0023000E0D6
:1025800003300022ADF80C20CDE90122421A01A847
:10259000FEF772F845F6DA71C0F60001FDF7F2FFBA
:1025A0000446002818BF01247FA13046FDF7EAFF4A
:1025B0000746D8B107F10A0101E000BF04310878ED
:1025C000092801D020281AD14878202801D00928CC
:1025D00012D18878202801D009280FD1C878202866
:1025E000ECD00928EAD0033109E000BF40F27000C6
:1025F000C2F2000005793BE0013100E00231002227
:10260000C0B2D8B12C2819D07D2817D088184378AB
:10261000B3B12C2B14D07D2B12D0837893B12C2BFB
:1026200010D07D2B0ED0C37873B12C2B0CD07D2B0A
:102630000AD000790432C0B20028E3D1881804E03F
:10264000013002E0023000E003300022ADF80C203F
:10265000CDE90122421A01A8FEF70EF845F6DA711B
:10266000C0F60001FDF78EFF0546002818BF0125C2
:1026700050A13046FDF786FF0646C8B1B11D00E007
:1026800004310878092801D020281AD14878202858
:1026900001D0092812D18878202801D009280FD12B
:1026A000C8782028ECD00928EAD0033109E000BF1F
:1026B00040F27000C2F2000041793BE0013100E0DD
:1026C00002310022C0B2D8B12C2819D07D2817D0F1
:1026D00088184378B3B12C2B14D07D2B12D083787B
:1026E00093B12C2B10D07D2B0ED0C37873B12C2B33
:1026F0000CD07D2B0AD000790432C0B20028E3D17F
:10270000881804E0013002E0023000E003300022CB
:10271000ADF80C20CDE90122421A01A8FDF7ACFF6B
:1027200045F6DA71C0F60001FDF72CFF01460028DE
:1027300018BF0121B8F1000F08BFB9F1000F1BD07D
:1027400040F27000C2F200000022028040F201124A
:1027500080F802A0C47005714171C28045F618501E
:10276000C0F6000022462B46CDF800A001F076FF0F
:1027700004B0BDE8F08700BF002FE1D1002EDFD10B
:102780000EA001F06BFF04B0BDE8F087226C696712
:1027900068745F62223A0000226C696768745F6245
:1027A00061636B223A000000226C696768745F669F
:1027B000223A00002273756E223A00005061727353
:1027C00065204572726F723A204E6F2056616C69B7
:1027D00064204669656C647320466F756E64000002
:1027E000506172736520496E666F3A20456D707452
:1027F00079204275666665722028536B6970205097
:102800006172736529000000EFF3108072B600BF9B
:10281000FEE70000014690F82100022816D1086862
:10282000D1E90FC3026822F00E020260026822F0B2
:1028300001020260012000FA03F2CCF8042081F8C2
:1028400021000020002281F82020704704208863A6
:102850000120002281F820207047000090F821100C
:10286000022923D1026840F2040C1168C4F2020C60
:1028700021F00E01116013682F21C4F202018A4277
:1028800023F00103136015DD3023C4F202039A42E2
:102890001CD04423C4F202039A421BD05823C4F232
:1028A00002039A421CD14FF4803321E0042181635A
:1028B000012070470823C4F202039A420ED01C2361
:1028C000C4F202039A420BD1102311E04FF480733B
:1028D0000EE000BF4FF480530AE000BF012307E081
:1028E0000CF168014FF080738A4208BF4FF48013E7
:1028F0000121CCF8003080F82110416B0022002922
:1029000080F8202004BF0020704780B58847002051
:1029100080BD0000B0B5044600F01EF9054640F247
:102920000000C2F200000078611C18BF044400BF20
:1029300000F012F9401BA042FAD3B0BD2DE9F04FD0
:1029400082B00E68002E00F0FD8041F20042C4F219
:102950000102042340F2004E904208BF03234FF6C9
:10296000FF7CC4F2010E009300240123C1F2100C7D
:102970004FF0000A4FF000094BE000BF41F20002A7
:10298000C4F20102009F904208BF022704F00C032A
:102990000F229A402BEA020207FA03F34FEA9A0544
:1029A0001A4346F825204E6840F20C45F202DEF844
:1029B000082054BF22EA080242EA0802C4F20105D4
:1029C000CEF808202A68B30254BF22EA080242EA7D
:1029D00008022A60B303DEF8042054BF22EA08028A
:1029E00042EA0802F303CEF80420DEF800204FF09C
:1029F000010354BF22EA080242EA0802CEF800208E
:102A00000E680AF1010A36FA0AF204F1040400F031
:102A1000998003FA0AFB16EA0B08F1D04E68664566
:102A200012DC122E56D8DFE806F0350B4D4955550D
:102A3000555555555555555555555545510000BF9A
:102A4000D1F80C9046E000BF4FF6FF72C1F22102B0
:102A500096420FDC0022C1F2110296421AD00022E7
:102A6000C1F21202964215D00022C1F22102964212
:102A700010D02FE00022C1F2220296420AD000229A
:102A8000C1F23102964205D00022C1F232029642D2
:102A900020D100BF8A684AB1012A14BFC0F814B01F
:102AA000C0F810B04FF0080914E000BF4FF004095F
:102AB00010E000BFCA6802F104090BE04FF0000902
:102AC00008E000BFCA6802F1080903E0CA6802F121
:102AD0000C0900BF02462646B8F5807F24BF0432A9
:102AE000203E17680F25B54027EA050509FA06F6C6
:102AF00035431560CA79D2067FF582AF41F21803DB
:102B0000C4F202031A68AEF57E7642F001021A6042
:102B10001A6802F001020192019A2AF0030256F8A3
:102B200002B040F60002C4F20102904208D040F622
:102B30000042C4F2010290427FF420AF012725E752
:102B4000002723E702B0BDE8F08F0000002A08BF8D
:102B5000090401617047000040F6E850C2F200002D
:102B60000068704740F2000040F6E851C2F20000F1
:102B7000C2F2000100780A68104408607047000043
:102B800080B542F20000C4F20200016841F0100179
:102B90000160032000F08CF80F2000F005F800F031
:102BA00027F8002080BD000070B540F20006C2F298
:102BB000000640F208013278C2F200014FF47A7345
:102BC0000968B3FBF2F20446B1FBF2F1084600F0EB
:102BD00085FB0F2C4FF0010508D838B94FF0FF30B6
:102BE00021460022002500F037F87460284670BDA9
:102BF00082B041F21800C4F202000168022241F0E2
:102C000001010160016801F0010101910199416830
:102C100041F080514160406800F080500090009881
:102C20000420C4F20100016862F31A61016002B07D
:102C300070470000002848BF704700F01F010122C4
:102C400002FA01F11C2202EAD0004EF20012CEF28A
:102C5000000281507047000010B54EF60C5CCEF2B9
:102C6000000CDCF80030C3F3022E8EF00704042CB5
:102C700028BF0424BEF103034FF0FF3E0EFA04F414
:102C800038BF0023A14399400EFA03F39A4311433E
:102C900000F00F0200F160430901043A03F56443B8
:102CA0006244002848BF02F10C03197010BD0000F7
:102CB0004EF60C51CEF200010A684FF6FF031A409F
:102CC00060F30A2242F0806040F0FD7008607047B7
:102CD000002804BF012070472DE9F04381B042F283
:102CE0000008C4F202080446D8F800000D4600F0BF
:102CF000070081420CD9D8F8000020F007002843D3
:102D0000C8F80000D8F8000000F00700A8426CD115
:102D1000206841F204098107C4F2020917D541076E
:102D200005D5D9F8001041F4E061C9F80010010799
:102D300005D5D9F8001041F46051C9F80010D9F850
:102D40000010A26821F0F0011143C9F80010C0077B
:102D500042D1D8F8000000F0070085420CD2D8F824
:102D6000000020F007002843C8F80000D8F8000051
:102D700000F00700A84238D12068410707D5D9F8EC
:102D80000010E26821F4E0611143C9F80010000767
:102D900008D5D9F80000216920F4605040EAC1004C
:102DA000C9F80000D9F8002002F00C00082841F210
:102DB0000020C0F27A004DD145F2D633C2F38341F0
:102DC000C0F60003595CD20338D440F60010C0F2BC
:102DD0003D0048433EE000BF606859F8041C0228EB
:102DE00008D0012826D1890306D4012001B0BDE80E
:102DF000F08300BF8901F8D5D9F8001021F0030154
:102E00000843C9F80000FFF7A7FE064641F28837DD
:102E1000D9F80000616800F00C00B0EB810F98D089
:102E2000FFF79AFE801BB842F2D9032001B0BDE83B
:102E3000F08300BF8907D8D5DEE700BFD9F80020AE
:102E400045F2D433C2F34042C0F600039A5C4843D3
:102E5000B0FBF2F0D9F8001045F2BC32C1F3031117
:102E6000C0F60002515C40F2080220FA01F140F283
:102E70000400C2F200000068C2F200021160FFF715
:102E800093FE002001B0BDE8F083000040F208008E
:102E900041F20401C2F20000C4F2020100680968B4
:102EA00045F2CC32C1F30221C0F60002515CC840A9
:102EB0007047000040F2080041F20401C2F2000035
:102EC000C4F202010068096845F2CC32C1F3C221A4
:102ED000C0F60002515CC84070470000002804BFE3
:102EE000012070472DE9F04182B00446007841F29C
:102EF0000006C007C4F202060CD0706800F00C0097
:102F0000042840F081803068800303D56068002881
:102F100000F04681207880071BD5706810F00C0FF8
:102F200009D0706800F00C00082840F087807068B5
:102F3000C00300F183803068800703D52069012831
:102F400040F02E813068616920F0F80040EAC1004D
:102F500030602078000713D4207840072CD4E5692E
:102F6000002D00F01881706800F00C00082840F077
:102F7000A780012D40F00481012002B0BDE8F0815E
:102F8000A069002800F084800020C4F242200121C2
:102F9000C0F88014FFF7E0FD054600BF706A8007A7
:102FA00000F1B280FFF7D8FD401B0228F6D90320BC
:102FB00002B0BDE8F08100BFF0695FEAC00808D444
:102FC000F06940F08050F061F06900F080500090AE
:102FD000009847F20007C4F200073868C00549D4DA
:102FE000386840F480703860FFF7B6FD054600BFD2
:102FF0003868C0053ED4FFF7AFFD401B6428F7D901
:10300000032002B0BDE8F081706800F00C000828D1
:1030100003D17068C0033FF576AF6168306800295E
:1030200000F00C81B1F5A02F00F00081B1F5803FD8
:1030300040F01A8140F480301CE100BF2069002874
:1030400040F20000C4F2422000F0888001210160BB
:10305000FFF782FD054600BF306880073FF572AF7D
:10306000FFF77AFD401B0228F6D9032002B0BDE825
:10307000F08100BFE168306A002900F09D800529D9
:1030800000F09280012940F0AF8040F00100B1E0F3
:103090000020C4F242200021C0F88014FFF75CFD3C
:1030A000054600BF706A80077FF556AFFFF754FDF5
:1030B000401B0228F6D9032002B0BDE8F08100BF12
:1030C0000027C4F2422700203866FFF745FD022D95
:1030D00005460DD13068800140F1DE80FFF73CFDF0
:1030E000401B02284FF00300F4D902B0BDE8F08184
:1030F000306880014FD5FFF72FFD401B02284FF0AD
:103100000300F5D9F1E700BF40F20800C2F2000069
:10311000006844F6D351C1F26201A0FB0101480AE4
:10312000019000BF00BF0198411E002801913FF4AB
:1031300013AF00BF0198411E002801913FF40CAF6E
:1031400000BF0198411E002801913FF405AF00BF68
:103150000198411E00280191E4D1FDE600210160A3
:10316000FFF7FAFC054600BF306880077FF5F1AE37
:10317000FFF7F2FC401B02284FF00300F4D9B4E73C
:103180007068216A00F480328A4209D1616A00F4D1
:103190007010884204D1002002B0BDE8F08100BF69
:1031A000012002B0BDE8F08140F004003062306AD6
:1031B00040F001001EE000BF20F001003062306AE4
:1031C00020F004003062FFF7C7FC054641F2883763
:1031D000306A800720D5FFF7BFFC401BB8424FF094
:1031E0000300F5D981E700BF20F001003062306AAA
:1031F00020F004003062FFF7AFFC054641F288374B
:10320000306A800708D4FFF7A7FC401BB842F7D903
:10321000032002B0BDE8F081B8F1000F3FF59FAE8A
:10322000F06920F08050F06199E600BF40F4802002
:103230003060306840F480301CE000BF20F4803003
:103240003060306820F480203060FFF785FC054650
:10325000306880037FF55EAEFFF77EFC401B64287C
:103260004FF00300F4D940E720F48030306030683C
:1032700020F480203060FFF76FFC05463068800343
:103280003FF548AEFFF768FC401B6428F6D90320E1
:1032900002B0BDE8F08100BF206AB0F5803F05D1E3
:1032A0007168A26821F40031114371607168626A2B
:1032B00021F4741111430843706001203866FFF750
:1032C0004BFC0446306880013FF565AFFFF744FCD6
:1032D000001B02284FF00300F4D906E7411E00202E
:1032E000B0EB116F1CBF012070474EF21002CEF2FE
:1032F000000251604EF62351CEF20001F0230B7014
:10330000072190601160704770470000704700000F
:1033100090F83C20012A4FF0020236D010B580F818
:103320003D200268D2F804E0D2F808C00C682EF004
:103330007003234340F2FF74C4F20004A2425360BE
:103340000ADCB2F1804F13D040F20043C4F2000314
:103350009A420DD011E000BF42F60043C4F20103CF
:103360009A4205D040F60003C4F200039A4204D109
:1033700049682CF08003194391600121002280F8F4
:103380003D1080F83C20BDE810401046704700001A
:10339000002804BF0120704710B590F83D1031B9E6
:1033A000002180F83C10044600F070F8204602210D
:1033B00080F83D10016840F2FF740B68C4F200040D
:1033C00042F6004CA142C4F2010C15DCB1F1804F71
:1033D0001AD040F20042C4F20002914214D0A1423D
:1033E00018DCB1F1804F1DD040F20042C4F200025F
:1033F000914217D01AE000BF614505D040F60002A7
:10340000C4F200029142EAD1826823F070031343B0
:10341000A142E6DD614505D040F60002C4F200029B
:10342000914203D1026923F440731343846923F06A
:103430008002D0F804E0C368224361450A60CB6291
:10344000C1F828E002D14269CCF8302001224A615B
:103450000B69DB0703D00B6923F001030B6180F8D4
:10346000462080F83E2080F83F2080F8402080F8F9
:10347000412080F8422080F8432080F8442080F8E2
:10348000452080F83D20002010BD000010B584B01C
:10349000006840F60001C4F2000188422AD040F2E0
:1034A0000041C4F20001884214D0B0F1804F1CBF2B
:1034B00004B010BD41F21C00C4F2020001681C24DB
:1034C00041F001010160006800F0010003900398E1
:1034D0001EE000BF41F21C00C4F2020001681D247E
:1034E00041F002010160006800F0020002900298C1
:1034F0000EE000BF41F21C00C4F2020001681E246D
:1035000041F004010160006800F00400019001989E
:10351000204600210022FFF79FFB204604B0BDE8B3
:103520001040FFF787BB000090F83C20012A4FF0C5
:1035300002026CD080B580F83D20D0F800C04FF674
:103540007772DCF8083023EA0202CCF808200B6816
:103550004F2B29DC1F2B45DD202B46D0302B44D0B0
:10356000402B40F0AF80D1F804E0C968DCF820308F
:10357000DCF8202022F00102CCF82020DCF8182012
:1035800022F0F00242EA011123F00A0242EA0E029E
:10359000CCF81810CCF82020DCF8081041F04701D6
:1035A00021F0300128E000BF6F2B33DDB3F5005F61
:1035B00074D0B3F5805F21D0702B40F08380D1E9C7
:1035C00001E3C968DCF8082043EA0E0322F47F42D5
:1035D00043EA01211143CCF80810DCF8081041F04F
:1035E000770109E00BB1102B6CD1DCF8081021F049
:1035F0007001194341F00701CCF8081000220121A5
:1036000080F83D10002180F83C10BDE88040104655
:10361000704700BF502B21D0602B53D1D1F804E06C
:10362000C968DCF82030DCF8202022F01002CCF849
:103630002020DCF8182022F4704242EA013123F005
:10364000A00242EA0E12CCF81810CCF82020DCF8C8
:10365000081041F0670121F01001CDE7D1F804E036
:10366000C968DCF82030DCF8202022F00102CCF818
:103670002020DCF8182022F0F00242EA011123F0A9
:103680000A0242EA0E02CCF81810CCF82020DCF82E
:10369000081041F0570121F02001ADE7D1E901E325
:1036A000C968DCF8082043EA0E0322F47F4243EAAB
:1036B00001211143CCF80810DCF8081041F48041D6
:1036C0009AE700BF01229AE77047000070B50446F0
:1036D0000068C5680669B10716D515F0020113D058
:1036E0006FF002010161012121778069800703D019
:1036F0002046FFF7E9FF05E0204600F08FF820465E
:1037000000F08EF800202077700719D515F004001E
:1037100016D020686FF004010161022121778069D1
:1037200010F4407F04D02046FFF7CEFF06E000BF34
:10373000204600F073F8204600F072F80020207751
:10374000300717D515F0080014D020686FF0080175
:10375000016104212177C069800703D02046FFF76B
:10376000B3FF05E0204600F059F8204600F058F875
:1037700000202077F00619D515F0100016D020682B
:103780006FF01001016108212177C06910F4407FBA
:1037900004D02046FFF798FF06E000BF204600F067
:1037A0003DF8204600F03CF800202077F00718BFD5
:1037B00015F0010002D1300609D412E020686FF044
:1037C00001010161204600F02DF8300609D515F001
:1037D000800006D020686FF0800101612046FFF76D
:1037E00093FD700609D515F0400006D020686FF0F3
:1037F00040010161204600F017F8B00658BF70BDC7
:1038000015F0200008D021686FF0200220460A61E0
:10381000BDE87040FFF77ABD70BD00007047000042
:1038200070470000704700007047000070470000BC
:103830007047000010B500BF016851E8031F02681F
:1038400021F4907142E80313BBB3016851E8031FF0
:10385000026821F4907142E8031373B3016851E8E0
:10386000031F026821F4907142E803132BB301682F
:1038700051E8031F026821F4907142E80313002B02
:10388000DAD11AE0016851E8051F026821F0010150
:1038900042E80513DBB1016851E8051F026821F019
:1038A000010142E8051393B1016851E8051F026860
:1038B00021F0010142E805134BB1016851E8051FF1
:1038C000026821F0010142E80513002BDAD1016BF7
:1038D000012924D1016851E8031F026821F0100179
:1038E00042E80313DBB1016851E8031F026821F0CD
:1038F000100142E8031393B1016851E8031F026805
:1039000021F0100142E803134BB1016851E8031F95
:10391000026821F0100142E80313002BDAD101689C
:103920004969490636D500BF016851E8051F02689C
:1039300021F0400142E80513DBB1016851E8051FA1
:10394000026821F0400142E8051393B1016851E893
:10395000051F026821F0400142E805134BB10168E0
:1039600051E8051F026821F0400142E80513002BD1
:10397000DAD1C16B71B1044644F2D160C0F60000E7
:1039800048630846FEF76AFF60B1E06B416B884709
:10399000002010BD00212022C18580F84220016353
:1039A000FFF746FF002010BD70470000B0B582B0A1
:1039B00001680A68CC684B6902F02F05202D04F0DD
:1039C000200505D125B102B0BDE8B04000F08ABEA7
:1039D0005FEA027C1EBF03F0010E04F4907313EB48
:1039E0000E0341D1036BD50618D5012B16D114F067
:1039F000100313D0002201920A6801924A680192D2
:103A0000019A496949064BD4818DC28DC38D002B23
:103A100018BF914240F0F48102B0B0BD13062DD51D
:103A200014F080032AD090F84120212AF4D1826832
:103A3000B2F5805F03D10269002A00F06782026A52
:103A4000531C036212784A60C28C013A1304C28488
:103A5000E2D1C86820F08000C860C86840F040002B
:103A6000C86002B0B0BD00BFD30718BF14F48073A4
:103A700040F0D080530700F1D380D8E05206CBD578
:103A800014F04002C8D0CA6822F04002CA60202167
:103A900080F8411002B0BDE8B04000F07DBC00BF2E
:103AA000C16B0A68526893B2002BB5D0858DAB42CA
:103AB000B2D2C2858969202900F0A180016851E84D
:103AC000031F026821F4807142E80313DBB101682F
:103AD00051E8031F026821F4807142E8031393B197
:103AE000016851E8031F026821F4807142E8031362
:103AF0004BB1016851E8031F026821F4807142E86C
:103B00000313002BDAD1016851E8051F026821F088
:103B1000010142E80513C3B3016851E8051F0268BB
:103B200021F0010142E805137BB3016851E8051F4C
:103B3000026821F0010142E8051333B3016851E83E
:103B4000051F026821F0010142E80513002BDAD1BC
:103B50001BE000BF016851E8051F026821F0400129
:103B600042E80513DBB1016851E8051F026821F046
:103B7000400142E8051393B1016851E8051F02684E
:103B800021F0400142E805134BB1016851E8051FDF
:103B9000026821F0400142E80513002BDAD1202110
:103BA00080F8421000210163016851E8031F026898
:103BB00021F0100142E80313DBB1016851E8031F53
:103BC000026821F0100142E8031393B1016851E843
:103BD000031F026821F0100142E803134BB1016892
:103BE00051E8031F026821F0100142E80313002B83
:103BF000DAD1C16B04460846FEF70CFE20460221CE
:103C00004163818DC28D891A89B202B0BDE8B0408E
:103C1000FFF70CBE436C43F001034364530706D522
:103C2000BEF1000F03D0436C43F0020343649307DB
:103C300006D5BEF1000F03D0436C43F00403436488
:103C4000BCF1000F06D55EEA050303D0436C43F0D8
:103C500008034364436C002B3FF4DEAE920605D5A7
:103C600025B1044600F03EFD216820464969426CBA
:103C700001F0400102F00802891800F0B98000BF8D
:103C8000016851E8031F026821F4907142E80313B0
:103C9000BBB3016851E8031F026821F4907142E848
:103CA000031373B3016851E8031F026821F4907194
:103CB00042E803132BB3016851E8031F026821F4A3
:103CC000907142E80313002BDAD11AE0016851E841
:103CD000051F026821F0010142E80513DBB101680C
:103CE00051E8051F026821F0010142E8051393B174
:103CF000016851E8051F026821F0010142E805133F
:103D00004BB1016851E8051F026821F0010142E84A
:103D10000513002BDAD1016B012924D1016851E888
:103D2000031F026821F0100142E80313DBB10168B0
:103D300051E8031F026821F0100142E8031393B118
:103D4000016851E8031F026821F0100142E80313E3
:103D50004BB1016851E8031F026821F0100142E8ED
:103D60000313002BDAD1202180F8421000210163D7
:103D700001684969490640F1C380016851E8051F9F
:103D8000026821F0400142E80513DBB1016851E807
:103D9000051F026821F0400142E8051393B1016854
:103DA00051E8051F026821F0400142E805134BB1BC
:103DB000016851E8051F026821F0400142E805133F
:103DC000002BDAD1C16B002900F09A8044F2C56261
:103DD000C0F60002044608464A63FEF73FFD00288D
:103DE0003FF41AAEE06B416B02B0BDE8B04008474B
:103DF0000446FFF7D9FD0020606402B0B0BD00BFEB
:103E0000891A00BF026852E8032F036822F49072F7
:103E100043E80325BDB3026852E8032F036822F488
:103E2000907243E8032575B3026852E8032F0368D4
:103E300022F4907243E803252DB3026852E8032F61
:103E4000036822F4907243E80325002DDAD11AE0CA
:103E5000026852E8052F036822F0010243E80525B5
:103E6000DDB1026852E8052F036822F0010243E841
:103E7000052595B1026852E8052F036822F001027A
:103E800043E805254DB1026852E8052F036822F08A
:103E9000010243E80525002DDAD1202280F84220D6
:103EA00000220263026852E8032F036822F0100226
:103EB00043E80325DDB1026852E8032F036822F0CE
:103EC000100243E8032595B1026852E8032F036806
:103ED00022F0100243E803254DB1026852E8032F97
:103EE000036822F0100243E80325002DDAD10222F4
:103EF00089B2426302B0BDE8B040FFF797BC00BF93
:103F000002B0BDE8B040FFF74FBD00BF026A32F813
:103F1000023B6FF35F234B60026295E5002804BF0C
:103F20000120704710B5044690F8410028B90020E0
:103F300084F84000204600F063F8242084F8410013
:103F40002068D4E90212C36823F40053C3600369F4
:103F500023F440531A430261D4E904231143C26895
:103F6000194341F20C639A431143C1604169A2694C
:103F700021F44071114343F60002C4F20102904261
:103F8000416103D0FEF782FF02E000BFFEF792FF1F
:103F9000D4E90023192148439900B0FBF1F048F21D
:103FA0001F5CC5F2EB1CA0FB0C314FF69C7349095A
:103FB000C0F6FF7301FB0300322303EB0010A0FBEC
:103FC0000C03F02000EA531000EB0110C3F343117F
:103FD000084490601069202120F4904010615069DD
:103FE00020F02A005061D06840F40050D0600020DA
:103FF000606484F8411084F84210606310BD0000D2
:10400000F0B585B0006844F20041C4F20001884276
:104010004FF00001CDE90311CDE9011122D043F6A3
:104020000001C4F20101884253D141F21800C4F2E8
:1040300002000168252441F48041016001684FF4C9
:10404000806701F4804100910099016841F004010A
:104050000160006800F00400009000984FF40070C8
:1040600019E000BF41F21800C4F2020041682624A2
:1040700041F4003141604168082701F400310091AA
:104080000099016841F004010160006800F004003B
:104090000090009804200190022040F60005029054
:1040A0000320C4F2010501AE049028463146FEF714
:1040B00045FC0020CDE90200284631460197FEF775
:1040C0003DFC204600210022FEF7C6FD2046FEF7FB
:1040D000B1FD05B0F0BD000090F84230202B07D1B3
:1040E00000294FF0010318BF002A05D11846704778
:1040F00002231846704700BF002303638162222118
:104100008285C285436480F842100169006819B154
:10411000C16841F48071C160416941F001014161B0
:10412000C16841F02001C16018467047006843F63D
:104130000001C4F20101884218BF704740F2E41048
:10414000C2F20000B0F80024B0F800146FF3DF32C0
:1041500040F2FE339A4221D86FF3DF316F2915D335
:10416000B0F800146FF3DF31415C7D290ED1B0F857
:1041700000146FF3DF31014411F8011C7D2905D1D2
:10418000B0F8001441F40041A0F80014B0F8002485
:10419000B0F80014013262F30E0104E048F20002AC
:1041A000CFF6FF721143A0F80014B0F800140122FA
:1041B0006FF3DF31014440F25410C2F20000FFF708
:1041C0008BBF00002DE9F04381B0044690F8410018
:1041D000202809D100294FF0010018BF002A07D17B
:1041E00001B0BDE8F08300BF022001B0BDE8F0835C
:1041F0000020606421201D460E4684F841001746C9
:10420000FEF7AAFCA784E784A1688146B1F5805F28
:1042100002D1206900285DD037460020E28C216859
:10422000002A5DD06A1C24D0002D4AD0804600BFF1
:104230000868000608D4FEF78FFCA0EB0900A8422E
:104240007AD82168C868F3E717B117F8010B04E0C2
:1042500038F8020B00276FF35F204860E08C0138CC
:10426000E084E08C0028E3D13AE000BF0A6812063F
:1042700009D40A68120606D40A6812065CBF0A68E6
:104280005FEA0262F2D51FB117F8012B05E000BF0B
:1042900030F8022B00276FF35F224A60E28C013A6C
:1042A000E284E28C002AE4D11AE000BF30F8022B4D
:1042B00000276FF35F224A60E28C013AE284E28CCD
:1042C00072B10A68120635D5002FEFD017F8012B0E
:1042D000F1E700BF00273046E28C2168002AA1D117
:1042E000086840061ED42DB3681C14D10868400627
:1042F0002AD40868400627D40868400624D40868F1
:1043000040064FF00000F1D50DE000BF2068C16805
:104310000068400618D4FEF71FFCA0EB0900A84275
:10432000F4D909E00020202184F8411001B0BDE853
:10433000F08300BFFEF710FC0320202184F8411019
:1043400001B0BDE8F08300BF0020202184F84110B7
:1043500001B0BDE8F083000090F84130202B07D178
:1043600000294FF0010318BF002A05D118467047F5
:1043700002231846704700BF016200232121828476
:10438000C284436480F841100068C16841F0800134
:10439000C16018467047000070470000FEE700004B
:1043A0002DE9F04186B0002741F21800CDE90477ED
:1043B000CDE90277C4F20200016840F6000441F042
:1043C000100101600168C4F2010401F010010191C3
:1043D0000199016804F5006541F020010160016860
:1043E000002201F020010191019901684FF400566B
:1043F00041F00401016000684FF4005100F0040036
:10440000019001982846FEF7A1FB2046F0210022EA
:104410004FF0F008FEF79AFB11200296CDE9030752
:10442000032002AE059028463146FEF787FA0120A8
:10443000CDE903070220059020463146CDF80880DB
:10444000FEF77CFA06B0BDE8F081000080B586B0CA
:1044500040F27C000021C2F200004FF0804247236E
:104460004FF6FF7C0591CDE90311CDE90011C0E9BC
:104470000023C0E9021C01618161FEF789FF002869
:1044800018BFFEF7C1F94FF48050029040F27C0053
:10449000C2F2000002A9FFF747F8002818BFFEF794
:1044A000B3F940F27C00C2F200006946FEF730FF2B
:1044B000002818BFFEF7A8F906B080BD80B586B009
:1044C00040F2C40040F200420021C2F20000C4F2F7
:1044D0000002082341F2931C0591CDE90311CDE9B7
:1044E0000011C0E90023C0E9021C01618161FEF7EF
:1044F0004FFF002818BFFEF787F94FF48050029055
:1045000040F2C400C2F2000002A9FFF70DF8002833
:1045100018BFFEF779F940F2C400C2F20000694604
:10452000FEF7F6FE002818BFFEF76EF906B080BD54
:1045300080B586B040F20C100021C2F2000040F6B7
:1045400000024CF24F3C0591CDE90311CDE9001179
:10455000C4F2000241F61F43C0E9021C0161802140
:10456000C0E900238161FEF713FF002818BFFEF7A2
:104570004BF94FF48050029040F20C10C2F2000050
:1045800002A9FEF7D1FF002818BFFEF73DF940F25F
:104590000C10C2F200006946FEF7BAFE002818BFF0
:1045A000FEF732F906B080BD80B540F2541043F6F4
:1045B0000001C2F20000C4F2010100234FF00C0C14
:1045C0004FF4E13280E80E00C0E90333C0E905C3CF
:1045D000C361FFF7A3FC002808BF80BDBDE8804091
:1045E000FEF712B980B540F29C1044F20041C2F2CD
:1045F0000000C4F2000100234FF00C0C4FF4E13234
:1046000080E80E00C0E90333C0E905C3C361FFF7CA
:1046100085FC002808BF80BDBDE88040FEF7F4B8E7
:10462000FEE70000FEE70000704700007047000052
:10463000FEF798BA7047000040F27C00C2F200001A
:10464000FFF744B840F2C400C2F20000FFF73EB8E2
:1046500040F20C10C2F20000FFF738B883B0B0B5DA
:1046600081B0CDE90512079338B340F6E814C2F2E1
:104670000004054620464FF48061FBF7D6FF05ABEA
:10468000204640F2FF312A460093FBF709FE204600
:10469000FBF78AFF40F60D22211822520020887075
:1046A0002046FBF781FF82B240F29C10C2F200006C
:1046B00021464FF47A73FFF785FD01B0BDE8B040A5
:1046C00003B07047406A0021C185C184FFF76CB90F
:1046D000406A00212022C18580F842200163FFF753
:1046E000A7B8000081B090F84210222921D1836838
:1046F0000246B3F5805F09D152F8281F52F8183CE2
:10470000002B63D003685B680AE000BF52F8281FE3
:1047100013B90369002BF5D003685B6803F07F03CE
:104720000B70116801311160C18D01390A04C18516
:1047300002D001B0704700BF0168CA6822F02002B1
:10474000CA60CA6822F48072CA604A6922F0010213
:104750004A61202180F8421000214163026B012A46
:104760003CD10163016851E8031F026821F0100188
:1047700042E80313DBB1016851E8031F026821F02E
:10478000100142E8031393B1016851E8031F026866
:1047900021F0100142E803134BB1016851E8031FF7
:1047A000026821F0100142E80313002BDAD10168FE
:1047B0000A68D20606D5002200920A68009249686B
:1047C00000910099818D01B0FFF730B802685268FE
:1047D0006FF35F2221F8022B8162A5E701B0FFF79A
:1047E000A5BC000040F25410C2F20000FFF7DEB892
:1047F00040F29C10C2F20000FFF7D8B8FEE70000BC
:1048000090B0FEF7BDF900240120CDE90B44CDE9BD
:10481000094406900A904FF4E0104FF480310225CD
:104820000F9006A8CDE90714CDE90D51FEF756FB10
:1048300020B1EFF3108072B6FEE700BF0F20CDE984
:1048400001054FF48060CDE9040401A8022103941E
:10485000FEF73EFA20B1EFF3108072B6FEE700BF1C
:1048600040F60004C4F20104FFF79AFDFFF79CFE36
:10487000FFF7B8FEFFF722FEFFF7E8FDFFF758FE4F
:10488000FDF7CCFAFDF77EF8FDF7B6FCFDF736FD37
:10489000FDF726F9FEF760F940F2700540F278075F
:1048A00046F2C928C2F200050126C2F20007C0F68E
:1048B00000084FF000090FF2700A02E04046FFF7CF
:1048C000CDFEA878202126EA00022046FEF73EF918
:1048D000EA7820468021FEF739F92879402126EA36
:1048E00000022046FEF732F96879102126EA00021C
:1048F0002046FEF72BF900F029F8FEF72DF938785D
:104900000028DBD1E8790128D8D13E70A878E97871
:104910002A796B79FCF724FE504687F8009085F8D9
:104920000790FFF79BFECCE74D5154542050756221
:104930006C6973683A2053756363657373202850FC
:10494000617273652049646C6529000070B540F29E
:10495000E414C2F20004B4F90004B0F1FF3FC8BF90
:1049600070BD40F27806C2F200060120307040F2BD
:104970005410C2F20000FEF75DFF24A02146FFF7AD
:104980006DFEB4F800142BA06FF3DF31FFF766FE65
:1049900033A12046FBF7F6FD60B1054634A0FFF7D2
:1049A0005DFE28467B21FBF7E3FD48B10130FDF7B2
:1049B00021FD05E045F28D70C0F60000FFF74EFEC8
:1049C00020464FF48061FBF730FEB4F8000401226A
:1049D00000F40040A4F80004B4F800046FF3DF30E2
:1049E000A4F80004B4F800046FF3DF30211840F29B
:1049F0005410C2F20000FFF76FFB45F20540C0F60D
:104A00000000FFF72BFE0020307070BD4D61696E15
:104A1000204C6F6F703A205265636569766520435C
:104A20006F6D706C65746520446174613A20257304
:104A3000000000004D61696E204C6F6F703A20528B
:104A400065636569766520436F6D706C657465207C
:104A50004461746120284C656E3A20256429000069
:104A60004D515454535542524543563A00000000AC
:104A70004D61696E204C6F6F703A2053746172748F
:104A8000205061727365204D515454205061636B06
:104A9000657400005FEA400C08BF91F0000F4FEA18
:104AA0008C234FEAC12243EA51514FEA1C5018BFF0
:104AB00000F5F0404FEA300018BF41F000415FEAD6
:104AC0006C5C00F02980BCF1FF3F08BF40F08040E3
:104AD0007047130C06BF12044FF0100C4FF0000C7F
:104AE000130E04BF12020CF1080C130F04BF1201C5
:104AF0000CF1040C930F04BF92000CF1020CD30FC5
:104B000004BF52000CF1010C11464FF00002A0F15D
:104B10001F00A0EB0C00704711F0004F08BF70475A
:104B200031F000413FF4D5AF0B0C06BF09044FF044
:104B3000100C4FF0000C0B0E04BF09020CF1080C16
:104B40000B0F04BF09010CF1040C8B0F04BF89008B
:104B50000CF1020CCB0F04BF49000CF1010CCCF19D
:104B6000200322FA03F341EA030102FA0CF2A0EB5C
:104B70000C0000F10100704723F07F4720F07F4CCC
:104B800080EA030000F00040ACEB070303F57C5320
:104B900003F1FF032DE9804909B44FEA144324EAE5
:104BA00003484FEA154B25EA0B4E0FF2042606EB9D
:104BB00013273E7803FB0667C7F5000707FB06F6D9
:104BC0004FEAD64606F102064FEA543707FB066C59
:104BD000CCF1005C4FEA1C472CEA074C0CFB06F5B5
:104BE00007FB06F404EB15464FEA961649085FEA00
:104BF000320234BF00204FF000404FEAD13706FBAD
:104C000007FC4FEA1C4C0CFB0BF7D21B03FB0CF709
:104C100061EB07010CFB0EF7B0EB074072EB17429C
:104C20000CFB08F734BFA2EB0742B2EB074261EB83
:104C300017414FEA0C444FEA910706FB07FC4FEA85
:104C40001C4C0CFB0BF7B0EBC74072EB573203FB6D
:104C50000CF734BFA2EBC742B2EBC74261EB57314E
:104C60000CFB0EF7B0EBC70072EB57720CFB08F7AA
:104C700034BFA2EBC702B2EBC70261EB57714FEA38
:104C8000816141EA92114FEA826242EA90124FEA50
:104C9000806004EBCC04039F4FEAD13706FB07FC8E
:104CA0004FEA1C4C0CFB0BF7D21B03FB0CF761EB20
:104CB00007010CFB0EF7B0EB074072EB17420CFB41
:104CC00008F734BFA2EB0742B2EB074261EB174192
:104CD0004FEA8C5504EB9C244FEA910706FB07FC36
:104CE0004FEA1C4C0CFB0BF7B0EBC74072EB573292
:104CF00003FB0CF734BFA2EBC742B2EBC74261EB38
:104D000057310CFB0EF7B0EBC70072EB57720CFB80
:104D100008F734BFA2EBC702B2EBC70261EB5771D1
:104D20004FEA816141EA92114FEA826242EA9012AF
:104D30004FEA806015EB4C2544F100044FEAD1376F
:104D400006FB07FC4FEA1C4C0CFB0BF7D21B03FBCA
:104D50000CF761EB07010CFB0EF7B0EB074072EBB1
:104D600017420CFB08F734BFA2EB0742B2EB074235
:104D700061EB17414FEA813141EA92414FEA8232B9
:104D800042EA90424FEA80304FEA0C7615EB1C1550
:104D900044F1000448EA03434EEA0B484FF0000E8A
:104DA000B2EB080C71EB030724BF624639464EEBA9
:104DB0000E0E4FF0000B0018524149414BEB0B0B0C
:104DC000B2EB080C71EB03077BF1000B24BF6246CA
:104DD00039464EEB0E0E4FF0000B00185241494180
:104DE0004BEB0B0BB2EB080C71EB03077BF1000BE9
:104DF00024BF624639464EEB0E0E51EA020718BF39
:104E000046F0010616EB0E7655F1000254F1000152
:104E100003D5BDE88901BDE80088BDE88901BDE88A
:104E20000048B619524141EB0101A3F1010370475B
:104E300080807F7E7D7C7B7A7978777676757473D7
:104E4000727171706F6E6E6D6C6C6B6A6A69686896
:104E5000676666656464636362616160605F5F5E2C
:104E60005E5D5D5C5C5B5B5A5A59595858575756A2
:104E70005655555554545353525252515150505007
:104E80004F4F4F4E4E4D4D4D4C4C4C4B4B4B4A4A59
:104E90004A4949494848484747474746464645459D
:104EA00045444444444343434342424242414141D6
:104EB0009C46002B30D477002BD04FEA37071CB527
:104EC00003B44FF010004FF01001BAF1000F06D0FC
:104ED000BCF1000FDCBF40F0080040F008014FF0CB
:104EE00000000FBCBDE810400BF1010BBBF1010F3E
:104EF00008BF5FEA170722BF12F1010211F1010199
:104F00004FF0004143F1000300F0004043EA00008D
:104F10007047F9D35708D0E746EA06464FEA1646E7
:104F200013F1400F1FDD13F1200FDFBF16430A46B8
:104F3000002120335B42BED0C3F1200746EA06467B
:104F40004FEA164602FA07F746EA070622FA03F284
:104F5000C3F1200701FA07F742EA070221FA03F139
:104F60004FF00003A7E746EA020646EA06464FEA84
:104F7000164646EA0106BCBF46EA0646360C4FF026
:104F800000034FF000024FF0000194E72DE9804C40
:104F900070B49A46934691E8380007C831EA400C4D
:104FA00048BF34EA430C03D5FFF7E6FDFFF780FF67
:104FB000F0BCBDE8008C2DE9804C70B49A46934655
:104FC00091E8380007C810F0804F08BF13F0804FF9
:104FD00003D100F005F8FFF76BFFF0BCBDE8008CD3
:104FE00020F07F4723F07F4C80EA030000F0004070
:104FF00007EB0C03A3F57C53A3F1FE0392F0000F23
:1050000000F0B38095F0000F00F077802DE90149A2
:105010004FEA114021EA00484FEA144624EA0647C5
:1050200000FB06FC08FB06F607FB08F818EB064831
:105030004CEB164C00FB07F718EB07484CEB1740FE
:105040004FEA124B22EA0B4E4FEA154625EA064775
:105050000BFB06FC0EFB06F607FB0EFE1EEB064ED8
:105060004CEB164C0BFB07F71EEB074E4CEB174BAC
:1050700018EB0B0840F1000018EB0E0B58EB000882
:1050800040F100008F1A4FF000014FF000063CBFC6
:10509000C943661B14BFB5EB040C00213CBFC943D8
:1050A000F61B4FEA174427EA04454FEA1C472CEA4F
:1050B000074C04FB076205FB07F70CFB05F616EB34
:1050C000074642EB174204FB0CFC16EB0C4642EB86
:1050D0001C421BEB060658EB020241414EEA8E0EC3
:1050E00046EA9E0601D5BDE80189B619524141EB59
:1050F0000101A3F10103BDE801894FEA144524EA47
:1051000005464FEA114721EA074C05FB07F406FB69
:1051100007F70CFB06F111EB074144EB174405FBC5
:105120000CFC11EB0C4144EB1C444FEA124722EA01
:10513000074C05FB07F206FB07F70CFB06F616EB20
:10514000074642EB174205FB0CFC16EB0C4642EB04
:105150001C456A1854F1000148BF7047B619524106
:1051600041EB0101A3F10103704795F0000F37D027
:105170004FEA114221EA02464FEA144724EA074C5B
:1051800002FB07F106FB07F70CFB06F414EB0744E0
:1051900041EB174102FB0CFC14EB0C4441EB1C41AE
:1051A0004FEA154725EA074C02FB07F506FB07F710
:1051B0000CFB06F616EB074645EB174502FB0CFC0D
:1051C00016EB0C4645EB1C42121951F1000148BF89
:1051D0007047B619524141EB0101A3F10103704739
:1051E0004FEA144524EA05464FEA114721EA074CE5
:1051F00005FB07F106FB07F70CFB06F212EB074273
:1052000041EB174105FB0CFC12EB0C4251EB1C412E
:105210004FF0000648BF7047921841EB0101A3F11F
:1052200001037047490050EAC12018BF04204A0D0D
:1052300018BF40F0010040F2FF72B2EB515F08BFAF
:1052400040F00200012808BF0520704730380A28C6
:1052500001D20120704700207047000010B50029DE
:105260000AD00878002807D005487844FBF730FAC0
:10527000002801D0002010BD0248784410BD000075
:10528000A21000009A10000010B500290AD008787A
:10529000002807D005487844FBF71AFA002801D007
:1052A000002010BD0248784410BD000086110000A7
:1052B0007E110000FBF773BDFBF7A8BE04000008D9
:1052C00000000000000000020001000010000000CB
:1052D0000000000000000000303132333435363732
:1052E000383941424344454640305800303132332A
:1052F000343536373839616263646566403078002A
:10530000303132333435363738396162636465663B
:1053100078700030313233343536373839414243D2
:10532000444546585000000002400000000000A024
:105330000000000005400000000000C80000000060
:105340000C4000000000409C0000000019400000DC
:105350000020BCBE0000000034400000BFC91B8E0E
:1053600000000004B5400000504BCFD06607E2CFEC
:10537000010000006C4100003E8251AADFEEA7341C
:1053800001000000D9420000DCB5A0E23A301F97CE
:10539000FFFFFFFFB4450000FD25A0C8E9A3C14FF2
:1053A000FFFFFFFFFF3F0000000000800000000043
:1053B000FF3F00000000008000000000000000002F
:1053C00000000000010203040607080900000000B5
:1053D00001020304010202030405060708090A0B7F
:1053E0000C0D0E0F101041542B4D5154545055427A
:1053F0005241573D25642C222573222C25642C30E4
:105400002C300D0A004D61696E204C6F6F703A2090
:1054100042756666657220436C65617265642C2016
:10542000526561647920666F72204E6578742052EF
:105430006563656976650A0041542B4D5154545596
:105440005345524346473D25642C25642C22257341
:10545000222C222573222C222573222C25642C2514
:10546000642C22004C696E6B537461747573204513
:1054700072726F723A204553503832363620486186
:1054800073204E6F74204F627461696E65642049A9
:10549000502028436F64653A203029004D51545400
:1054A00020496E666F3A2053696E676C6520436FC2
:1054B0006E6E656374696F6E204D6F646520284D54
:1054C0006170204944203520746F204169746869F7
:1054D0006E6B6572204944203029004553503832A4
:1054E000363620415420436F6D6D616E64205465E3
:1054F0007374204661696C65642C205265747279FE
:10550000696E672E2E2E202825642F313029004CFD
:10551000696E6B53746174757320496E666F3A20BF
:105520004553503832363620486173204F627461DB
:10553000696E656420495020284E6F20436F6E6E5F
:10554000656374696F6E2C20436F64653A2032295D
:10555000004C696E6B53746174757320496E666F8D
:105560003A2045535038323636204861732045730F
:105570007461626C697368656420436F6E6E656305
:1055800074696F6E2028436F64653A203329004C9C
:10559000696E6B53746174757320496E666F3A203F
:1055A0004553503832363620436F6E6E65637469EA
:1055B0006F6E20446973636F6E6E656374656420FB
:1055C00028436F64653A2034290054435020436CCB
:1055D00069656E7420496E6974204661696C656402
:1055E0003A2057694669204C696E6B204572726F8C
:1055F000722028436865636B20535349442F5057EA
:10560000442900455350383236362053656E64695C
:105610006E6720536F667420526573657420436F04
:105620006D6D616E64202841542B52535429004DF6
:10563000515454205075626C697368204661696CDE
:1056400065643A204A534F4E2053697A652045726B
:10565000726F7220282564290054435020436C69DE
:10566000656E7420496E666F3A2054727920746FAB
:1056700020436F6E6E6563742054435020536572EF
:10568000766572202825733A2564290045535038E1
:1056900032363620415020456E6372797074696FDE
:1056A0006E204D6F646520496E76616C69642028B8
:1056B0004F6E6C7920307E3420416C6C6F7765645E
:1056C00029004578697420537563636573733A20C4
:1056D0004553503832363620486173204578697416
:1056E0006564205472616E73706172656E74204DD2
:1056F0006F646520284261636B20746F20415420E1
:105700004D6F6465290054435020436C69656E7485
:10571000205761726E3A205472616E7370617265C7
:105720006E74204D6F646520456E61626C65204625
:1057300061696C65642028557365204E6F6E2D5429
:1057400072616E73706172656E74204D6F6465294D
:10575000004D51545420537563636573733A20436D
:105760006F6E6E656374656420746F204D51545480
:1057700020536572766572202841697468696E6B82
:105780006572204669726D7761726529004D6169A5
:105790006E204C6F6F703A204E6F6E2D4D515454E9
:1057A000205061636B6574202849676E6F726529AC
:1057B0000045786974205761726E3A20455350381D
:1057C000323636204D6179204E6F742045786974E9
:1057D000205472616E73706172656E74204D6F64D7
:1057E000652028436865636B2054696D696E67297D
:1057F0000045535038323636204C494E4B204150EC
:10580000204661696C65642028535349443A202539
:10581000732C20436865636B2050617373776F72DC
:10582000642F486F7473706F74205369676E616C76
:10583000290054435020436C69656E7420496E669C
:105840006F3A20446174612053656E6420746F2048
:105850004553503832363620537563636573732071
:105860002857696C6C205472616E73706172656E3A
:105870007420746F2053657276657229005443500A
:1058800020436C69656E74204572726F723A2044D1
:105890006174612053656E6420746F2045535038E5
:1058A000323636204661696C656420285541525471
:1058B00031204572726F72290045535038323636A6
:1058C0002041502050617373776F726420496E7667
:1058D000616C69642028456E6372797074204D6F25
:1058E0006465204E656564206174206C6561737425
:1058F0002038204279746573290054435020436C4A
:1059000069656E7420496E666F3A205472616E73D9
:10591000706172656E74204D6F646520456E6162C2
:105920006C652053756363657373202853656E64DB
:1059300020272B2B2B2720746F2045786974290092
:105940004553503832363620415020535349442075
:10595000496E76616C6964202843616E6E6F7420B5
:105960006265204E554C4C206F7220456D707479E5
:1059700029004553503832363620204E6574776FF3
:10598000726B204D6F64652E2E2E2E2E0031393213
:105990002E3136382E302E313030005171333138BF
:1059A000343938363338310041542B4349504D4F48
:1059B00044453D310041542B43574D4F44453D3103
:1059C0000054502D4C494E4B5F42344632004553F3
:1059D0005038323636204C494E4B204150204572CB
:1059E000726F723A2050617373776F7264206973BB
:1059F000204E554C4C206F72204C656E67746820A9
:105A00003C2038002B43574C41503A003D3D3D3D32
:105A10003D2041697468696E6B657220455350384A
:105A2000323636204D515454204C696E6B20436FF2
:105A30006D706C65746564203D3D3D3D3D003D3DB0
:105A40003D3D3D2045535038323636204578697407
:105A5000205472616E73706172656E74204D6F6454
:105A6000652050726F6365737320436F6D706C6552
:105A7000746564203D3D3D3D3D003D3D3D3D3D2047
:105A80004553503832363620535441205443502029
:105A9000436C69656E7420496E697420436F6D7044
:105AA0006C65746564203D3D3D3D3D003D3D3D3DA3
:105AB0003D205374617274204F6E654E4554204DE5
:105AC00051545420546F706963205375627363722C
:105AD000696265203D3D3D3D3D003D3D3D3D3D20F4
