:020000040800F2
:100000006814002035020008035600084952000811
:1000100001560008391F0008815C0008000000003C
:10002000000000000000000000000000075600086B
:100030007720000800000000055600080956000857
:100040004F0200084F0200084F0200084F0200084C
:100050004F0200084F0200084F0200084F0200083C
:100060004F0200084F0200084F020008412000081C
:100070004F0200084F0200084F0200084F0200081C
:100080004F0200084F0200084F0200084F0200080C
:100090004F0200084F0200084F0200084F020008FC
:1000A0004F0200084F0200084F0200084F020008EC
:1000B0008956000895560008A15600084F0200080E
:1000C0004F0200084F0200084F0200084F020008CC
:1000D0004F020008695C0008755C00084F020008C8
:1000E0004F0200084F0200084F02000800F002F81B
:1000F00000F090F80AA090E8000C82448344AAF132
:100100000107DA4501D100F085F8AFF2090EBAE82F
:100110000F0013F0010F18BFFB1A43F0010318473B
:100120005074000070740000103A24BF78C878C181
:10013000FAD8520724BF30C830C144BF04680C60ED
:10014000704700000023002400250026103A28BF35
:1001500078C1FBD8520728BF30C148BF0B60704739
:100160006E2900F06A83702900F0CB84662906F0BE
:100170003087652906F02D87672906F02A876129CF
:1001800006F0298703681B0A28BF41F0800169290E
:1001900000F0D080642900F0CD80752900F0CA807D
:1001A0006F2900F05884782900F09784E92900F03D
:1001B000F383E42900F0F083F52900F0ED83EF29C3
:1001C00000F05584F82900F096840368DB0928BF05
:1001D00041F08001632900F07483732900F0798372
:1001E000E32901F0B980F32901F0BE8000207047B7
:1001F0001FB501F051F904000020002106F0ACFA0F
:10020000401C60600020002106F0BCFAE0601FBDC9
:1002100010B510BD01F01BF91146FFF7E9FF05F01D
:1002200061FE01F0FDF903B4FFF7F2FF03BC01F03A
:1002300001FA00000948804709480047FEE7FEE749
:10024000FEE7FEE7FEE7FEE7FEE7FEE7FEE7FEE786
:1002500004480549054A064B7047000085560008CA
:10026000ED000008680E00206814002068100020CF
:10027000681000207CB51D4616460C00009001D089
:100280002044401E074B7B442A4669460190304675
:1002900000F0EDFA05461CB10020694600F0FAFABC
:1002A00028467CBD150600000FB47CB50C0009AAD9
:1002B000009001D02044401E084B7B4469460190C9
:1002C000089800F0D4FA05461CB10020694600F0F9
:1002D000E1FA28467CBC5DF814FB0000E105000053
:1002E00070B50C460546012A05D02878800600D551
:1002F000EA69002302E0012305E05B1C934202D27D
:10030000E05C0028F9D1A869E618C01AA861286A3B
:1003100018442862284600F0FEF904E0D5E90121DE
:1003200014F8010B9047B442F8D3284600F009FABC
:1003300070BD00002DE9F0410646002410687529C3
:10034000314616A510D000F00DFA002802DA40421E
:1003500013A507E031688A0701D512A502E0490715
:1003600004D511A5012401E000F005FA00210A22BC
:1003700006F1240709E0B0FBF2FCB0FBF2F302FB4C
:100380001C00303078541846491C0028F3D123460D
:100390002A463046BDE8F04100F0F6B90000000002
:1003A0002D0000002B000000200000002DE9F05F70
:1003B000894604464FF0000ADFF874B1FB44C0F8E8
:1003C00020A02046E1688847002874D0252806D060
:1003D000D4E901219047206A401C2062F1E7002601
:1003E0005F462046E16888472028054607DB312D17
:1003F00005D2781910F8200C08B10643F1E7B007D0
:1004000001D526F00406C4F81CA00027C4F818A0E3
:100410002A2D09D0284605F083FC38B304EB870861
:10042000303DC8F8185019E059F8041B204604EB79
:1004300087029161E1688847012F054618D1E0697C
:10044000002820DA26F020061DE0D8F8180000EB7E
:10045000800005EB40003038C8F818002046E168FD
:100460008847054605F05CFC0028EED1012F0AD034
:100470002E2D08D12046E16888477F1C0546022FB3
:1004800046F02006C4DBA069002803DA404246F0AB
:100490000106A061F00701D026F010066C2D0BD0EC
:1004A000682D09D04C2D39D06A2D35D0742D35D01A
:1004B0007A2D33D016E038E0E1682F462046884791
:1004C000B842054609D16C2F26D04FF48060E16810
:1004D000064320468847054604E06C2F1AD04FF4A7
:1004E000807006430DB3A5F14100192802D82035CC
:1004F00046F400664A462946204626604E46FFF7E7
:100500002FFE80B101280BD0F61D26F0070000F168
:10051000080956E74020E4E78020D8E70020D6E726
:1005200006F104094DE7284652E7206ABDE8F09F2E
:10053000786D000070B5064600F0DEF804680546E8
:1005400030460A22002100F0E7FA2C6070BD401E00
:10055000CAB210F8011F8A4202D00029F9D1002046
:10056000704730B505460B462A4613F8014B12F882
:10057000010B08B1A042F8D01CB1002802D06D1CBC
:10058000F1E7284630BD10B5431C02E010F8011B0E
:1005900071B18107FAD14FF0013202C88C1A8C4335
:1005A00014EAC211F9D0C01A0A0603D0C01E10BD49
:1005B000C01A10BD0A0401D0801E10BD0902FCD073
:1005C000401E10BD421E12F8013F002BFBD111F856
:1005D000013B002B02F8013BF9D170474FF00002BC
:1005E0000429C0F0128010F0030C00F01B80CCF145
:1005F000040CBCF1020F18BF00F8012BA8BF20F8B3
:10060000022BA1EB0C0100F00DB85FEAC17C24BF06
:1006100000F8012B00F8012B48BF00F8012B7047B0
:100620004FF0000200B5134694469646203922BF8B
:10063000A0E80C50A0E80C50B1F12001BFF4F7AFD6
:10064000090728BFA0E80C5048BF0CC05DF804EBB8
:10065000890028BF40F8042B08BF704748BF20F826
:10066000022B11F0804F18BF00F8012B70470000DB
:100670004FF0013C50F8042B51F8043B9A4221D131
:10068000A2EB0C03934313EACC1317D150F8042BBD
:1006900051F8043B9A4215D1A2EB0C03934313EAA1
:1006A000CC130BD150F8042B51F8043B9A4209D1DA
:1006B000A2EB0C03934313EACC13DBD04FF0000002
:1006C000704700BFD01A01BAB1FA81F101F01801E8
:1006D00022FA01F0CB40C1F12001DBB2C0B2C01A56
:1006E0002CFA01F3D11A914311EAC311E6D17047F4
:1006F000704770477047000000487047040E0020A4
:1007000010B5FFF7F9FF006810BD10B50446FFF7FC
:10071000F3FF046010BD70B5044685690068C1062A
:1007200001D5302600E02026C00707D070BDD4E9EF
:10073000012130469047206A401C20626D1EF6D58C
:1007400070BD70B5044685690078C00707D170BDDB
:10075000D4E9012120209047206A401C20626D1EB0
:10076000F6D570BD09684A0501D540B27047C90584
:10077000FCD500B2704709684A0501D5C0B2704780
:10078000C905FCD580B270472DE9F0470D46994662
:100790009246044600F124080168880604D5E06901
:1007A00021F01001216000E00120A84201DD471B7B
:1007B00000E00027A1697A1902EB0900081AA0617C
:1007C0002078C00602D42046FFF7A5FF002608E0E7
:1007D000D4E901211AF806009047206A401C761CD3
:1007E00020624E45F4DB2078C0060AD52046FFF78C
:1007F00092FF06E0D4E9012130209047206A401C96
:100800002062381EA7F10107F4DC07E0D4E90121DA
:1008100018F805009047206A401C2062281EA5F1A8
:100820000105F3DC2046FFF78CFF2078000602D597
:100830000220BDE8F0870120FBE711680268006A2A
:10084000530501D508700AE0D30501D5088006E0FC
:10085000130603D5C217C1E9000200E008600120B9
:100860007047000001694A1C02610878704700B5B2
:100870008FB0CDE901310021059105497944CDE9D9
:10088000031011466846FFF791FD0FB000BD000050
:10089000E5FFFFFF0A6802F8010B0A607047D1E923
:1008A00000239A4202D2531C0B601070704710B59F
:1008B000436913B1AFF3008001E0FFF711FD0120A0
:1008C00010BD127800F124010A7000224A70012242
:1008D000EDE711684FF0FF32E9E700002DE9FF5F17
:1008E00015468A460446DFF8AC80F8440027D8E96C
:1008F00000103E46CDE9001010E03AF816106A46A6
:1009000002A800F084FD411C07D02178890603D598
:10091000E269391891420DD80744761C2078800688
:1009200002D5E069B84205DDAE42E6DB3AF81600D2
:100930000028E2D1A069C01BA0612046FFF7EBFEB2
:10094000D8E90010CDE90010002017E03AF818109F
:100950006A4602A800F05BFDB0F1FF3F81460BD074
:1009600000250DF1080B05E0D4E901211BF8050075
:1009700090476D1C4D45F7D308F10100B042804609
:10098000E4DB206A384420622046FFF7DAFEBDE847
:10099000FF9F0000DE6900002DE9F0418046D21D76
:1009A00022F007020025D2E90002F52915A614D08D
:1009B000011E72F1000106DA0023D0EB030063EBA5
:1009C000020211A608E0D8F800108B0701D50FA687
:1009D00002E0490701D50EA601251146002408F1C1
:1009E000240704E000F0DCF830323A55641C50EA89
:1009F0000102F7D12B46324621464046BDE8F04180
:100A0000FFF7C2BE000000002D0000002B00000018
:100A10002000000030B4002100F1240408E002F0BE
:100A20000705D208303542EA4372DB086554491C99
:100A300052EA0305F3D10468002310A2250707D565
:100A4000A40600D421B1C46901230DA2641EC461AF
:100A500030BCFFF799BE10B5044621461068FFF779
:100A60008AFE02462046BDE810400023D2E7D21D90
:100A700022F00701D1E90023CCE7000000000000CC
:100A800030000000F0B40D460188090502D5214C64
:100A90007C4402E01F4C7C440E34002100F124060B
:100AA00008E002F00F071209E75D42EA03721B0932
:100AB0007754491C52EA0307F3D102780023120746
:100AC00004D5702D06D009B1022311342246F0BCA2
:100AD000FFF75ABE01231034F8E770B504460D46FF
:100AE00021461068FFF747FE024629462046BDE82A
:100AF00070400023C6E7D21D22F00703D3E900238C
:100B0000C0E70368126843F0200303600823C36151
:100B10000023B7E7406800002DE9F04791460F46F3
:100B200080460446002614F8015B2DB100F030F831
:100B30000068405DC007F6D12B2D02D02D2D18D0B6
:100B4000641E4A463946204600F012FC27B1396837
:100B5000A14201D1C7F800804FF0020471050BD506
:100B60004042002803DDFFF7C7FD0460A007BDE891
:100B7000F08746F48066E4E70028F8DAFFF7BCFD6A
:100B800004606FF00040F2E700487047040E002058
:100B900010B500F081FC001D10BD00BFBD5B000062
:100BA00030B5B0F10A024FEA900E71F100034EEA3F
:100BB000817EB0EB0E0061EB91014FEA101E4EEA10
:100BC000017E10EB0E0041EB11114FEA102E4EEAA0
:100BD000016E10EB0E0041EB11214FEA104E4EEA70
:100BE000014E10EB0E0041EB1141401841F10001A4
:100BF0004FEAD00040EA41704FEAD10110EB800586
:100C00004FEA810444EA907444EB01046D1944EB0B
:100C10000404521BA3414FF0000348BF0A3200D521
:100C200030BD401C41F1000130BD70472DE9FF4F40
:100C30000C461E464FF0FF378BB0D2E90001DDF8BD
:100C400060800A908A46C1F30A5505B93D460021E5
:100C500008464FF00000BAF1000F00F4400005DA3A
:100C600000EB80004FF4400101EA50004FEA905938
:100C7000B9F1010F00DDB9460A9850EA4A000ED0DA
:100C800044F61050A5F2FF3545432F14B8F1000F7C
:100C90001ED07542291E1EDDC9F100021CE0B8F10C
:100CA000010F4FF0000001D0302103E0F24305E0D6
:100CB0002154401CB042FBDB30460022002121546D
:100CC0000B99C1F80880C1E900200FB0BDE8F08F92
:100CD000BD1B6D1CDEE74A4600DA694206A800F03B
:100CE0002DFC06AB93E8070003AB83E807005046F2
:100CF0000A9900F0A6FC8DE80700A0F500501F3807
:100D000000900398002D0ADD42F21F014A46084474
:100D1000002303A90390684600F00FFF09E0A0F547
:100D200000504A461F38002303A90390684600F08C
:100D300019FF8DE807000004000C03D04FF0FF30CE
:100D4000410800E01046B8F1000F03D000220092E5
:100D500015461EE0751E05D4FFF722FF303262559E
:100D60006D1EF9D5B3460122084302D000227F1C34
:100D700004E02078302801D100227F1E002A099744
:100D800084D01DE0112D07DAFFF70AFF30326255DB
:100D90006D1C50EA0102F5D1084302D00098C8B199
:100DA0000EE00021681E05E0235C625C635422545F
:100DB000401E491C8142F7DBAB46A81B401E099030
:100DC000002004F80B000B98099AC0F80880C0E9CD
:100DD000002B7AE711264FF0000857E72DE9F04F76
:100DE00088460446D21D22F0070191B0D1E90001E6
:100DF000CDE90A0104F045FF02460B98C00F01D06F
:100E00002D2007E02068810701D52B2002E020215A
:100E100001EAC000032A099001D0072A05DB034636
:100E20004146204600F03CFB0BE12078800601D5CE
:100E3000E06900E00620B8F1650F814606D0B8F100
:100E4000660F18D0B8F1670F70D131E00020B9F10A
:100E5000110F009001DB112301E009F101030AAA3F
:100E600001A90CA8FFF7E2FEDDE90C70002609F1EC
:100E70000105834647E001204B4600904FF00047B4
:100E80000AAA01A90CA8FFF7D1FEDDE90DB00C9963
:100E90005D46002610B909F101000D18B9EB0500F7
:100EA00003D4C0F1FF3609F10105A5EB09002BE0E1
:100EB000B9F1010F01DA4FF001090020B9F1110F6A
:100EC0000090484601DD112300E003460AAA01A96B
:100ED0000CA8FFF7ABFEDDE90C704D4600268346FB
:100EE000207800070AD4AB4500DA5D4601A8012D41
:100EF00004DD411911F8011C302907D04F4502DAF1
:100F000017F1040F04DA012082460FE06D1EEEE7B0
:100F1000002F02DCED1B3E4403E0781CA84200DDFC
:100F20007D1CB81B00F1010A4FF000472078000734
:100F300003D4AA4501DB4FF0FF3A0021B7F1004F7F
:100F40000DF143088DF8431024D002202B23002FED
:100F500001DA7F422D230A21021EA0F1010000DCEC
:100F60005FB197FBF1FC97FBF1F201FB1C7C17468C
:100F70000CF1300C08F801CDEEE7A8F10100037088
:100F80002188090501D5452100E06521A0F101086E
:100F900000F8011C09980FA9A1EB0807FF1D00B17B
:100FA0000120411901EBEA70A1693844081A401E7A
:100FB000A0612078C00602D42046FFF7ACFB099858
:100FC00028B1D4E901219047206A401C2062207892
:100FD000C00622D52046FFF79EFB1EE0002E04DB54
:100FE000B34502DD01A8805D00E03020D4E9012195
:100FF0009047206A401C2062761CAAF101005FEA3B
:10100000000A0AD100F048FAC0680168405CD4E9DF
:1010100001219047206A401C2062281EA5F101058D
:10102000DCDC07E0D4E9012118F8010B9047206AC5
:10103000401C2062381EA7F10107F3DC2046FFF7B1
:1010400080FB032011B041E62DE9F04F04460D4628
:10105000D21D22F0070089B0D0E9009748463946F2
:1010600004F00FFE0246F80F01D02D2307E02068A0
:10107000810701D52B2302E0202101EAC0038DF86E
:1010800020300BB1012000E00020032A824601D06D
:10109000072A04DB2946204600F002FA3FE12078C7
:1010A000800601D40D2500E0E569C7F30A560D2D31
:1010B00049DA00214FEA175B08464FF00000002F85
:1010C00000F4400007DA00EB80004FF4400100EB31
:1010D000D07001EA60008115012901DD4FF0FF3178
:1010E00000224FEA850CBCF1180F06D31346ACF171
:1010F00018004FF08052C24003E04FF4801323FAEF
:101100000CF30CF10C0CBCF1200F04D3ACF1200C4F
:1011100009FA0CF001E007FA0CF000294FF0004842
:1011200001DD18B90FE00ED140450CD319EB0209CF
:101130005F4121B9404502D19F4329EA0209BBEB37
:10114000175F00D0761C2088000502D57B487844C4
:1011500002E07A487844193808AA302302F80A30A5
:10116000037C0AF10101002E0AF1020A53546A4677
:1011700002DC4FF0300101E04FF031014FF0010887
:101180008DF8001002D0A6F2FF3603E059EA4701BD
:1011900000D06B4E002D02DC2178090704D54FF0FA
:1011A00002082E218DF80110C44600210BE0C7F380
:1011B00003433F01C35C491C6D1E02F8083005293A
:1011C00008F1010801DA002DF1DC00210CE000EB50
:1011D0001973491C1B786D1E082902F808304FEA64
:1011E000091908F1010801DA002DF0DC21688B06ED
:1011F00002D516E0A8F10108E04505DD02EB080381
:1012000013F8013C302BF5D0B8F1000F09DD02EBEB
:10121000080313F8013C2E2B03D1090701D4A8F1D0
:101220000108002D05DD3E2102F808106D1E08F1B1
:101230000108407C002E02F8080008F1010804DAD9
:101240002D20764202F8080002E02B2002F8080068
:101250000A214FF47A70864208F101080BDB96FBF5
:10126000F0F3303302F8083096FBF0F308F1010890
:1012700000FB136601E0642E0CDB642096FBF0F3A8
:10128000303302F8083096FBF0F308F1010800FB58
:10129000136601E00A2E06DB96FBF1F0303002F80F
:1012A000080008F1010896FBF1F001FB10603030F6
:1012B00002F80800A16908F1010808EB050202EB39
:1012C0000A00081AA0612078C00602D42046FFF761
:1012D00022FA216A08AE01EB0A00206204E0D4E998
:1012E000012116F8010B9047BAF1010AF7D22078D4
:1012F000C00602D52046FFF70EFA6E4609E016F842
:10130000010B3E280FD0D4E901219047206A401CF0
:101310002062B8F10108F2D22046FFF712FA09B0B4
:101320000320BDE8F08F206A2844206203E0D4E95E
:101330000121302090476D1EEBD3F8E7BD6100001E
:1013400002FCFFFF10B5436913B1AFF3008001E069
:10135000FFF7C4FA012010BD128800F12401828435
:101360000022C2840122EDE711684FF0FF32E9E765
:101370002DE9F05F824615468B4600270AF10104ED
:10138000B9460078302801D09DB113E014F8010B64
:101390000127782803D0582801D045B10AE00DB1C3
:1013A000102D07D1002714F8010B102502E00825A5
:1013B00000E00A250026B0460EE005FB080005FB0C
:1013C00006F101271FFA80F801EB1046B6F5803FC1
:1013D00000D3B94614F8010B294600F0A1F8002803
:1013E000EBDABBF1000F05D00FB1641E00E05446EC
:1013F000CBF80040B9F1000F06D0FFF77DF90221CC
:101400000160C81EBDE8F09F48EA0640FAE770B5E3
:1014100016460C460546FFF7BBFB036893F801012F
:10142000012806D0FF2C0FD8185D68B101202C7060
:1014300070BDD3F807013246214603F20713034477
:101440002846BDE8704018474FF0FF3070BD754624
:10145000FFF79AFBAE4605006946534620F00700A9
:10146000854618B020B5FEF7F3FEBDE820404FF0EA
:1014700000064FF000074FF000084FF0000B21F07E
:101480000701AC46ACE8C009ACE8C009ACE8C0094B
:10149000ACE8C0098D46704700487047240E002014
:1014A0002DE9F0411F46044603260168072A01F48E
:1014B000006004DB08B116A505E016A503E008B13D
:1014C00015A500E015A521F010002060A069C01E40
:1014D000A0610FB1401EA0612046FFF71CF94FB17B
:1014E000D4E9012138469047206A401C2062C01C84
:1014F000206206E0206AFAE7D4E9012115F8010B21
:101500009047761EF8D22046FFF71BF9BDE8F08120
:101510004E414E006E616E00494E4600696E660097
:101520003A2800D2303820F02002412A01D3A2F11B
:101530003700884201D34FF0FF3070472DE9F04764
:10154000814616468AB0354878440DC88DE80D00AE
:1015500032487844801C03AC0DC884E80D0041F685
:101560009B300844372190FBF1F290FBF1F5A5F197
:10157000800501FB12041B3C02D56442012000E0FF
:101580000020DFF898A080460027FA44AAF1BE0A9E
:101590000EE0E0070AD03246684607EB4701012318
:1015A0000AEB810100F0DEFA8DE8070064107F1C71
:1015B000002CEED1194F7F44AE3F19E0E80715D05B
:1015C00007EB04100DF1180A90E80E008AE80E00EF
:1015D000C068F04201D1981908903246012306A94B
:1015E00003A800F0BFFA03AB83E807006D10641C8A
:1015F000002DE3D14FF0010332466946B8F1000FE8
:1016000003A802D000F099FA01E000F0ABFAC9E9B2
:101610000001C9F808200AB0BDE8F087545E000058
:1016200010B50446AFF300802046BDE81040FEF739
:10163000FABD000001491820ABBEFEE726000200FB
:1016400070475FEA400C08BF91F0000F4FEA8C230F
:101650004FEAC12243EA51514FEA1C5018BF00F52E
:10166000F0404FEA300018BF41F000415FEA6C5C87
:1016700000F02980BCF1FF3F08BF40F08040704778
:10168000130C06BF12044FF0100C4FF0000C130E99
:1016900004BF12020CF1080C130F04BF12010CF16D
:1016A000040C930F04BF92000CF1020CD30F04BF83
:1016B00052000CF1010C11464FF00002A0F11F0086
:1016C000A0EB0C00704711F0004F08BF704731F0DD
:1016D00000413FF4D5AF0B0C06BF09044FF0100CCE
:1016E0004FF0000C0B0E04BF09020CF1080C0B0F9D
:1016F00004BF09010CF1040C8B0F04BF89000CF12D
:10170000020CCB0F04BF49000CF1010CCCF12003FB
:10171000A0EB0C0022FA03F302FA0CF241EA0301F7
:1017200000F10100704720F07F4C80EA030023F0B5
:101730007F47ACEB070303F57C5300F0004003F157
:10174000FF032DE980494FEA154B09B44FEA1443D2
:1017500025EA0B4E24EA03480FF2042606EB132772
:1017600049083E785FEA320203FB0667C7F50007C7
:1017700007FB06F64FEA54374FEAD64606F1020653
:1017800007FB066CCCF1005C4FEA1C472CEA074CC7
:1017900007FB06F40CFB06F504EB15464FEA96161C
:1017A00034BF00204FF000404FEAD13706FB07FC62
:1017B0004FEA1C4C0CFB0BF7D21B03FB0CF761EB45
:1017C00007010CFB0EF7B0EB074072EB17420CFB66
:1017D00008F734BFA2EB0742B2EB074261EB1741B7
:1017E0004FEA0C444FEA910706FB07FC4FEA1C4CFA
:1017F0000CFB0BF7B0EBC74072EB573203FB0CF757
:1018000034BFA2EBC742B2EBC74261EB57310CFBCE
:101810000EF7B0EBC70072EB57720CFB08F734BF42
:10182000A2EBC702B2EBC70261EB5771039F4FEA0D
:10183000816141EA921104EBCC044FEAD1374FEABF
:10184000826206FB07FC42EA90124FEA80604FEA90
:101850001C4C0CFB0BF7D21B03FB0CF761EB0701D5
:101860000CFB0EF7B0EB074072EB17420CFB08F7CE
:1018700034BFA2EB0742B2EB074261EB17414FEADC
:101880008C554FEA910704EB9C2406FB07FC4FEABA
:101890001C4C0CFB0BF7B0EBC74072EB573203FB51
:1018A0000CF734BFA2EBC742B2EBC74261EB573132
:1018B0000CFB0EF7B0EBC70072EB57720CFB08F78E
:1018C00034BFA2EBC702B2EBC70261EB577115EB55
:1018D0004C254FEA816141EA92114FEA82624FEA58
:1018E000D13742EA901206FB07FC44F100044FEAAC
:1018F00080604FEA1C4C0CFB0BF7D21B03FB0CF770
:1019000061EB07010CFB0EF7B0EB074072EB1742DF
:101910000CFB08F734BFA2EB0742B2EB074261EBC6
:10192000174115EB1C154FEA813141EA92414FEA0C
:10193000823242EA90424FEA80304FEA0C7644F11C
:10194000000448EA03434EEA0B484FF0000EB2EBA6
:10195000080C71EB030724BF624639464EEB0E0EAE
:101960004FF0000B0018524149414BEB0B0BB2EB0F
:10197000080C71EB03077BF1000B24BF624639466C
:101980004EEB0E0E4FF0000B0018524149414BEB4D
:101990000B0BB2EB080C71EB03077BF1000B24BFC0
:1019A000624639464EEB0E0E51EA020718BF46F06A
:1019B000010616EB0E7655F1000254F1000103D535
:1019C000BDE88901BDE80088BDE88901BDE800489F
:1019D000B619524141EB0101A3F101037047808028
:1019E0007F7E7D7C7B7A7978777676757473727179
:1019F00071706F6E6E6D6C6C6B6A6A696868676631
:101A000066656464636362616160605F5F5E5E5DC2
:101A10005D5C5C5B5B5A5A59595858575756565536
:101A200055555454535352525251515050504F4F98
:101A30004F4E4E4D4D4D4C4C4C4B4B4B4A4A4A49E8
:101A4000494948484847474747464646454545442B
:101A50004444444343434342424242414141002BB8
:101A60009C4630D477002BD01CB54FEA370703B41F
:101A70004FF010004FF01001BAF1000F06D0BCF18A
:101A8000000FDCBF40F0080040F008014FF00000FC
:101A90000FBCBDE810400BF1010BBBF1010F08BFFB
:101AA0005FEA170722BF12F1010211F101014FF0A5
:101AB000004143F1000300F0004043EA000070479A
:101AC000F9D35708D0E746EA064613F1400F4FEA2C
:101AD00016461FDD13F1200FDFBF16430A46002113
:101AE00020335B42BED0C3F1200746EA064602FA25
:101AF00007F74FEA164646EA0706C3F1200722FA1F
:101B000003F201FA07F721FA03F14FF0000342EA6A
:101B10000702A7E746EA020646EA06464FEA1646E5
:101B200046EA0106BCBF46EA0646360C4FF0000303
:101B30004FF000024FF0000194E72DE9804C9A46E7
:101B4000934670B491E8380007C831EA400C48BFAA
:101B500034EA430C03D5FFF7E6FDFFF780FFF0BC46
:101B6000BDE8008C2DE9804C9A46934670B491E80C
:101B7000380007C810F0804F08BF13F0804F03D122
:101B800000F005F8FFF76BFFF0BCBDE8008C20F01B
:101B90007F4780EA030023F07F4C07EB0C03A3F59B
:101BA0007C5300F00040A3F1FE0392F0000F00F020
:101BB000B38095F0000F00F077802DE901494FEADE
:101BC00011404FEA144621EA004800FB06FC24EAD3
:101BD000064708FB06F607FB08F800FB07F718EBBB
:101BE00006484CEB164C4FEA124B18EB07484FEAED
:101BF00015464CEB174022EA0B4E0BFB06FC25EA80
:101C000006470EFB06F607FB0EFE0BFB07F71EEB67
:101C1000064E4CEB164C4FF000061EEB074E4CEBFD
:101C2000174B18EB0B0840F1000018EB0E0B58EBAC
:101C3000000840F100008F1A4FF000013CBFC9437B
:101C4000661B14BFB5EB040C00213CBFC943F61B57
:101C50004FEA17444EEA8E0E27EA04454FEA1C4726
:101C600004FB07622CEA074C05FB07F70CFB05F6A3
:101C700004FB0CFC16EB074642EB174216EB0C4636
:101C800042EB1C421BEB060658EB0202414146EABE
:101C90009E0601D5BDE80189B619524141EB01010B
:101CA000A3F10103BDE801894FEA14454FEA11474A
:101CB00024EA054621EA074C05FB07F406FB07F773
:101CC0000CFB06F105FB0CFC11EB074144EB174440
:101CD0004FEA124711EB0C4144EB1C4422EA074C3B
:101CE00005FB07F206FB07F70CFB06F605FB0CFCF1
:101CF00016EB074642EB174216EB0C4642EB1C452F
:101D00006A1854F1000148BF7047B619524141EBBF
:101D10000101A3F10103704795F0000F37D04FEA9E
:101D200011424FEA144721EA024624EA074C02FB1B
:101D300007F106FB07F70CFB06F402FB0CFC14EBA7
:101D4000074441EB17414FEA154714EB0C4441EBB4
:101D50001C4125EA074C02FB07F506FB07F70CFBC5
:101D600006F602FB0CFC16EB074645EB174516EB97
:101D70000C4645EB1C42121951F1000148BF704757
:101D8000B619524141EB0101A3F1010370474FEA3B
:101D900014454FEA114724EA054621EA074C05FBA2
:101DA00007F106FB07F70CFB06F24FF0000605FBF8
:101DB0000CFC12EB074241EB174112EB0C4251EBCA
:101DC0001C4148BF7047921841EB0101A3F1010388
:101DD0007047000070B5044600688168C943C907B0
:101DE00017D1816821F00101816001F079FF05467A
:101DF0000AE000BF01F074FF401B022804D92068EC
:101E00008068C043C00706D020688068C043C00710
:101E1000F0D0002070BDA06A40F01000A062E06A1F
:101E200040F00100E062012070BD10B50146406A3B
:101E3000826A12F0500F05D0006A026BBDE81040B4
:101E400008461047816A41F400718162016889681F
:101E5000C1F3424107290CD1017B51B9816A21F4B8
:101E600080718162816AC90403D4816A41F00101F1
:101E7000816201F045FB10BD10B5406A816A41F0F6
:101E800040018162C16A41F00401C16201F03AFB84
:101E900010BD10B5406A01F034FB10BDF8B5002646
:101EA0000446009600688168C943C9072DD081683F
:101EB00041F001018160164816490068B0FBF1F05D
:101EC00000E0401E00900028FBD101F009FF05460C
:101ED00016E000BF01F004FF401B022810D9206863
:101EE0008068C043C0070BD0A06A40F01000A06219
:101EF000E06A40F00100E06284F824600120F8BD4F
:101F000020688068C043C007E4D10020F8BD00000D
:101F10002000002040420F0010B504F0FBFE0449F1
:101F200004F0F4FDBDE81040024904F007BF0000D2
:101F300000F07F4533335340FEE7000002490020A4
:101F40000968486370470000E40C0020024940F62D
:101F5000B100096848637047E40C00200021014883
:101F600002F018BEE40C00202DE9F05F82460D4619
:101F70000888FFF7D1FF284FDFF8A080284CDFF852
:101F8000A4B0DFF8A4900646B84201DD464501DB67
:101F9000264619E03146584604F0A6FF494604F0AB
:101FA000CDFE314604F0B2FD494604F0AFFD03F02A
:101FB000BFFE1E4904F0C2FE1D4904F03FFD01466C
:101FC0001C4804F0B9F806466888FFF7A5FF0546E7
:101FD000B84201DD454501DB204619E02946584657
:101FE00004F082FF494604F0A9FE294604F08EFD64
:101FF000114904F08BFD03F09BFE104904F09EFE96
:102000004FF07E5104F01AFD01460A4804F094F89E
:10201000CAE90060BDE8F09F6F12833ACFF79F4096
:10202000000080BF0000A04000401C463333B3BE18
:10203000CDCC4C3F0000204100409C45CDCCCCBED7
:10204000014801F02DBC0000580C002030B590F87C
:1020500040500124AC40C56B6C6004686360436809
:10206000102B036803D099600068C26030BD9A608D
:102070000068C16030BD70472DE9F041ADF5027DCB
:102080000F4680464FF480741646214642A8FEF75C
:10209000C7FA214602A8FEF7C3FA24A50FB12DA066
:1020A00000E02EA0CDE90006B8F1000F01D029A371
:1020B00000E02AA32B4A2646214602A8FEF7F4F8A0
:1020C00002A8FEF760FA040001D0FF2C02D90146F5
:1020D00025A017E0CDE90054002329A2314642A8EB
:1020E000FEF7E2F841F2883300222DA142A800F069
:1020F00017FA70B1A2B202A92A4803F08BF80100C6
:102100000BD029A003F03CFC00200DF5027DBDE8BA
:10211000F08128A003F034FCF6E72CA003F030FC9B
:1021200002A930A003F02CFC0120EEE724737973A0
:102130002F496548684944367648312F312F7468F5
:10214000696E672F70726F70657274792F706F731C
:1021500074000000747275650000000066616C73A5
:10216000650000000C7500084661696C65643A20E2
:102170004A534F4E2073697A65203D202564000044
:1021800041542B4D5154545055425241573D2564B2
:102190002C222573222C25642C302C300D0A0000B3
:1021A0004F4B0000740D00204661696C65643A2055
:1021B000256400004661696C65643A2041542B4DEA
:1021C0005154545055425241572000005375636397
:1021D0006573733A2041542B4D515454505542521B
:1021E00041572000646174615F726573756C743A65
:1021F0002025730070B500244FF47A7001F060FC64
:102200004FF4FA752B4600220BA10CA000F088F9C0
:1022100020B10BA0BDE8704003F0B2BB611C10A060
:1022200003F0AEFB641CE4B2284601F049FC0A2C22
:10223000E8D318A0EEE700004F4B00004154000027
:102240004553503832363620415420436F6D6D610E
:102250006E642054657374205375636365737300F3
:102260004553503832363620415420436F6D6D61EE
:102270006E642054657374204661696C65642C201B
:102280005265747279696E672E2E2E202825642F70
:1022900031302900455350383236362041542043DE
:1022A0006F6D6D616E6420546573742046696E6154
:1022B0006C204661696C6564202831302052657459
:1022C0007269657320457868617573746564290067
:1022D00010B5012000F058FEA8B14FF47A742046E2
:1022E00001F0EEFB0CA110A000F05CFA68B12046F2
:1022F00001F0E6FB002310A211A1022000F016FB62
:1023000028B1144804E014A002E01DA000E025A0BC
:10231000BDE8104003F034BB5171333138343938E3
:10232000363338310000000054502D4C494E4B5F7D
:1023300042344632000000003138383300000000DB
:102340006D717474732E6865636C6F7564732E633E
:102350006F6D0000987400084D5154542045786109
:102360006D706C653A20436F6E66696775726520A3
:10237000535441204D6F6465204661696C6564006B
:102380004D515454204578616D706C653A204C690C
:102390006E6B2057694669204150204661696C6523
:1023A000640000004D515454204578616D706C6597
:1023B0003A2041697468696E6B6572204D515454BE
:1023C00020436F6E6E656374204661696C656400BE
:1023D00010B5ADF5027D4FF48074214602A8FEF7DA
:1023E0001FF9214642A8FEF71BF914A003F0C8FA12
:1023F0001EA000901EA321A2214642A8FDF754FF73
:10240000002142A8CDE900010B4626A2214602A8E0
:10241000FDF74AFF4FF4FA53002228A102A800F06A
:102420007FF830B126A003F0ABFA01200DF5027D54
:1024300010BD30A003F0A4FA0020F7E73D3D3D3D7C
:102440003D205374617274204F6E654E4554204D8B
:1024500051545420546F70696320537562736372D2
:10246000696265203D3D3D3D3D00000031000000BA
:1024700049654868494436764831000024737973C9
:102480002F496548684944367648312F312F7468A2
:10249000696E672F70726F70657274792F706F73C9
:1024A0007400000041542B4D5154545355423D2566
:1024B000642C222573222C25640000004F4B000061
:1024C0003D3D3D3D3D204F6E654E4554204D5154A0
:1024D0005420546F7069632053756273637269622C
:1024E00065202046696E6973686564203D3D3D3D09
:1024F0003D0000003D3D3D3D3D204F6E654E455445
:10250000204D515454205375627363726962652083
:10251000526570616C79203D3D3D3D3D00000000FD
:102520002DE9F05F984615460E465FEA000A2AD06C
:102530004FF4806739465848FEF750F839465748F7
:10254000FEF74CF8544CB4F800046FF30E00A4F8F6
:102550000004B4F8000420F40040A4F800044FF094
:102560000009A4F800944E4802F096FB642001F0A4
:10257000A7FA012221464A4802F0B0FD28B149A03D
:1025800003F0FEF91EE051A0FAE7534657A2BA46FF
:1025900039464248FDF788FE4048FDF7F4FF87B210
:1025A0003E4954A003F0ECF94FF4FA633A463B4934
:1025B0003B4802F0DFFD40B152A003F0E1F938489A
:1025C00002F06AFB0020BDE8F09F642001F078FA79
:1025D00056EA050005D001F083FB074640F2FE3BBA
:1025E0001BE050A003F0CCF9B4F8000420F4004044
:1025F000A4F800040120E6E7B4F80004000405D4C0
:10260000B4F80004C0F30E01594503D34FA003F002
:10261000B7F907E00A2001F053FA01F061FBC11B92
:102620004145E9D3B4F80004C0F30E00504501D38E
:1026300040F2FF30184904F800904CA003F0A0F9D4
:10264000DFF85480002756B13046FDF79CFF30B1CB
:1026500031464046FDF785FF08B101270AE04DB13C
:102660002846FDF790FF28B129464046FDF779FF3F
:102670000028F2D1322001F023FAB4F800046FF3FD
:102680000E00A4F80004B4F8000420F40040A4F8FC
:102690000004384697E700002408002024000020AA
:1026A000740D00204553503832363620554152546F
:1026B0003120496E74657272757074205374617242
:1026C00074204661696C6564000000004553503811
:1026D00032363620436D64204572726F723A204361
:1026E0006D64206973204E554C4C000025730D0A13
:1026F0000000000073656E64206F726465723A2595
:10270000730000004553503832363620554152543C
:1027100031205472616E736D6974204661696C6515
:10272000640000004553503832363620436D642033
:10273000537563636573733A204E6F2052657370EF
:102740006F6E7365204E6565640000004553503818
:1027500032363620436D642053756363657373208E
:10276000526573706F6E736520000000436D6420C6
:102770005265706C61692042756666657220436FB0
:102780006E74656E743A20257300000010B500F079
:102790006BFD4FF47A6001F093F9BDE81040FFF74C
:1027A00029BD000030B591B00D460446402101A876
:1027B000FDF736FF5CB12046FDF7E5FE38B125B1E7
:1027C0002846FDF7E0FE082803D217A021E024A048
:1027D0001FE04FF47A732EA230A131A0FFF7A0FEC4
:1027E000B0B14FF4FA7001F06BF923462FA24021EB
:1027F00001A80095FDF758FD41F2883330A227A1CA
:1028000001A8FFF78DFE0500214607D030A006E0A5
:1028100038A003F0B5F8002011B030BD424803F0F5
:10282000AFF82846F8E700004553503832363620D6
:102830004C494E4B204150204572726F723A2050E5
:10284000617373776F7264206973204E554C4C200E
:102850006F72204C656E677468203C203800000061
:1028600045535038323636204C494E4B204150208B
:102870004572726F723A2053534944206973204E57
:10288000554C4C206F7220456D707479000000002B
:102890006E6F206368616E67650000004F4B00003B
:1028A00041542B43574D4F44453D310041542B4338
:1028B000574A41503D222573222C222573220000C5
:1028C0005749464920434F4E4E4543544544000026
:1028D00045535038323636204C494E4B204150201B
:1028E000537563636573732028535349443A202515
:1028F0007329000045535038323636204C494E4B30
:10290000204150204572726F723A20535441204D3D
:102910006F646520436F6E666967757265204661F6
:10292000696C656400000000B87300082DE9F0438D
:10293000C7B00F4681464FF480781C461646414684
:1029400006A8FDF76DFE0025B9F1020F01D036A0F3
:1029500066E077B13846FDF716FE50B14EB130460D
:10296000FDF711FE28B1052C05D0042C52D82546C0
:1029700004E03DA054E049A003F002F857A002F0A3
:10298000FFFF64A33246394663A002F0F9FF00203E
:102990006B49CDE9031005900121009169A25DA06A
:1029A000CDE901022B466AA24446414606A8FDF73E
:1029B0007BFC06A971A002F0E3FF4FF4FA637AA250
:1029C0007CA106A8FFF7ACFD002825D04FF4FA70D3
:1029D00001F076F878A13046FDF74AFE00B10120FB
:1029E0000097CDE90160002375A2214606A8FDF7F6
:1029F0005BFC4FF4FA536FA278A106A8FFF790FD95
:102A00007AA002F0BDFF88A002F0BAFF012047B013
:102A1000BDE8F08391A003E09FA002F0B1FFAAA05F
:102A200002F0AEFF0020F2E74D515454204572727F
:102A30006F723A204F6E6C79204D51545420507271
:102A40006F746F636F6C20537570706F7274656410
:102A5000202841697468696E6B6572204669726DE1
:102A600077617265290000004D51545420457272FF
:102A70006F723A205365727665722049502F506FFD
:102A800072742043616E6E6F74206265204E554CE7
:102A90004C206F7220456D70747900004D51545474
:102AA00020496E666F3A2053696E676C6520436FEC
:102AB0006E6E656374696F6E204D6F646520284D7E
:102AC0006170204944203520746F20416974686921
:102AD0006E6B657220494420302900003D3D3D3D2C
:102AE0003D2053746172742041697468696E6B652E
:102AF000722045535038323636204D5154542053AD
:102B00006572766572204C696E6B203D3D3D3D3DA2
:102B100000000000310000004D51545420496E6601
:102B20006F3A205365727665723A2025733A2573A1
:102B30002C20436C69656E742049443A202573004B
:102B4000FC730008496548684944367648310000FE
:102B500041542B4D515454555345524346473D25FE
:102B6000642C25642C222573222C222573222C22EE
:102B70002573222C25642C25642C22004D5154549D
:102B800020496E666F3A20436F6E6669677572659D
:102B9000204D515454205573657220506172616DFF
:102BA0003A202573000000006E6F206368616E6735
:102BB000650000004F4B000038383833000000003B
:102BC00041542B4D515454434F4E4E3D25642C22BD
:102BD0002573222C25732C25640000004D5154547C
:102BE00020434F4E4E454354454400004D515454EC
:102BF00020537563636573733A20436F6E6E65632C
:102C000074656420746F204D51545420536572765E
:102C10006572202841697468696E6B657220466927
:102C2000726D7761726529003D3D3D3D3D204169F2
:102C30007468696E6B6572204553503832363620A1
:102C40004D515454204C696E6B20436F6D706C6510
:102C5000746564203D3D3D3D3D0000004D515454A0
:102C6000204572726F723A20496E76616C696420F9
:102C7000436F6E6E656374696F6E20494420284F00
:102C80006E6C7920302D34206F72203520416C6CB1
:102C90006F776564290000004D51545420457272CD
:102CA0006F723A20436F6E666967757265204D5189
:102CB0005454205573657220506172616D204661D5
:102CC000696C6564000000003D3D3D3D3D2041696B
:102CD0007468696E6B6572204D515454204C696E56
:102CE0006B2041626F7274203D3D3D3D3D00000010
:102CF00010B5E2B04FF48074214602A8FDF790FCB5
:102D0000802142A8FDF78CFC13A002F039FE1EA022
:102D100000901EA320A2802142A8FDF7C5FA002141
:102D200042A8CDE900010B4623A2214602A8FDF7E7
:102D3000BBFA4FF4FA53002225A102A8FFF7F0FBDB
:102D400028B124A002F01CFE012062B010BD2EA00C
:102D500002F016FE0020F8E73D3D3D3D3D20537456
:102D6000617274204F6E654E4554204D515454206D
:102D7000546F706963205375627363726962652072
:102D80003D3D3D3D3D000000310000004965486883
:102D90004944367648310000247379732F25732F08
:102DA00025732F7468696E672F70726F7065727407
:102DB000792F73657400000041542B4D51545453C6
:102DC00055423D25642C222573222C2564000000E9
:102DD0004F4B00003D3D3D3D3D204F6E654E4554FF
:102DE000204D51545420546F7069632053756273A1
:102DF00063726962652046696E6973686564203D27
:102E00003D3D3D3D000000003D3D3D3D3D204F6EC0
:102E1000654E4554204D515454205375627363726E
:102E20006962652041626F7274203D3D3D3D3D0009
:102E300010B5E2B04FF48074214602A8FDF7F0FB14
:102E4000802142A8FDF7ECFB13A002F099FD1EA023
:102E500000901EA320A2802142A8FDF725FA0021A0
:102E600042A8CDE900010B4627A2214602A8FDF7A2
:102E70001BFA4FF4FA53002229A102A8FFF750FBD6
:102E800028B128A002F07CFD012062B010BD33A063
:102E900002F076FD0020F8E73D3D3D3D3D205374B6
:102EA000617274204F6E654E4554204D515454202C
:102EB000546F706963205375627363726962652031
:102EC0003D3D3D3D3D000000310000004965486842
:102ED0004944367648310000247379732F49654898
:102EE000684944367648312F312F7468696E672FF0
:102EF00070726F70657274792F706F73742F736551
:102F0000745F7265706C790041542B4D5154545369
:102F100055423D25642C222573222C256400000097
:102F20004F4B00003D3D3D3D3D204F6E654E4554AD
:102F3000204D51545420546F70696320537562734F
:102F4000637269626520526570616C792046696EB2
:102F50006973686564203D3D3D3D3D003D3D3D3D1F
:102F60003D204F6E654E4554204D515454205375AD
:102F70006273637269626520526570616C79203D8D
:102F80003D3D3D3D0000000030B58DB004462021A0
:102F900003A8FDF745FB032C05D913A002F0F0FCB4
:102FA00000200DB030BD23461CA2202103A8FDF750
:102FB0007BF91EA002F0E4FC4FF47A7322A225A153
:102FC00003A8FFF7ADFA050009D0234A07CA8DE828
:102FD00007005DF8241021A002F0D2FC02E027A037
:102FE00002F0CEFC2846DCE7455350383236362016
:102FF000496E76616C6964204E6574776F726B20E0
:103000004D6F646520284F6E6C7920302F312F3240
:1030100020416C6C6F7765642900000041542B439C
:10302000574D4F44453D256400000000455350383E
:1030300032363620204E6574776F726B204D6F6488
:10304000652E2E2E2E2E00006E6F206368616E6737
:10305000650000004F4B0000BC700008455350381D
:1030600032363620257320436F6E66696775726548
:103070002053756363657373000000004553503837
:10308000323636204E6574776F726B204D6F6465F3
:1030900020436F6E666967757265204661696C656D
:1030A000640000002DE9F843050011D0FDF76BFA2C
:1030B00070B14FF000094C4669F31F643CA12846EB
:1030C000FDF74FFADFF8F480060017D0083602E06B
:1030D0003BA068E0761C30782028FBD042A1304627
:1030E000FDF73FFA00B1012060F3070440A1284634
:1030F000FDF737FA070018D0871D03E098F80000A5
:10310000F2E77F1C38782028FBD037A13846FDF73E
:1031100028FA00B1012060F30F2437A12846FDF7FB
:1031200020FA050027D0083503E098F80100F2E7FF
:103130006D1C28782028FBD000206A46CDF800902E
:1031400008E000BFA1F13003092B02D81154401C44
:10315000C0B26D1C29782C2903D07D2901D0032809
:10316000F0D31046FDF7E6F93E4360F317442E43D3
:1031700004D0012003E098F80200F5E7002060F396
:103180001F6478B10121C8F8004088F8041001B02C
:10319000C4F30743C4F30722E1B2BDE8F04319A02A
:1031A00002F0EEBB27A0BDE8F84302F0E9BB000047
:1031B00022416C61726D223A000000000000002084
:1031C000506172736520496E666F3A20456D707468
:1031D00079204275666665722028536B69702050AD
:1031E000617273652900000074727565000000004B
:1031F000226C6564223A0000226C69676874223A86
:10320000000000005061727365205375636365733D
:10321000733A20476C6F62616C2056617220557062
:103220006461746564202D3E20416C61726D3D25A2
:10323000642C206C65643D25642C206C696768747F
:103240003D2564005061727365204572726F723A59
:10325000204E6F2056616C6964204669656C64730A
:1032600020466F756E64000010B516A002F088FB52
:1032700000224FF47A7311461DA0FFF751F9012285
:103280001D491E4801F02AFF4FF4FA6000F018FCB7
:103290004FF480611848FDF7A1F91748B0F8001401
:1032A0006FF30E01A0F80014B0F8001421F40041EF
:1032B000A0F800140021A0F80014BDE8104010A0F0
:1032C00002F05EBB455350383236362053656E648B
:1032D000696E6720536F667420526573657420436E
:1032E0006F6D6D616E64202841542B525354290038
:1032F00041542B525354000024080020740D002028
:103300004553503832363620536F667420526573F9
:1033100065742050726F6365737320436F6D706CBA
:10332000657465640000000072B6FEE7F8B500251C
:103330000446009590F8240001280BD0012084F861
:1033400024002046FEF746FD2046FEF7A7FD0600B6
:1033500002D050E00220F8BDA06A20F4885040F06E
:103360000200A062022000F059FD25490968B1FB66
:10337000F0F0400000E0401E00900028FBD12068E3
:10338000816841F00801816000F0AAFC074608E06E
:1033900000F0A6FCC01B0A2803D92068806800073B
:1033A00015D4206880680007F2D42068816841F055
:1033B0000401816000F094FC074612E000F090FCEC
:1033C000C01B0A280DD920688068400709D5A06A6B
:1033D00020F0020040F01000A06284F82450012088
:1033E000F8BD206880684007E8D4A06A20F0020099
:1033F00040F00100A06284F824503046F8BD00007F
:1034000020000020F8B50024009490F824202546E0
:10341000012A12D0012280F824204A681F23072A9B
:103420000DD20668776B521E02EB820293409F43D7
:103430000B6893401F43776319E00220F8BD0668CC
:103440000D2A0AD2376BD21F02EB820293409F43B0
:103450000B6893401F43376309E0F76A0D3A02EBAC
:10346000820293409F430B6893401F43F7620A68B0
:10347000072306680A2A0AD3F7680A3A02EB4202CF
:1034800093409F438B6893401F43F76008E0376980
:1034900002EB420293409F438B6893401F43376186
:1034A0000A68102A01D0112A20D1124B02689A42D0
:1034B00017D193681B0219D4936843F400039360F7
:1034C0000968102912D10C490C4A0968B1FBF2F1C4
:1034D00001EB8101490000E0491E00910029FBD168
:1034E00004E0816A41F020018162012480F82450C7
:1034F0002046F8BD002401402000002040420F007B
:1035000070477047704700002DE9F0414FF0000709
:1035100004003D467ED0A06A002628B9E66284F801
:103520002460204600F07EF82046FEF753FCA16A96
:10353000C90600D420B1A06A40F01000A06269E082
:10354000A16A21F4885141F00201A1626268E16937
:10355000237B0A4347EA43010A43A1684FF480777B
:10356000B94209D0012907D05FF0000194F814C0D6
:10357000BCF1010F02D00AE03946F7E7F3B1A36AC4
:1035800043F02003A362E36A43F00103E36223688C
:10359000D3F804C02CF4694C4CEA010CC3F804C005
:1035A00021688B68DFF870C003EA0C0313438B605B
:1035B000A168B9420BD0012909D00CE0DFF85CC04A
:1035C000A3690CEB43330B4343F40061DFE7218A2B
:1035D0000D05A5F580152168CB6A23F470032B43F4
:1035E000CB62216889680E4B1940914208D1E6628E
:1035F000A16A21F0020141F00101A162BDE8F08160
:10360000A06A20F0020040F01000A062E06A40F0E2
:103610000100E0620120F1E7FDF7E1FF00E0FFFFBC
:10362000FE0E1FFF70B586B0002506460095019579
:103630000295039500681A4988422ED11949886974
:1036400040F400708861886900F400700490886913
:1036500040F0040088618869694600F00400049025
:10366000A0200090032001900F4800F03BFA104C7E
:103670000E48C4E900058020C4E9025040002061E2
:10368000800060612020C4E90605204600F0B2F900
:1036900008B1FFF749FE3462666206B070BD0000F3
:1036A00000240140001002400008014008000240D0
:1036B000580C00202DE9F047894604463B49006834
:1036C0003B4F0E1D9046884201D0B84207D130686A
:1036D00010F4702F03D001252846BDE8F08794F838
:1036E000240001280CD0012084F824002046FEF795
:1036F000D5FB05004FF0000004D084F82400EBE770
:103700000220EAE7A16A40F60162914341F4807128
:10371000A1622168B94218D1326812F4702F14D016
:10372000A16A41F48011A1623168490505D5A16AF9
:1037300021F4005141F48051A162A16AC9040AD563
:10374000E16A21F00601E16206E0A26A22F4801239
:10375000A2624968E9E7E06284F82400216A15481A
:103760008862216A1448C862216A14480863216883
:103770006FF0020008602068816841F48071816008
:10378000216843464A464C31206A00F061F92068BE
:103790008168C1F342410729816803D041F4801157
:1037A000816099E741F4A001FAE70000002401409C
:1037B000002801402B1E0008931E0008791E0008F7
:1037C00010B590F821100022022905D00421816350
:1037D00080F82020012010BD01680B6823F00E0343
:1037E0000B6001680B6823F001030B6090F8403018
:1037F000C46B012101FA03F3636080F8211080F8A3
:103800002020104610BD000010B590F821100024B3
:10381000022903D00421816301243DE001680A6884
:1038200022F00E020A6001680A6822F001020A60B2
:103830001A4A0168914201D1012121E0174A14324C
:10384000914201D110211BE0144A2832914201D14A
:10385000891515E0114A3C32914201D189140FE0DB
:103860000E4A5032914202D14FF4803108E00B4AA7
:103870006432914202D14FF4801101E04FF0807127
:10388000064A083A5160012180F82110002180F891
:103890002010416B01B18847204610BD080002404E
:1038A0002DE9F05FC16B0C6801680B68D0F840C06F
:1038B000042202FA0CF2494DDFF824A1494E4A4F86
:1038C000DFF828B1DFF828E122422CD05A072AD5A8
:1038D0000A68920603D40A6822F004020A600168AA
:1038E000A94201D1042219E0514501D1402215E03D
:1038F000B14202D14FF4806210E0B94202D14FF4DC
:1039000080420BE0594502D14FF4802206E0714518
:1039100002D14FF4800201E04FF080622F49083954
:103920004A60C16A3BE04FF0020808FA0CF818EA56
:10393000040F4FF000094FF0010235D05FEA8378A1
:1039400032D50B689B0605D40B6823F00A030B6085
:1039500080F821200168A94201D1022219E05145D5
:1039600001D1202215E0B14202D14FF4007210E0E3
:10397000B94202D14FF400520BE0594502D14FF445
:10398000003206E0714502D14FF4001201E04FF021
:103990000072124908394A6080F82090816A002933
:1039A0001AD0BDE8F05F0847082505FA0CF5254256
:1039B00012D01B0710D50B6823F00E030B6090F894
:1039C0004010C36B02FA01F15960826380F8212034
:1039D00080F82090016BE2E7BDE8F09F080002400C
:1039E0001C000240300002404400024058000240E7
:1039F0006C00024030B528B308C81349142219449A
:103A0000B1FBF2F18900C163104981630221417762
:103A10001A6843F6F0718A43D0E900142143D0E9D3
:103A200002452C43214304692143446921438469AD
:103A3000214311431960002141630122427701773C
:103A4000084630BD012030BDF8FFFDBF0000024038
:103A500070B5044690F82000002501280CD0012004
:103A600084F8200094F821600020012E06D084F80C
:103A700020000225284670BD022070BD022684F871
:103A80002160A0632068066826F0010606602046D3
:103A9000FEF7DCFAE06A00282068016802D041F0F5
:103AA0000E0106E021F0040101602068016841F088
:103AB0000A0101602068016841F001010160D9E755
:103AC00070B5044600F00CF90546601C02D00448AD
:103AD0000078044400F004F9401BA042FAD370BD02
:103AE000140000202DE9F84FDFF8B8910024A9F167
:103AF000040B23460F2709F1040AABF1040EC9E0B9
:103B00000125A5402A40AA427DD1674ED1F804C0C4
:103B1000ACEB0608B44532D014DCBCF1030F3AD04C
:103B200009DCBCF1000F2AD0BCF1010F1CD0BCF1A4
:103B3000020F31D11DE0BCF1110F17D0BCF1120FF3
:103B40002AD119E0B8F5881F19D006DCB8F5803FF6
:103B500015D0B8F5801F1FD111E0B8F5001F0ED0A9
:103B6000B8F5041F18D10AE0CB6815E0CB681B1D1F
:103B700012E0CB6808330FE0CB680C330CE08B68A5
:103B80002BB1012B4FF0080303D0456104E004235F
:103B900002E0056100E00023FF2A01D8064601E0AB
:103BA00000F104064FEA840501D9A5F12005D6F8F5
:103BB000008007FA05FC28EA0C0803FA05F548EA34
:103BC0000508C6F800804D68ED0062D5374DAE6936
:103BD00046F00106AE61AD6924F0030605F001056B
:103BE0000095334D06EB050CDCF80850A607360FA0
:103BF00007FA06F825EA0805DFF8B880404503D142
:103C00004FF0000817E044E0DFF8AC80404502D1F7
:103C10004FF001080FE0DFF8A480404502D14FF0DB
:103C2000020808E0DFF89880404502D14FF0030811
:103C300001E04FF0040808FA06F848EA0508CCF855
:103C400008804D68D9F80060ED024D4601D5164355
:103C500000E096432E604D68DAF80060AD025546EC
:103C600001D5164300E096432E604D68DBF80060F6
:103C7000AD035D4601D5164300E096432E604D68C6
:103C8000DEF80060ED03754601D5164300E096436B
:103C90002E60641C0D682A46E5407FF431AFBDE814
:103CA000F88F0000080401400000111000100240CD
:103CB0000000014000080140000C014000100140DC
:103CC00000140140C26821EA02030A4043EA0241AB
:103CD000016170470AB1016170470904FBE7000008
:103CE0000148806870470000140000200248816885
:103CF000027811448160704714000020074810B515
:103D0000016841F010010160032000F075F80F20F8
:103D100000F006F800F024F8002010BD002002405A
:103D200070B50D4D04464FF47A712878B1FBF0F070
:103D30000A490968B1FBF0F000F0A4FB48B9102C67
:103D400007D200222146501E00F036F800206C6099
:103D500070BD012070BD0000140000202000002074
:103D60000C4808B5816941F001018161816901F068
:103D700001010091C16941F08051C161C06900F049
:103D8000805000900448416821F0E06141F00071EA
:103D9000416008BD0010024000000140002809DB1E
:103DA00000F01F02012191404009800000F1E02055
:103DB000C0F8001170470000F0B40E4B1B680C46B1
:103DC000C3F30223C3F10705042D00D90425191DEF
:103DD000072901D2002300E0DB1E012606FA05F1C7
:103DE000491E214099409E40761E16403143F0BC4A
:103DF00001F06EBF0CED00E0064900F00702086814
:103E00004FF6FF03184040EA0220034A10430860BF
:103E1000704700000CED00E00000FA0510B5014607
:103E20000020234C012922D0022939D010291DD18C
:103E300061682268D20119D51E48C1F38342C903C3
:103E4000805C0AD561681B4AC1F34041921E515CF7
:103E5000194AB2FBF1F1484301E01849484361684F
:103E6000490203D440000321B0FBF1F010BD226AE7
:103E7000C2F30121012903D1920701D5C80310BD66
:103E8000022905D1626A920702D549F6404010BD69
:103E90000329FCD121688903F9D54FF2244010BDD4
:103EA00000F02AF96168C1F38131491C4900DBE760
:103EB000001002401071000800127A0000093D0055
:103EC0002DE9F84305460078354CC00754D0E06929
:103ED0000026C00008D4E06940F08050E061E0694D
:103EE000012600F0805000902E480168C90512D4C8
:103EF0000168804641F480710160FFF7F1FE0746DA
:103F000005E000BFFFF7ECFEC01B642823D8D8F8FB
:103F10000000C005F6D5206A10F4407021D0A988B1
:103F200001F4407181421CD0206A1F49012220F413
:103F300040700A6000220A602062C00711D0FFF7BB
:103F4000CFFE074641F2883808E000BFFFF7C8FE01
:103F5000C11B414502D90320BDE8F883206A8007D0
:103F6000F4D5206A696820F44070084320621EB1CD
:103F7000E06920F08050E0612878800705D560680E
:103F8000A96820F44040084360602878C00605D541
:103F90006068E96820F48000084360600020DBE787
:103FA0000010024000700040400442422DE9F047FA
:103FB0000F46050061D0434E306800F00700B8425C
:103FC00009D2306820F0070038433060306800F0D4
:103FD0000700B84251D128683B4C810712D54007F1
:103FE00003D5606840F4E06060602878000703D57E
:103FF000606840F4605060606068A96820F0F0007C
:10400000084360602878C00728D06868012810D06D
:104010002168022810D0890700292EDA616821F072
:10402000030101436160FFF75BFE804641F288397E
:104030000DE021688903EFE78901EDE7FFF750FE06
:10404000A0EB0801494502D90320BDE8F08760686C
:10405000696800F00C00B0EB810FEFD1306800F020
:104060000700B8420BD9306820F0070038433060B1
:10407000306800F00700B84201D00120E5E7287859
:10408000400705D56068E96820F4E0600843606097
:104090002878000706D56068296920F4605040EA56
:1040A000C100606000F038F86168084AC1F303118C
:1040B000515CC8400649086006480068FFF730FEBA
:1040C0000020C2E7002002400010024020710008DA
:1040D00020000020180000200448054900684968B5
:1040E000044AC1F30221515CC840704720000020FF
:1040F0000010024030710008044805490068496812
:10410000044AC1F3C221515CC8407047200000201E
:1041100000100240307100080E4A51680E4801F04C
:104120000C03042B11D0082B0FD10C48C1F383438F
:10413000C903C05C0AD55168084AC1F34041921EC8
:10414000515C054A5043B0FBF1F0704704494843C5
:10415000704700000010024000127A00FE70000854
:1041600000093D002DE9F84F040070D02078C04DC3
:10417000C00749D06868C0F38100012807D068688B
:10418000C0F38100022809D16868C00306D52868F9
:10419000800339D560680028E7D035E06068B0F565
:1041A000803F0BD010B1B0F5A02F11D0286820F4BB
:1041B00080302860286820F4802002E0286840F4DD
:1041C00080302860606890B1FFF78AFD06460AE0FB
:1041D000286840F480202860F0E700BFFFF780FDEA
:1041E000801B642873D828688003F7D50CE0FFF79C
:1041F00077FD064605E000BFFFF772FD801B6428CF
:10420000F0D828688003F7D420789A4E80074FF0C2
:1042100001094FF0000839D5686810F00C0F07D07D
:104220006868C0F38100022809D16868C00306D419
:104230002868800714D52069012808D110E020697A
:10424000B0B1C6F80090FFF74BFD074605E00AE164
:10425000FFF746FDC01B0228C4D828688007F7D5A1
:104260002868616920F0F80040EAC10028600DE08C
:10427000C6F80080FFF734FD074604E0FFF730FD85
:10428000C01B022823D828688007F7D420780007AD
:104290002CD57948A169D9B1C0F80090FFF720FD6D
:1042A000074604E0FFF71CFDC01B02280FD8686A10
:1042B0008007F7D571484FF4FA510068B0FBF1F070
:1042C000009000BF0098411E0091FAD20EE080E0FD
:1042D000C0F80080FFF704FD074604E0FFF700FD8B
:1042E000C01B022875D8686A8007F7D42078400779
:1042F00060D5E8690027C00008D4E86940F0805024
:10430000E861E869012700F0805000905C4801688E
:10431000C90513D40168834641F480710160FFF739
:10432000DFFC824606E000BFFFF7DAFCA0EB0A00E4
:1043300064284ED8DBF80000C005F5D5E0680128F8
:104340000AD008B1052813D0286A20F0010028629D
:10435000286A20F0040002E0286A40F00100286288
:10436000E06841F2883B98B1FFF7BAFC82460BE067
:10437000286A40F004002862EEE700BFFFF7B0FCB7
:10438000A0EB0A0159455AD8286A8007F6D50CE0F7
:10439000FFF7A6FC824605E0FFF7A2FCA0EB0A01AE
:1043A00059454CD8286A8007F6D41FB1E86920F037
:1043B0008050E861E06988B36968C1F3810102292E
:1043C00044D00228C6F8608004D0FFF789FC044678
:1043D00038E034E0FFF784FC074604E0FFF780FC98
:1043E000C01B02282BD828688001F7D4206AB0F5BA
:1043F000803F05D16868A16820F4003008436860F8
:10440000D4E908010843696821F47411084368601D
:10441000C6F86090FFF764FC044606E025E000BFA4
:10442000FFF75EFC001B022809D828688001F7D539
:104430001BE000BFFFF754FC001B022802D9032039
:10444000BDE8F88F28688001F4D40EE00128F7D089
:104450006868226A00F48031914204D1616A00F4F4
:104460007010884201D00120EAE70020E8E7000050
:10447000001002400000424280044242200000201E
:104480000070004010B5401EB0F1807F01D30120C4
:1044900010BD4FF0E02460610F21601701F018FC9F
:1044A0000020A06107202061002010BD70477047E8
:1044B00070B590F83C20012A26D0012480F83C40B9
:1044C000022280F83D2003685A689D6822F0700639
:1044D0000A6832435A600D4B02689A4208D0B2F122
:1044E000804F05D00A4B9A4202D00A4B9A4204D11F
:1044F000496825F080031943916080F83D40002110
:1045000080F83C10084670BD022070BD002C0140B0
:10451000000400400008004010B5040003D094F8E7
:104520003D0010B107E0012010BD002084F83C00E0
:10453000204600F01FF8022084F83D00211D20686D
:1045400001F0B4F8012084F8460084F83E0084F8B5
:104550003F0084F8400084F8410084F8420084F869
:10456000430084F8440084F8450084F83D000020AE
:1045700010BD000000B585B00021009101910291AD
:10458000039101682948B1F1804F15D0284A914222
:1045900039D1C16941F00201C161C069002200F056
:1045A0000200049011461D20FFF706FC5FF01D007D
:1045B000FFF7F4FB05B000BDC16941F00101C16125
:1045C000C16901F001010491816941F00801816133
:1045D0008069694600F0080004904FF48060009004
:1045E0001448FFF77FFA1448416821F4407141F004
:1045F000E06141F400714160002211461C20FFF788
:10460000DBFB1C20D4E70D4A9142D3D1C16941F0B4
:104610000401C161C069002200F004000490114649
:104620001E20FFF7C9FB1E20C2E700000010024059
:1046300000040040000C0140000001400008004060
:1046400070B5044690F83C000025012817D00126DB
:1046500084F83C60022084F83D002068826822F0E3
:10466000770222F47F4282600868502838D00DDC3F
:1046700020284FD005DC90B3102811D14AE0022049
:1046800070BD302846D040280AD13BE060282FD0AA
:1046900070280DD0B0F5805F03D0B0F5005F12D068
:1046A000012584F83D60002084F83C00284670BD58
:1046B000CB68D1E90121206801F041F820688168C8
:1046C00041F0770109E0CB68D1E90121206801F0D0
:1046D00036F82068816841F480418160E1E719E0A3
:1046E000CA684968206801F0DFF85021206806E0B8
:1046F000CA684968206801F015F96021206801F056
:1047000028F8CEE7CA684968206801F0CDF8402152
:104710002068F4E7226801461046F0E770B50546C8
:104720000E48854219D1287F082816D1082128462D
:1047300000F09AFA0A4C0C212080284600F094FAE6
:1047400080B260802188401A02F063F8054A064B67
:1047500002F076F802F02CF8A06070BD9C0C0020EE
:10476000080000209CC420B07268913F2DE9F04100
:10477000054690F83C0000260C46012810D0012088
:1047800085F83C0072B1042A1CD0082A2CD00C2ACF
:1047900050D00126002085F83C003046BDE8F0816D
:1047A0000220FBE7D4E90012E368286801F08EF8E4
:1047B0002868816921F00C01816128688169A268FB
:1047C00011430FE0D4E90012E368286801F0BCF857
:1047D0002868816921F44061816128688169A26843
:1047E00041EA02218161D5E72868D4E9002C277BC2
:1047F000036A016A21F480710162C16923F40073C4
:1048000021F0030141EA0C0121F0F00C39074FF4CB
:1048100000774CEA116107EA02221A43C161026281
:104820002868C16921F00C01C1612868C169A268CA
:1048300011432BE02868D4E90021E768036AD0F827
:1048400020C02CF4805CC0F820C0D0F81CC023F439
:1048500000532CF4407C4CEA012121F4704C4FF6BB
:10486000FF7101EA07314FF4005741EA0C0107EAF2
:1048700002321A43C16102622868C16921F44061B1
:10488000C1612868C169A26841EA0221C16181E76A
:1048900010B5040003D094F83D0010B107E00120EA
:1048A00010BD002084F83C00204600F01EF80220D5
:1048B00084F83D00211D206800F0F8FE012084F8F6
:1048C000460084F83E0084F83F0084F8400084F8F5
:1048D000410084F8420084F8430084F8440084F8DE
:1048E000450084F83D00002010BD70472DE9F041DF
:1048F00004460068C66805694FF00007A90713D58C
:10490000B10711D5F91E0161012020772068806967
:104910008007204602D0FFF701FF04E000F0A4F872
:10492000204600F036F92777680716D5700714D5AA
:1049300021686FF0040008610220207720688069F8
:1049400010F4407F204602D0FFF7E8FE04E000F0BC
:104950008BF8204600F01DF92777280715D530077A
:1049600013D521686FF008000861042020772068C3
:10497000C0698007204602D0FFF7D0FE04E000F0B7
:1049800073F8204600F005F92777E80616D5F006FB
:1049900014D521686FF01000086108202077206886
:1049A000C06910F4407F204602D0FFF7B7FE04E054
:1049B00000F05AF8204600F0ECF82777E80708D016
:1049C000F00706D021686FF001000861204600F072
:1049D0002FF9280608D5300606D521686FF080002B
:1049E00008612046FFF762FD680608D5700606D507
:1049F00021686FF040000861204600F04AF9A806DF
:104A00000AD5B00608D521686FF02000086120465D
:104A1000BDE8F041FFF74BBDBDE8F08100B585B0C2
:104A20000021009101910291039100680B49884295
:104A300011D10B48816941F00401816180696946A7
:104A400000F00400049040200090022001900390A8
:104A50000448FFF747F805B000BD0000000400401F
:104A60000010024000080140704770B5044690F8FD
:104A70003C0000260D4601280FD0012084F83C00A0
:104A80006AB1042A1DD0082A2FD00C2A3FD0012653
:104A9000002084F83C00304670BD022070BD2068C4
:104AA00000F060FE2068816941F0080181612068A2
:104AB000816921F004018161206881692A691143BB
:104AC00011E0206800F076FE2068816941F4006101
:104AD00081612068816921F4806181612068816938
:104AE0002A6941EA02218161D2E7206800F08EFE46
:104AF0002068C16941F00801C1612068C16921F0E5
:104B00000401C1612068C1692A69114311E020686C
:104B100000F0A8FE2068C16941F40061C16120680D
:104B2000C16921F48061C1612068C1692A6941EAD3
:104B30000221C161ACE710B5040003D094F83D0038
:104B400010B107E0012010BD002084F83C00204691
:104B500000F01EF8022084F83D00211D206800F0BE
:104B6000A5FD012084F8460084F83E0084F83F004B
:104B700084F8400084F8410084F8420084F843003F
:104B800084F8440084F8450084F83D00002010BDFE
:104B90007047704710B50446022249B104290ED06F
:104BA000082913D094F84100012816D0012010BD27
:104BB00094F83E000128F9D184F83E200FE094F8E3
:104BC0003F000128F2D184F83F2008E094F840002B
:104BD0000128EBD184F8402001E084F84120012233
:104BE000206800F09FFD0F492068884203D1426C85
:104BF00042F4004242642068884208D0B0F1804FFD
:104C000005D00949884202D00849884204D1816808
:104C100001F00701062903D0016841F0010101609C
:104C2000002010BD002C014000040040000800409E
:104C300010B504464FF400510748FFF743F8074802
:104C4000844208D10648C2B2064841780078BDE8DF
:104C50001040FDF711BA10BD001001402C0D0020CE
:104C600010000020000000200246002041B104296D
:104C700009D008290AD00C2901D11068006C7047AE
:104C80001068406B70471068806B70471068C06B8D
:104C9000704770477047704770B5044620680C3005
:104CA00050E8001F21F4907140E80012002AF5D16D
:104CB0002068143050E8001F21F0010140E8001284
:104CC000002AF5D1206B012809D120680C3050E86A
:104CD000001F21F0100140E80012002AF5D12068E1
:104CE00040694FF0200241064FF0000015D52168C1
:104CF000143151E8003F23F0400341E80035002D16
:104D0000F5D1E16B49B109484863E06BFEF77CFDE2
:104D100050B1E06B416B884706E0E08584F84220A3
:104D200020632046FFF7B7FF002070BDE15900085F
:104D300070470000F8B5016804460868CA684B6906
:104D400010F00F0F4FF0000559D003F0010602F4E8
:104D50009077374365D0C10705D0D10503D5616C85
:104D600041F001016164410705D5D90703D0616CA9
:104D700041F002016164810705D5D90703D0616C58
:104D800041F004016164010707D502F020013143BD
:104D900003D0616C41F008016164616C00293AD074
:104DA000800604D5900602D5204600F04BFE206810
:104DB0004069616CC0F38010090700D460B32046DD
:104DC00000F019FE20684069400621D520681430A3
:104DD00050E8001F21F0400140E80012002AF5D100
:104DE000E06BA8B16D494163E06BFEF70DFD002853
:104DF00011D0E06B416B01B0BDE8F040084783067D
:104E00000FD593060DD52046BDE8F84000F01ABE38
:104E10002046FFF78DFFF8BD2046FFF789FF656448
:104E2000F8BD266B2023012E7CD1C6067AD5D60686
:104E300078D508684868009048694FF00206400637
:104E400040D5E16B086840680004000CE8D0A28DF2
:104E50008242E5D9E085886920282DD020680C3071
:104E600050E8001F21F4807140E80012002AF5D1BB
:104E70002068143050E8001F21F0010140E80012C2
:104E8000002AF5D12068143050E8001F21F04001BD
:104E900040E80012002AF5D184F8423025632068EA
:104EA0000C3050E8001F21F0100140E80012002AE9
:104EB000F5D1E06BFEF784FC6663A08DE18D401AAE
:104EC00081B22AE0A08DE18D401A81B2E08D0028E8
:104ED000A6D00029A4D022680C3252E8000F20F49A
:104EE000907042E80007002FF5D12068143050E898
:104EF000002F22F0010240E80027002FF5D184F8AE
:104F00004230256320680C3050E8002F22F0100258
:104F100040E80023002BF5D166632046FFF7BAFE78
:104F2000F8BDFFE705062BD5150629D594F84100F5
:104F30002128F5D1A068B0F5805F01D12069B0B11A
:104F4000206A411C2162216800784860E08C401E84
:104F50000004000CE084E3D12068C16821F08001E6
:104F6000C1602068C16841F04001C160D8E7206A93
:104F70000088C0F308004860206A801C2062E5E7D2
:104F80004006CDD55006CBD5CA68204622F0400257
:104F9000CA6084F8413000F056F9C1E7D1590008E1
:104FA00070B5040004D094F84100002510B106E06B
:104FB000012070BD84F84050204600F023F82420E2
:104FC00084F841002068C16821F40051C160204686
:104FD00000F09AFD2068016921F490410161206888
:104FE000416921F02A0141612068C16841F4005102
:104FF000C1606564202084F8410084F84200656344
:10500000002070BD70B586B0002400940194029415
:1050100003942E4E03682E49022003222D4DB342E5
:1050200026D18B6943F480438B618B6903F4804301
:1050300004938B6943F004038B618969039201F047
:10504000040104910102CDE9001069462846FEF7EB
:1050500049FD2815CDE90004694628460294FEF76B
:1050600041FD002211462520FEF7A6FE252028E05E
:10507000194EB34227D1CB6943F40033CB61CB69DE
:1050800003F4003304938B6943F004038B61896953
:10509000039201F0040104910421CDE90010694656
:1050A0002846FEF71FFD0820CDE900046946284682
:1050B0000294FEF717FD002211462620FEF77CFE23
:1050C0002620FEF76BFE06B070BD000000380140E0
:1050D00000100240000801400044004090F84230B7
:1050E000202B01D00220704721B11AB100230363A5
:1050F00000F066BD0120704710B500681A4988426B
:1051000031D11A4CB4F8000440F2FF31C0F30E0064
:105110008842B4F8000407D2B4F80014401C60F3CD
:105120000E01A4F8001403E040F40040A4F80004C9
:10513000B4F800040122C0F30E0001190C48FFF777
:10514000CDFF7D210948FBF702FA00280BD0B4F807
:105150000004C0F30E000A2805D9B4F8000440F496
:105160000040A4F8000410BD0038014024080020CD
:10517000740D00202DE9F843044690F8410098464C
:1051800016460D46202802D00220BDE8F88385B1DE
:105190007EB100206064212084F84100FEF7A0FD6C
:1051A000A6848146E684A0682027B0F5805F02D0FF
:1051B00003E00120E9E7206910B12E4600250EE04A
:1051C00000260CE08021204600F015FDA8B9C6B1EC
:1051D00016F8010B21684860E08C401EE084E08CEA
:1051E0004B464FF00002CDF800800028EAD14FF086
:1051F0004001204600F0FFFC40B184F841700320DC
:10520000C3E735F8020BC0F30800E3E784F8417008
:105210000020BAE790F84130202B01D002207047DF
:1052200079B172B101628284C2840021416421217A
:1052300080F841100068C16841F08001C160002021
:105240007047012070477047FEE700003EB500211F
:10525000174800910191154A0291026092158260EF
:1052600001240473017502254FF460220561C261B7
:105270004160FEF749F908B1FEF756F80520CDE97F
:1052800000040320029069460948FEF7BBF808B104
:10529000FEF74AF80720CDE9000569460448FEF705
:1052A000B1F8002801D0FEF73FF83EBD00240140D0
:1052B000280C0020094808B5416941F0010141610D
:1052C0004069002200F00100009011460B20FEF71B
:1052D00073FDBDE808400B20FEF760BD00100240E2
:1052E0002DE9F04385B000253A48009501950295D7
:1052F0000395816941F010018161816901F010011C
:105300000491816941F020018161816901F02001EE
:105310000491816941F004018161816901F0040116
:105320000491816941F00801816180692A4C00F093
:1053300008004FF400560490002231462046FEF744
:10534000C9FCDFF89880002203214046FEF7C2FC2A
:10535000DFF88C90012211464846FEF7BBFC002284
:1053600020214846FEF7B6FC1127CDE90067032649
:10537000CDE9025669462046FEF7B4FB0124CDE98B
:1053800002460094694640460194FEF7ABFB0226B4
:10539000CDE90064CDE9024669464046FEF7A2FB2E
:1053A0001020CDE90005694640460295FEF79AFBBC
:1053B000CDE90047CDE9025669464846FEF792FB23
:1053C00020208DE8710069464846FEF78BFB05B04A
:1053D000BDE8F083001002400010014000080140C9
:1053E000000C014010B58AB00024274804940594AD
:1053F00006940794089409940094019402944FF041
:105400008041039401604721C0E901144FF6FF7108
:10541000C0E903148461FFF77FF808B1FDF784FF4A
:105420004FF48050049004A91748FFF709F908B118
:10543000FDF77AFF1448FFF72BFA08B1FDF774FF68
:10544000089408A910480994FFF732F808B1FDF74D
:105450006BFF0120CDE900400294082269460A480A
:105460000394FFF783F908B1FDF75EFF0220009077
:1054700001900C2269460448FFF778F9002801D012
:10548000FDF752FF0AB010BD9C0C002010B58EB085
:1054900000240794089409940A940B941C216846EC
:1054A0000C94FBF7BDF81E481C4901600821C0E9B7
:1054B000011441F29311C0E903148461FFF72CF841
:1054C00008B1FDF731FF4FF48050079007A9144849
:1054D000FFF7B6F808B1FDF727FF1148FFF72BFBE0
:1054E00008B1FDF721FF0B940BA90D480C94FEF7B2
:1054F000DFFF08B1FDF718FF6020CDE9000402943A
:105500000022694606480494FFF7AFFA08B1FDF798
:105510000BFF0348FFF782FA0EB010BD00040040F5
:10552000E40C002010B586B00024184800940194C3
:1055300002940394049414490594016041F61F41B8
:10554000C0E901144CF24F31C0E90314802181619C
:10555000FEF7E2FF08B1FDF7E7FE4FF48050009040
:1055600069460A48FFF76CF808B1FDF7DDFE0494C0
:1055700004A906480594FEF79BFF002801D0FDF71B
:10558000D3FE06B010BD0000000800402C0D002026
:105590000C4810B50A4901604FF4E1314160002127
:1055A00081600C22C160C0E904128161C161FFF712
:1055B000F7FC002803D0BDE81040FDF7B5BE10BDD4
:1055C00000380140740D00200C4810B50A490160F4
:1055D0004FF4E1314160002181600C22C160C0E9DB
:1055E00004128161C161FFF7DBFC002803D0BDE834
:1055F0001040FDF799BE10BD00440040BC0D0020D6
:10560000FEE7FEE770477047FEF770BB30B593B01A
:1056100028216846FBF704F814210AA8FBF700F8D4
:10562000002501200F9510951195010412958DE824
:10563000230004904FF4E010CDE9081002240794F1
:105640006846FEF78FFD08B172B6FEE70AA90F2083
:1056500081E831004FF48060CDE90D0502210AA8F0
:10566000FEF7A4FC08B172B6FEE74FF400401190BB
:105670000F940FA8FEF724FC002801D072B6FEE7B5
:1056800013B030BD704700000148FFF72FB900008C
:105690009C0C00200148FFF729B90000E40C002011
:1056A0000148FFF723B900002C0D0020F0B5026877
:1056B000194B1A4C1A4D4FF08047984205D0B8420A
:1056C00003D0A04201D0A84203D122F070064A685C
:1056D0003243984205D0B84203D0A04201D0A8423C
:1056E00003D122F44074CA6822434C6922F080023C
:1056F000224302608A68C2620A688262984201D1CB
:1057000009690163012141610169C90703D0016988
:1057100021F001010161F0BD002C014000040040B6
:105720000008004010B501F01F030121046A9940F0
:105730008C430462016A9A401143016210BD10B5A6
:10574000846842EA032224F47F440A4322438260AD
:1057500010BD826822F070020A4342F007018160A6
:105760007047000030B5036A026A22F0010202624B
:105770004268846924F073050C682C4323F0020509
:105780008B682B430A4DA8420BD123F00805CB6848
:1057900022F440722B434D6923F0040315438A69B8
:1057A0002A434260846149684163036230BD00005E
:1057B000002C014030B5026A036A23F01003036233
:1057C000436884690D6824F4E64444EA05248D683E
:1057D00022F0200242EA05120B4DA8420ED1CD68FC
:1057E00022F0800242EA05124D6923F4406343EA45
:1057F00085038D6922F0400243EA8503436084619A
:1058000049688163026230BD002C014030B5036AF3
:10581000026A22F4807202624268C46923F400734F
:1058200024F073050C682C438D6843EA05230C4D66
:10583000A8420ED1CD6823F4006343EA05234D69E5
:1058400022F4405242EA05128D6923F4806342EA51
:1058500005124260C4614968C163036230BD000043
:10586000002C014030B5046A026A22F480520262C0
:105870004268C3690D6823F4E64343EA05238D6853
:1058800024F4005444EA0534064DA84204D14D697D
:1058900022F4804242EA85124260C3614968016491
:1058A000046230BD002C014010B5036A046A24F084
:1058B00001040462846924F0F00444EA021423F031
:1058C0000A020A438461026210BD000070B5056AD5
:1058D000046A24F00104046284690F4EB04208D0C7
:1058E000B0F1804F05D00D4EB04202D00C4EB04208
:1058F00003D124F00304144301E044F001041A0727
:1059000024F0F00444EA126225F00A0301F00A01CF
:1059100019438261016270BD002C01400004004007
:105920000008004010B5036A046A24F01004046201
:10593000846923F0A00324F4704444EA023243EA69
:1059400001118261016210BD30B5046A056A25F05B
:1059500010050562856925F4407545EA022222F4A6
:1059600070454FF6FF7202EA033224F0A0032A4387
:10597000A02404EA011119438261016230BD0000D4
:105980000FB410B5029C002C19D04FF480610D4863
:10599000FAF724FE03AB224640F2FF310948FAF73A
:1059A00069FC09A10748FAF70DFE0648FAF7EBFD76
:1059B00082B24FF47A7303490448FFF7DBFB10BC53
:1059C0005DF814FB240400200D0A0000BC0D00202B
:1059D00010B5406A0021C185C184FFF7A9F910BD47
:1059E00010B5406A0021C185202280F84220016361
:1059F000FFF751F910BD01680C3151E8002F22F476
:105A0000907241E80023002BF5D10168143151E870
:105A1000002F22F0010241E80023002BF5D1016B99
:105A2000012909D101680C3151E8002F22F0100240
:105A300041E80023002BF5D1202180F842100021FD
:105A40000163704708B590F84210222901D0022066
:105A500008BD82684FF480539A4201D1016921B197
:105A6000816A9A421BD04AB10AE00268816A526890
:105A7000C2F308020A80816A891C08E0026972B1D7
:105A80000268526802F07F020A70816A491C8162D2
:105A9000C18D491E0904090CC18503D01BE00268B1
:105AA0005268F1E70168CA6822F02002CA60016802
:105AB000CA6822F48072CA6001684A6922F0010251
:105AC0004A61202180F8421000214163026B012AC3
:105AD00003D0FFF711FB002008BD016301680C3102
