:020000040800F2
:10000000F01400206102000885460008BD43000886
:1000100081460008A11600085D48000800000000A5
:100020000000000000000000000000008D460008F5
:10003000A516000800000000894600089146000847
:100040007B0200087B0200087B0200087B0200089C
:100050007B0200087B0200087B0200087B0200088C
:100060007B0200087B0200087B0200087B0200087C
:100070007B0200087B0200087B0200087B0200086C
:100080007B0200087B0200087B0200087B0200085C
:100090007B0200087B0200087B0200087B0200084C
:1000A0007B0200087B0200087B0200087B0200083C
:1000B00099460008A5460008B14600087B020008E2
:1000C0007B0200087B0200087B0200087B0200081C
:1000D0007B02000845480008514800087B020008E0
:1000E0007B0200087B0200087B02000800F002F897
:1000F00000F0A6F814A696E8000CB244B344DA4522
:1001000001D100F09DF8BAE80F000FA696E8300084
:10011000A5EB040504EB0607AAEB0704A7F101070A
:100120004FEA15154FEA3414A4F10104AC4201D38F
:1001300000F086F813F0010F18BFFB1A43F001031B
:1001400000F001F8DBE718477C5F00009C5F0000CF
:10015000103A24BF78C878C1FAD8520724BF30C8F3
:1001600030C144BF04680C60704700007047000055
:100170000023002400250026103A28BF78C1FBD8B0
:10018000520728BF30C148BF0B6070476E2900F08E
:100190008583702900F0DF84662905F0E3806529F6
:1001A00005F0E080672905F0DD80612905F0DC803D
:1001B00003681B0A28BF41F08001692900F0D8803C
:1001C000642900F0D580752900F0D2806F2900F0F5
:1001D0006D84782900F0AB84E92900F00784E429D4
:1001E00000F00484F52900F00184EF2900F06A840E
:1001F000F82900F0AA840368DB0928BF41F08001D8
:10020000632900F08983732900F08E83E32901F0CC
:10021000CD80F32901F0D280002070471FB501F096
:1002200069F904000020002105F070F8401C6060AE
:100230000020002105F080F8E0601FBD10B510BD62
:1002400001F033F91146FFF7E9FF04F009FB01F073
:1002500015FA03B4FFF7F2FF03BC01F019FA00002E
:100260000948804709480047FEE7FEE7FEE7FEE74A
:10027000FEE7FEE7FEE7FEE7FEE7FEE70448054986
:10028000054A064B7047000095460008ED0000083F
:10029000F00E0020F0140020F0100020F0100020DC
:1002A0007CB51D4616460C00009007D04142A14285
:1002B00002D32044401E01E04FF0FF30064B7B4448
:1002C0002A4669460190304600F001FB002C02D01E
:1002D000009A002111707CBD330600000FB41CB5DC
:1002E0000C0007AA009007D04142A14202D320444B
:1002F000401E01E04FF0FF30074B7B446946019000
:10030000069800F0E4FA0021002C01D0009A117048
:100310001CBC5DF814FB0000F705000070B50C462E
:100320000546012A05D02878800600D5EA69002311
:1003300002E0012305E05B1C934202D2E05C00284E
:10034000F9D1A869E618C01AA861286A1844286279
:10035000284600F011FA04E0D5E9012114F8010B58
:100360009047B442F8D3284600F01CFA70BD000054
:100370002DE9F0410646002410687529314616A57E
:1003800010D000F020FA002802DA404213A507E05E
:1003900031688A0701D512A502E0490704D511A5E5
:1003A000012401E000F018FA00210A2206F12407D6
:1003B00009E0B0FBF2FCB0FBF2F302FB1C003030B2
:1003C00078541846491C0028F3D123462A46304663
:1003D000BDE8F04100F009BA000000002D00000067
:1003E0002B000000200000002DE9F05F8946044644
:1003F0004FF0000ADFF874B1FB44C0F820A020469B
:10040000E1688847002874D0252806D0D4E9012166
:100410009047206A401C2062F1E700265F46204694
:10042000E16888472028054607DB312D05D2781979
:1004300010F8200C08B10643F1E7B00701D526F00B
:100440000406C4F81CA00027C4F818A02A2D09D05F
:10045000284604F053FF38B304EB8708303DC8F852
:10046000185019E059F8041B204604EB87029161EB
:10047000E1688847012F054618D1E069002820DA95
:1004800026F020061DE0D8F8180000EB800005EBF0
:1004900040003038C8F818002046E1688847054613
:1004A00004F02CFF0028EED1012F0AD02E2D08D108
:1004B0002046E16888477F1C0546022F46F020064B
:1004C000C4DBA069002803DA404246F00106A061BF
:1004D000F00701D026F010066C2D0BD0682D09D046
:1004E0004C2D39D06A2D35D0742D35D07A2D33D09E
:1004F00016E038E0E1682F4620468847B8420546B6
:1005000009D16C2F26D04FF48060E1680643204665
:100510008847054604E06C2F1AD04FF480700643DC
:100520000DB3A5F14100192802D8203546F4006624
:100530004A462946204626604E46FFF727FE80B1F0
:1005400001280BD0F61D26F0070000F1080956E738
:100550004020E4E78020D8E70020D6E706F1040930
:100560004DE7284652E7206ABDE8F09F704F000033
:1005700070B5064600F0FCF80468054630460A22CD
:10058000002100F0F3FA2C6070BD401ECAB210F8D2
:10059000011F8A4202D00029F9D10020704730B5EE
:1005A00005460B462A4613F8014B12F8010B08B119
:1005B000A042F8D01CB1002802D06D1CF1E72846FB
:1005C00030BD10B5431C02E010F8011B71B181076A
:1005D000FAD14FF0013202C88C1A8C4314EAC211CE
:1005E000F9D0C01A0A0603D0C01E10BDC01A10BD33
:1005F0000A0401D0801E10BD0902FCD0401E10BDAF
:100600004FF000020429C0F0128010F0030C00F03B
:100610001B80CCF1040CBCF1020F18BF00F8012BB9
:10062000A8BF20F8022BA1EB0C0100F00DB85FEA87
:10063000C17C24BF00F8012B00F8012B48BF00F853
:10064000012B70474FF0000200B5134694469646C2
:10065000203922BFA0E80C50A0E80C50B1F12001D5
:10066000BFF4F7AF090728BFA0E80C5048BF0CC083
:100670005DF804EB890028BF40F8042B08BF7047E1
:1006800048BF20F8022B11F0804F18BF00F8012B53
:10069000704710B5044610F0030F08BF11F0030FA8
:1006A00040F015804FF0013E121FC0F20E8051F84D
:1006B000043BA3EB0E0C2CEA030C1CEACE1C08BF77
:1006C00040F8043BF0D0A1F1040102F10402521EF3
:1006D00008DB11F8013B00F8013B002BF7D1114674
:1006E000FFF78EFF204610BD4FF0013C50F8042B61
:1006F00051F8043B9A4221D1A2EB0C03934313EA35
:10070000CC1317D150F8042B51F8043B9A4215D161
:10071000A2EB0C03934313EACC130BD150F8042B38
:1007200051F8043B9A4209D1A2EB0C03934313EA1C
:10073000CC13DBD04FF00000704700BFD01A01BAD5
:10074000B1FA81F101F0180122FA01F0CB40DBB2DD
:10075000C0B2C01AC1F120012CFA01F3D11A9143A1
:1007600011EAC311E6D17047704770477047000027
:10077000004870471000002070B504468569006885
:10078000C10601D5302600E02026C00707D070BD85
:10079000D4E9012130469047206A401C20626D1E3A
:1007A000F6D570BD70B5044685690078C00707D1DD
:1007B00070BDD4E9012120209047206A401C2062AE
:1007C0006D1EF6D570BD09684A0501D540B2704767
:1007D000C905FCD500B2704709684A0501D5C0B209
:1007E0007047C905FCD580B270472DE9F0470D462A
:1007F00099469246044600F124080168880604D50B
:10080000E06921F01001216000E00120A84201DD33
:10081000471B00E00027A1697A1902EB0900081ABA
:10082000A0612078C00602D42046FFF7A5FF00266D
:1008300008E0D4E901211AF806009047206A401C1C
:10084000761C20624E45F4DB2078C0060AD520468F
:10085000FFF792FF06E0D4E9012130209047206A9B
:10086000401C2062381EA7F10107F4DC07E0D4E940
:10087000012118F805009047206A401C2062281EBC
:10088000A5F10105F3DC2046FFF78CFF2078000678
:1008900002D50220BDE8F0870120FBE7116802685D
:1008A000006A530501D508700AE0D30501D5088018
:1008B00006E0130603D5C217C1E9000200E0086094
:1008C0000120704701694A1C02610878704700B531
:1008D0008FB0CDE901310021059105497944CDE979
:1008E000031011466846FFF77FFD0FB000BD000002
:1008F000E5FFFFFFD1E900239A4202D2531C0B60AF
:100900001070704710B5436913B1AFF3008001E078
:10091000FFF704FD012010BD127800F124010A70D8
:1009200000224A700122EDE711684FF0FF32E9E73B
:100930002DE9FF5F15468A460446DFF8AC80F8448F
:100940000027D8E900103E46CDE9001010E03AF843
:1009500016106A4602A800F084FD411C07D02178D9
:10096000890603D5E269391891420DD80744761CEF
:100970002078800602D5E069B84205DDAE42E6DBAC
:100980003AF816000028E2D1A069C01BA0612046F9
:10099000FFF7F2FED8E90010CDE90010002017E0C3
:1009A0003AF818106A4602A800F05BFDB0F1FF3F6C
:1009B00081460BD000250DF1080B05E0D4E901219B
:1009C0001BF8050090476D1C4D45F7D308F1010059
:1009D000B0428046E4DB206A384420622046FFF7BC
:1009E000E1FEBDE8FF9F00003E4A00002DE9F04116
:1009F0008046D21D22F007020025D2E90002F52927
:100A000015A614D0011E72F1000106DA0023D0EB06
:100A1000030063EB020211A608E0D8F800108B0770
:100A200001D50FA602E0490701D50EA60125114602
:100A3000002408F1240704E000F0DCF830323A55D5
:100A4000641C50EA0102F7D12B463246214640464B
:100A5000BDE8F041FFF7C9BE000000002D00000016
:100A60002B0000002000000030B4002100F124041D
:100A700008E002F00705D208303542EA4372DB088D
:100A80006554491C52EA0305F3D10468002310A2FF
:100A9000250708D504F020040C4304D0C4690123C1
:100AA0000CA2641EC46130BCFFF79FBE10B50446A3
:100AB00021461068FFF790FE02462046BDE8104030
:100AC0000023D1E7D21D22F00701D1E90023CBE7B3
:100AD0000000000030000000F0B40D460188090558
:100AE00002D5214C7C4402E01F4C7C440E34002192
:100AF00000F1240608E002F00F071209E75D42EA60
:100B000003721B097754491C52EA0307F3D1027898
:100B10000023120704D5702D06D009B10223113429
:100B20002246F0BCFFF761BE01231034F8E770B530
:100B300004460D4621461068FFF74EFE0246294640
:100B40002046BDE870400023C6E7D21D22F007030F
:100B5000D3E90023C0E70368126843F02003036071
:100B60000823C3610023B7E7A04800002DE9F04740
:100B700091460F4680460446002614F8015B2DB1CD
:100B800000F030F80068405DC007F6D12B2D02D090
:100B90002D2D18D0641E4A463946204600F012FC1E
:100BA00027B13968A14201D1C7F800804FF0020493
:100BB00071050BD54042002803DDFFF7D9FD046025
:100BC000A007BDE8F08746F48066E4E70028F8DA7D
:100BD000FFF7CEFD04606FF00040F2E70048704779
:100BE0001000002010B500F085FC001D10BD00BFF6
:100BF0001D47000030B5B0F10A0271F100034FEA61
:100C0000900E4EEA817EB0EB0E0061EB91014FEA4F
:100C1000101E4EEA017E10EB0E0041EB11114FEA5F
:100C2000102E4EEA016E10EB0E0041EB11214FEA3F
:100C3000104E4EEA014E10EB0E0041EB11414018F0
:100C400041F100014FEAD00040EA41704FEAD10182
:100C50004FEA810444EA907410EB800544EB0104F0
:100C60006D1944EB0404521BA3414FF0000348BF2D
:100C70000A3200D530BD401C41F1000130BD2DE9E4
:100C8000FF4F0C461E464FF0FF378BB0D2E90001F4
:100C9000DDF860800A908A46C1F30A5505B93D46E1
:100CA000002108464FF00000BAF1000F00F44000A8
:100CB00005DA00EB80004FF4400101EA50004FEAF2
:100CC0009059B9F1010F00DDB9460A9850EA4A007F
:100CD0000ED044F61050A5F2FF3545432F14B8F15D
:100CE000000F1ED07542291E1EDDC9F100021CE056
:100CF000B8F1010F4FF0000001D0302103E0F243C2
:100D000005E02154401CB042FBDB304600220021AC
:100D100021540B99C1F80880C1E900200FB0BDE84B
:100D2000F08FBD1B6D1CDEE74A4600DA694206A85B
:100D300000F032FC06AB93E8070003AB83E8070042
:100D400050460A9903F0FEFE8DE80700A0F500501A
:100D50001F3800900398002D0ADD42F21F014A4619
:100D60000844002303A90390684604F067F909E0EA
:100D7000A0F500504A461F38002303A90390684697
:100D800004F071F98DE807000004000C03D04FF067
:100D9000FF30410800E01046B8F1000F03D00022F8
:100DA000009215461EE0751E05D4FFF723FF303272
:100DB00062556D1EF9D5B3460122084302D00022C8
:100DC0007F1C04E02078302801D100227F1E002AF9
:100DD000099784D01DE0112D07DAFFF70BFF3032A1
:100DE00062556D1C50EA0102F5D1084302D000980B
:100DF000C8B10EE00021681E05E0235C625C63540C
:100E00002254401E491C8142F7DBAB46A81B401E02
:100E10000990002004F80B000B98099AC0F808808C
:100E2000C0E9002B7AE711264FF0000857E72DE9BB
:100E3000F04F88460446D21D22F0070191B0D1E957
:100E40000001CDE90A0104F045FA02460B98C00FF3
:100E500001D02D2007E02068810701D52B2002E07A
:100E6000202101EAC000032A099001D0072A05DBEE
:100E700003464146204600F041FB0BE12078800606
:100E800001D5E06900E00620B8F1650F814606D083
:100E9000B8F1660F18D0B8F1670F70D131E00020BB
:100EA000B9F1110F009001DB112301E009F10103F9
:100EB0000AAA01A90CA8FFF7E2FEDDE90C700026E2
:100EC00009F10105834647E001204B4600904FF0B1
:100ED00000470AAA01A90CA8FFF7D1FEDDE90DB071
:100EE0000C995D46002610B909F101000D18B9EB07
:100EF000050003D4C0F1FF3609F10105A5EB090097
:100F00002BE0B9F1010F01DA4FF001090020B9F12E
:100F1000110F0090484601DD112300E003460AAAA4
:100F200001A90CA8FFF7ABFEDDE90C704D460026C9
:100F30008346207800070AD4AB4500DA5D4601A855
:100F4000012D04DD411911F8011C302907D04F454E
:100F500002DA17F1040F04DA012082460FE06D1E59
:100F6000EEE7002F02DCED1B3E4403E0781CA842B4
:100F700000DD7D1CB81B00F1010A4FF0004720780E
:100F8000000703D4AA4501DB4FF0FF3A0021B7F177
:100F9000004F0DF143088DF8431024D002202B237D
:100FA000002F01DA7F422D230A21021EA0F1010049
:100FB00000DC5FB197FBF1FC97FBF1F201FB1C7CBD
:100FC00017460CF1300C08F801CDEEE7A8F101004E
:100FD00003702188090501D5452100E06521A0F1B4
:100FE000010800F8011C09980FA9A1EB0807FF1DD3
:100FF00000B10120411901EBEA70A1693844081AD7
:10100000401EA0612078C00602D42046FFF7B4FB42
:10101000099828B1D4E901219047206A401C206238
:101020002078C00622D52046FFF7A6FB1EE0002E42
:1010300004DBB34502DD01A8805D00E03020D4E987
:1010400001219047206A401C2062761CAAF1010011
:101050005FEA000A0AD100F04DFAC0680168405CFE
:10106000D4E901219047206A401C2062281EA5F186
:101070000105DCDC07E0D4E9012118F8010B9047F9
:10108000206A401C2062381EA7F10107F3DC2046CD
:10109000FFF788FB032011B041E600002DE9F04F77
:1010A00004460D46D21D22F0070089B0D0E9009712
:1010B0004846394604F00EF90246F80F01D02D23B8
:1010C00007E02068810701D52B2302E0202101EAF7
:1010D000C0038DF820300BB1012000E00020032A6E
:1010E000824601D0072A04DB2946204600F006FA92
:1010F0003FE12078800601D40D2500E0E569C7F3C3
:101100000A560D2D49DA00214FEA175B08464FF0C9
:101110000000002F00F4400007DA00EB80004FF4DD
:10112000400100EBD07001EA60008115012901DD6A
:101130004FF0FF3100224FEA850CBCF1180F06D3A7
:101140001346ACF118004FF08052C24003E04FF458
:10115000801323FA0CF30CF10C0CBCF1200F04D318
:10116000ACF1200C09FA0CF001E007FA0CF00029B0
:101170004FF0004801DD18B90FE00ED140450CD307
:1011800019EB02095F4121B9404502D19F4329EA89
:101190000209BBEB175F00D0761C2088000502D542
:1011A0007B48784402E07A487844193808AA30230A
:1011B00002F80A30037C0AF10101002E0AF1020A4A
:1011C00053546A4602DC4FF0300101E04FF0310128
:1011D0004FF001088DF8001002D0A6F2FF3603E0B0
:1011E00059EA470100D06B4E002D02DC2178090737
:1011F00004D54FF002082E218DF80110C4460021BD
:101200000BE0C7F303433F01C35C491C6D1E02F8AA
:101210000830052908F1010801DA002DF1DC002170
:101220000CE000EB1973491C1B786D1E082902F8AD
:1012300008304FEA091908F1010801DA002DF0DC45
:1012400021688B0602D516E0A8F10108E04505DD0E
:1012500002EB080313F8013C302BF5D0B8F1000F76
:1012600009DD02EB080313F8013C2E2B03D109071B
:1012700001D4A8F10108002D05DD3E2102F8081077
:101280006D1E08F10108407C002E02F8080008F1EC
:10129000010804DA2D20764202F8080002E02B2033
:1012A00002F808000A214FF47A70864208F101081A
:1012B0000BDB96FBF0F3303302F8083096FBF0F3CB
:1012C00008F1010800FB136601E0642E0CDB6420CA
:1012D00096FBF0F3303302F8083096FBF0F308F198
:1012E000010800FB136601E00A2E06DB96FBF1F015
:1012F000303002F8080008F1010896FBF1F001FB1C
:101300001060303002F80800A16908F1010808EB0C
:10131000050202EB0A00081AA0612078C00602D478
:101320002046FFF729FA216A08AE01EB0A00206285
:1013300004E0D4E9012116F8010B9047BAF1010A43
:10134000F7D22078C00602D52046FFF715FA6E4680
:1013500009E016F8010B3E280FD0D4E9012190478F
:10136000206A401C2062B8F10108F2D22046FFF743
:1013700019FA09B00320BDE8F08F206A28442062E2
:1013800003E0D4E90121302090476D1EEBD3F8E74C
:101390001D42000002FCFFFF10B5436913B1AFF31B
:1013A000008001E0FFF7C4FA012010BD128800F1AF
:1013B000240182840022C2840122EDE711684FF0EB
:1013C000FF32E9E72DE9F05F824615468B4600279C
:1013D0000AF10104B9460078302801D09DB113E02C
:1013E00014F8010B0127782803D0582801D045B103
:1013F0000AE00DB1102D07D1002714F8010B1025BC
:1014000002E0082500E00A250026B0460EE005FBB4
:10141000080005FB06F101271FFA80F801EB1046D2
:10142000B6F5803F00D3B94614F8010B294600F009
:10143000A5F80028EBDABBF1000F05D00FB1641E50
:1014400000E05446CBF80040B9F1000F06D0FFF79A
:101450008FF902210160C81EBDE8F09F48EA0640EE
:10146000FAE72DE9F04116460C460546FFF7BAFBB0
:10147000036893F80101012807D0FF2C12D8185DEA
:1014800080B101202C70BDE8F081D3F8070132460D
:10149000214603F20713C7182846BC46BDE8F041B1
:1014A000002360474FF0FF30EDE77546FFF796FBEE
:1014B000AE4605006946534620F00700854618B041
:1014C00020B5FEF7DBFEBDE820404FF000064FF0F0
:1014D00000074FF000084FF0000BAC46ACE8C00925
:1014E000ACE8C009ACE8C009ACE8C00921F00701CC
:1014F0008D46704700487047300000202DE9F041CC
:101500001F46044603260168072A01F4006004DB35
:1015100008B116A505E016A503E008B115A500E081
:1015200015A521F010002060A069C01EA0610FB1B8
:10153000401EA0612046FFF71FF94FB1D4E90121F9
:1015400038469047206A401C2062C01C206206E09A
:10155000206AFAE7D4E9012115F8010B9047761EBD
:10156000F8D22046FFF71EF9BDE8F0814E414E004B
:101570006E616E00494E4600696E66003A2800D2E0
:10158000303820F02002412A01D3A2F137008842EE
:1015900001D34FF0FF3070472DE9F04781461646E2
:1015A0008AB0354878440DC88DE80D00324878443B
:1015B000801C03AC0DC884E80D0041F69B30084444
:1015C000372190FBF1F290FBF1F5A5F1800501FBCD
:1015D00012041B3C02D56442012000E00020DFF829
:1015E00098A080460027FA44AAF1BE0A0EE0E00760
:1015F0000AD03246684607EB470101230AEB810116
:1016000003F031FD8DE8070064107F1C002CEED143
:10161000194F7F44AE3F19E0E80715D007EB0410DF
:101620000DF1180A90E80E008AE80E00C068F0423A
:1016300001D1981908903246012306A903A803F0A6
:1016400012FD03AB83E807006D10641C002DE3D18D
:101650004FF0010332466946B8F1000F03A802D0EB
:1016600003F0ECFC01E003F0FEFCC9E90001C9F85D
:1016700008200AB0BDE8F087AC3E000010B5044673
:10168000AFF300802046BDE81040FEF7E2BD000049
:1016900001491820ABBEFEE726000200704700009B
:1016A000FEE70000704700002DE9F04393B00DF114
:1016B0000C080F4604464046402199461646FEF760
:1016C000C1FF45F60865C0F6000545F60E60002C22
:1016D0002B46C0F6000018BF0346002F29462A46B5
:1016E00018BF0146002E18BF024640F2EA54B9F175
:1016F000000F18BF0546CDE90012C2F2000446F201
:101700003D02C0F6000220464FF480710295FEF7BC
:10171000E5FD2046FEF755FF0546A0F5807010F563
:10172000807F0BD845F2EC50C0F60000294602F04D
:10173000C5FF002013B0BDE8F08300BF45F6036786
:1017400045F6337245F68333C0F60007C0F6000253
:10175000C0F60003404640210097FEF7BFFD40F26F
:10176000EA64C2F2000445F29642C0F60002204646
:101770004FF400710023CDE90085FEF7AFFD45F67B
:101780003931C0F60001204600224FF47A7300F090
:1017900033FA98B140F2581040F2EA51AAB2C2F2BC
:1017A0000000C2F2000102F0E7FD78B1014617A087
:1017B00002F084FF002013B0BDE8F08309A002F01E
:1017C0007DFF002013B0BDE8F08300BF40F2EA5176
:1017D0001AA0C2F2000102F071FF012013B0BDE8AF
:1017E000F08300BF4D515454205075626C6973688A
:1017F000204661696C65643A20415420436D642041
:1018000053656E64204572726F7200004D515454DE
:10181000205075626C697368204661696C65643A32
:10182000204A534F4E20446174612053656E6420FA
:101830004572726F72202825642900004D5154545E
:10184000205075626C6973682053756363657373A8
:101850003A2025730000000080B54FF47A7001F043
:1018600069F845F6793045F63931C0F60000C0F622
:10187000000100224FF4FA7300F0BEF9002840F096
:10188000EA8045F25350C0F60000012102F016FF35
:101890004FF4FA7001F04EF845F6793045F63931DB
:1018A000C0F60000C0F6000100224FF4FA7300F009
:1018B000A3F9002840F0CF8045F25350C0F6000055
:1018C000022102F0FBFE4FF4FA7001F033F845F606
:1018D000793045F63931C0F60000C0F6000100222B
:1018E0004FF4FA7300F088F9002840F0B48045F214
:1018F0005350C0F60000032102F0E0FE4FF4FA70EE
:1019000001F018F845F6793045F63931C0F6000097
:10191000C0F6000100224FF4FA7300F06DF90028C0
:1019200040F0998045F25350C0F60000042102F0C7
:10193000C5FE4FF4FA7000F0FDFF45F6793045F62C
:101940003931C0F60000C0F6000100224FF4FA73EE
:1019500000F052F900287ED145F25350C0F6000045
:10196000052102F0ABFE4FF4FA7000F0E3FF45F6FC
:10197000793045F63931C0F60000C0F6000100228A
:101980004FF4FA7300F038F9002864D145F253504F
:10199000C0F60000062102F091FE4FF4FA7000F04C
:1019A000C9FF45F6793045F63931C0F60000C0F67A
:1019B000000100224FF4FA7300F01EF900284AD10A
:1019C00045F25350C0F60000072102F077FE4FF4B5
:1019D000FA7000F0AFFF45F6793045F63931C0F6C0
:1019E0000000C0F6000100224FF4FA7300F004F981
:1019F00088BB45F25350C0F60000082102F05EFE9D
:101A00004FF4FA7000F096FF45F6793045F639311B
:101A1000C0F60000C0F6000100224FF4FA7300F097
:101A2000EBF8C0B945F25350C0F60000092102F0AE
:101A300045FE4FF4FA7000F07DFF45F6793045F62B
:101A40003931C0F60000C0F6000100224FF4FA73ED
:101A500000F0D2F840B145F61370C0F60000BDE8C2
:101A6000804002F02BBE00BF45F25350C0F600008C
:101A70000A2102F023FE4FF4FA7000F05BFF02A08F
:101A8000BDE8804002F01ABE455350383236362049
:101A9000415420436F6D6D616E64205465737420F2
:101AA00046696E616C204661696C6564202831303E
:101AB0002052657472696573204578686175737426
:101AC0006564290080B509A10DA20220002300F061
:101AD000A1FA45F634520CA1C0F60002002818BF46
:101AE00011460846BDE8804002F0E8BD6D7174748F
:101AF000732E6865636C6F7564732E636F6D000081
:101B000031383833000000004D515454204578617D
:101B10006D706C653A2041697468696E6B657220FE
:101B20004D51545420436F6E6E6563742046616955
:101B30006C656400B0B582B045F6A910C0F600002F
:101B400002F0BCFD40F2EA5445F60365C2F200041F
:101B500045F6337245F68333C0F60005C0F6000241
:101B6000C0F6000320464FF480710095FEF7B6FBE7
:101B700040F2EA65C2F2000545F6A8324FF0000CCB
:101B8000C0F6000228464FF400710023CDE9004C56
:101B9000FEF7A4FB45F63931C0F6000128460022C5
:101BA0004FF4FA6300F028F8044645F67420C0F6B6
:101BB000000004A1002C18BF084602F07FFD20465B
:101BC00002B0B0BD3D3D3D3D3D204F6E654E45549C
:101BD000204D51545420546F7069632053756273C3
:101BE0006372696265202046696E69736865642066
:101BF0003D3D3D3D3D0000002DE9F047D0B340F2B2
:101C0000E814C2F200040546894620464FF480617C
:101C10001F469046FEF716FD40F6EC00C2F20000AB
:101C20004FF40071FEF70EFDB4F8000440F25816B0
:101C300000F40040A4F80004B4F80004C2F2000666
:101C40006FF3DF30A4F800040020A4F8000430464D
:101C500001F000FE642000F06DFE304621460122B6
:101C600002F04AFA80B15FA002F028FD0020BDE832
:101C7000F08700BF45F65130C0F6000002F01EFDAF
:101C80000020BDE8F08700BF40F6EC06C2F2000677
:101C90005EA230464FF400712B46FEF71FFB304624
:101CA000FEF78FFC05465BA0314602F007FD40F2CF
:101CB0005810AAB2C2F2000031464FF4FA6302F0A3
:101CC00091FA58B157A002F0F9FC40F25810C2F254
:101CD000000001F0BFFD0020BDE8F087642000F0A7
:101CE00029FE59EA08000FD145F63840C0F6000039
:101CF00002F0E4FCB4F800046FF3DF30A4F8000451
:101D00000120BDE8F08700BF00F036FF054600F077
:101D100033FF401BB8421AD247F6FE7A40F2FD3636
:101D2000B4F9000400280FD4B4F8000400EA0A0053
:101D3000B04209D80A2000F0FDFD00F01DFF401B55
:101D4000B842EDD303E000BF3EA002F0B7FCB4F808
:101D5000000440F2FF316FF3DF30884228BF0846AD
:101D60000021215445F6D860C0F60000214602F05B
:101D7000A5FCB9F1000F0DD099F8000050B140F268
:101D8000E810C2F200004946FEF709FC002818BF1F
:101D9000012000E00020B8F1000F10D078B998F8C9
:101DA000000058B140F2E810C2F200004146FEF7D0
:101DB000F6FB002818BF012001E000BF0020054607
:101DC000322000F0B7FDB4F80014284601F40041B9
:101DD000A4F80014B4F800146FF3DF31A4F8001471
:101DE000BDE8F087455350383236362055415254BD
:101DF0003120496E7465727275707420537461720B
:101E000074204661696C65640000000025730D0A4A
:101E10000000000073656E64206F726465723A257D
:101E20007300000045535038323636205541525425
:101E300031205472616E736D6974204661696C65FE
:101E4000640000004553503832363620436D64201C
:101E50005375636365737320526573706F6E73653A
:101E60002000000010B545F6393124A0C0F600016D
:101E700000224FF4FA73FFF7BFFE58B340F2E810A8
:101E8000C2F200002EA1FEF78AFB48B30730FEF72E
:101E90006FFB02282CD3044640F2E810C2F2000087
:101EA00037A1FEF77CFB00281CBF032010BD022CCD
:101EB00004BF022010BD40F2E81045F61831C2F20E
:101EC0000000C0F60001FEF76AFB002818BF0120E1
:101ED000800010BD0DA002F0F1FB002010BD00BF7E
:101EE00045F65E40C0F6000002F0E8FB002010BDA1
:101EF00015A002F0E3FB002010BD00BF41542B43AE
:101F00004950535441545553000000004C696E6BC6
:101F1000537461747573204572726F723A20536501
:101F20006E642041542B434950535441545553201F
:101F3000436F6D6D616E64204661696C656400007D
:101F40005354415455533A004C696E6B5374617449
:101F50007573204572726F723A204553503832368D
:101F60003620486173204E6F74204F627461696E31
:101F700065642049502028436F64653A2030290069
:101F8000434F4E4E4543544544000000B0B545F222
:101F9000C050C0F6000002F091FB45F67C30C0F660
:101FA0000000002100224FF47A730025FFF724FE81
:101FB00040F2E81440F25810C2F20004C2F20000ED
:101FC0002146012202F098F84FF4FA6000F0B2FCCA
:101FD00020464FF48061FEF735FBB4F8000400F4AE
:101FE0000040A4F80004B4F800046FF3DF30A4F854
:101FF000000445F60F50C0F60000A4F8005402F0AB
:102000005DFB4FF47A6000F095FCBDE8B040FFF74F
:1020100023BC00002DE9F04186B00024022815D130
:10202000E1B145F67B70C0F6000082B10F7877B160
:10203000107898B1052B1BD145F21450C0F6000062
:102040008846164602F03AFB002417E052A002F040
:1020500035FB204606B0BDE8F08100BF45F67B7039
:10206000C0F6000002F02AFB204606B0BDE8F08171
:10207000042B00F289801C468846164645F6D71088
:10208000C0F6000002F01AFB45F6036745F6B060A3
:10209000C0F60007C0F60000414632463B4602F05B
:1020A0000DFB012245F69D2045F68331CDE9002741
:1020B00040F2EA67C0F60000C0F60001C2F2000775
:1020C00045F2E8420025CDE90210C0F6000238468C
:1020D0004FF40071234604950595FEF7FFF845F689
:1020E000393145F6F952C0F60001C0F60002384613
:1020F0004FF47A73FFF780FD044698B34FF4FA70FB
:1021000000F018FC43A13046FEF7EEFA40F2EA6513
:10211000C2F2000545F6BE3207460028C0F60002AE
:1021200028464FF400714FF0000318BF0127CDE996
:1021300000860297FEF7D2F845F61F3145F6393290
:10214000C0F60001C0F6000228464FF4FA63FFF71C
:1021500053FD45F6451545F2CA60C0F60005C0F6C8
:10216000000007E045F6202545F6E240C0F60005F0
:10217000C0F6000002F0A2FA284602F09FFA2046BC
:1021800006B0BDE8F08100BF13A002F097FA204628
:1021900006B0BDE8F08100BF4D5154542045727225
:1021A0006F723A204F6E6C79204D5154542050720A
:1021B0006F746F636F6C20537570706F72746564A9
:1021C000202841697468696E6B6572204669726D7A
:1021D00077617265290000004D5154542045727298
:1021E0006F723A20496E76616C696420436F6E6E3F
:1021F000656374696F6E20494420284F6E6C7920A6
:10220000302D34206F72203520416C6C6F776564FF
:10221000290000003838383300000000B0B582B023
:1022200045F6A910C0F6000002F048FA40F2EA5460
:1022300045F60365C2F2000445F68333C0F6000597
:1022400017A2C0F6000320464FF480710095FEF7F8
:1022500045F840F2EA65C2F2000545F6A8324FF0B3
:10226000000CC0F6000228464FF400710023CDE9AF
:10227000004CFEF733F845F63931C0F60001284628
:1022800000224FF4FA63FFF7B7FC044619A00CA133
:10229000002C18BF084602F011FA204602B0B0BD6B
:1022A000247379732F25732F25732F7468696E67D4
:1022B0002F70726F70657274792F736574000000EF
:1022C0003D3D3D3D3D204F6E654E4554204D5154A2
:1022D0005420546F7069632053756273637269622E
:1022E000652046696E6973686564203D3D3D3D3DEE
:1022F000000000003D3D3D3D3D204F6E654E455484
:10230000204D515454205375627363726962652085
:1023100041626F7274203D3D3D3D3D00B0B582B0DD
:1023200021A002F0CBF940F2EA5445F60365C2F26F
:10233000000445F6527245F68333C0F60005C0F638
:102340000002C0F6000320464FF480710095FDF7AF
:10235000C5FF40F2EA65C2F2000545F6A8324FF02B
:10236000000CC0F6000228464FF400710023CDE9AE
:10237000004CFDF7B3FF45F63931C0F600012846A1
:1023800000224FF4FA63FFF737FC044645F6742049
:10239000C0F6000011A1002C18BF084602F08EF90B
:1023A000204602B0B0BD00BF3D3D3D3D3D205374D1
:1023B000617274204F6E654E4554204D5154542027
:1023C000546F70696320537562736372696265202C
:1023D0006E657773203D3D3D3D3D00003D3D3D3DFB
:1023E0003D204F6E654E4554204D51545420546F3E
:1023F0007069632053756273637269626520526508
:1024000070616C792046696E6973686564203D3D32
:102410003D3D3D002DE9F04784B028B306460078E5
:1024200010B30FF288313046FEF7B9F8804618B382
:1024300008F10A0101E000BF04310878092801D041
:10244000202824D14878202801D009281CD1887858
:10245000202801D0092819D1C8782028ECD00928D3
:10246000EAD0033113E000BF0FF2943004B0BDE8AE
:10247000F04702F023B900BF40F27800C2F200003A
:1024800090F802A03DE000BF013100E002310022DF
:10249000C0B2D8B12C2819D07D2817D0881843781D
:1024A000B3B12C2B14D07D2B12D0837893B12C2B6D
:1024B00010D07D2B0ED0C37873B12C2B0CD07D2B7C
:1024C0000AD000790432C0B20028E3D1881804E0B1
:1024D000013002E0023000E003300022ADF80C20B1
:1024E000CDE90122421A01A8FEF7D3F845F60E61A4
:1024F000C0F60001FEF753F88246002818BF4FF0DF
:10250000010AADA13046FEF74AF88146D0B109F183
:102510000D0100E004310878092801D020281AD1E3
:102520004878202801D0092812D18878202801D0A5
:1025300009280FD1C8782028ECD00928EAD0033127
:1025400009E000BF40F27800C2F20000C4783BE02E
:10255000013100E002310022C0B2D8B12C2819D0DC
:102560007D2817D088184378B3B12C2B14D07D2B3D
:1025700012D0837893B12C2B10D07D2B0ED0C37842
:1025800073B12C2B0CD07D2B0AD000790432C0B251
:102590000028E3D1881804E0013002E0023000E0B6
:1025A00003300022ADF80C20CDE90122421A01A827
:1025B000FEF76FF845F60E61C0F60001FDF7EFFF7C
:1025C0000446002818BF01247FA13046FDF7E7FF2D
:1025D0000746D8B107F10A0101E000BF04310878CD
:1025E000092801D020281AD14878202801D00928AC
:1025F00012D18878202801D009280FD1C878202846
:10260000ECD00928EAD0033109E000BF40F278009D
:10261000C2F2000005793BE0013100E00231002206
:10262000C0B2D8B12C2819D07D2817D0881843788B
:10263000B3B12C2B14D07D2B12D0837893B12C2BDB
:1026400010D07D2B0ED0C37873B12C2B0CD07D2BEA
:102650000AD000790432C0B20028E3D1881804E01F
:10266000013002E0023000E003300022ADF80C201F
:10267000CDE90122421A01A8FEF70BF845F60E61DA
:10268000C0F60001FDF78BFF0546002818BF0125A5
:1026900050A13046FDF783FF0646C8B1B11D00E0EA
:1026A00004310878092801D020281AD14878202838
:1026B00001D0092812D18878202801D009280FD10B
:1026C000C8782028ECD00928EAD0033109E000BFFF
:1026D00040F27800C2F2000041793BE0013100E0B5
:1026E00002310022C0B2D8B12C2819D07D2817D0D1
:1026F00088184378B3B12C2B14D07D2B12D083785B
:1027000093B12C2B10D07D2B0ED0C37873B12C2B12
:102710000CD07D2B0AD000790432C0B20028E3D15E
:10272000881804E0013002E0023000E003300022AB
:10273000ADF80C20CDE90122421A01A8FDF7A9FF4E
:1027400045F60E61C0F60001FDF729FF014600289D
:1027500018BF0121B8F1000F08BFB9F1000F1BD05D
:1027600040F27800C2F200000022028040F2011222
:1027700080F802A0C47005714171C28045F6E53051
:10278000C0F6000022462B46CDF800A001F096FFCF
:1027900004B0BDE8F08700BF002FE1D1002EDFD1EB
:1027A0000EA001F08BFF04B0BDE8F087226C6967D2
:1027B00068745F62223A0000226C696768745F6225
:1027C00061636B223A000000226C696768745F667F
:1027D000223A00002273756E223A00005061727333
:1027E00065204572726F723A204E6F2056616C6997
:1027F00064204669656C647320466F756E640000E2
:10280000506172736520496E666F3A20456D707431
:1028100079204275666665722028536B6970205076
:102820006172736529000000EFF3108072B600BF7B
:10283000FEE70000014690F82100022816D1086842
:10284000D1E90FC3026822F00E020260026822F092
:1028500001020260012000FA03F2CCF8042081F8A2
:1028600021000020002281F8202070470420886386
:102870000120002281F820207047000090F82110EC
:10288000022923D1026840F2040C1168C4F2020C40
:1028900021F00E01116013682F21C4F202018A4257
:1028A00023F00103136015DD3023C4F202039A42C2
:1028B0001CD04423C4F202039A421BD05823C4F212
:1028C00002039A421CD14FF4803321E0042181633A
:1028D000012070470823C4F202039A420ED01C2341
:1028E000C4F202039A420BD1102311E04FF480731B
:1028F0000EE000BF4FF480530AE000BF012307E061
:102900000CF168014FF080738A4208BF4FF48013C6
:102910000121CCF8003080F82110416B0022002901
:1029200080F8202004BF0020704780B58847002031
:1029300080BD0000B0B5044600F01EF9054640F227
:102940000000C2F200000078611C18BF044400BF00
:1029500000F012F9401BA042FAD3B0BD2DE9F04FB0
:1029600082B00E68002E00F0FD8041F20042C4F2F9
:102970000102042340F2004E904208BF03234FF6A9
:10298000FF7CC4F2010E009300240123C1F2100C5D
:102990004FF0000A4FF000094BE000BF41F2000287
:1029A000C4F20102009F904208BF022704F00C030A
:1029B0000F229A402BEA020207FA03F34FEA9A0524
:1029C0001A4346F825204E6840F20C45F202DEF824
:1029D000082054BF22EA080242EA0802C4F20105B4
:1029E000CEF808202A68B30254BF22EA080242EA5D
:1029F00008022A60B303DEF8042054BF22EA08026A
:102A000042EA0802F303CEF80420DEF800204FF07B
:102A1000010354BF22EA080242EA0802CEF800206D
:102A20000E680AF1010A36FA0AF204F1040400F011
:102A3000998003FA0AFB16EA0B08F1D04E68664546
:102A400012DC122E56D8DFE806F0350B4D495555ED
:102A5000555555555555555555555545510000BF7A
:102A6000D1F80C9046E000BF4FF6FF72C1F2210290
:102A700096420FDC0022C1F2110296421AD00022C7
:102A8000C1F21202964215D00022C1F221029642F2
:102A900010D02FE00022C1F2220296420AD000227A
:102AA000C1F23102964205D00022C1F232029642B2
:102AB00020D100BF8A684AB1012A14BFC0F814B0FF
:102AC000C0F810B04FF0080914E000BF4FF004093F
:102AD00010E000BFCA6802F104090BE04FF00009E2
:102AE00008E000BFCA6802F1080903E0CA6802F101
:102AF0000C0900BF02462646B8F5807F24BF043289
:102B0000203E17680F25B54027EA050509FA06F6A5
:102B100035431560CA79D2067FF582AF41F21803BA
:102B2000C4F202031A68AEF57E7642F001021A6022
:102B30001A6802F001020192019A2AF0030256F883
:102B400002B040F60002C4F20102904208D040F602
:102B50000042C4F2010290427FF420AF012725E732
:102B6000002723E702B0BDE8F08F0000002A08BF6D
:102B7000090401617047000040F6EC60C2F20000F9
:102B80000068704740F2000040F6EC61C2F20000BD
:102B9000C2F2000100780A68104408607047000023
:102BA00080B542F20000C4F20200016841F0100159
:102BB0000160032000F08CF80F2000F005F800F011
:102BC00027F8002080BD000070B540F20006C2F278
:102BD000000640F208013278C2F200014FF47A7325
:102BE0000968B3FBF2F20446B1FBF2F1084600F0CB
:102BF00085FB0F2C4FF0010508D838B94FF0FF3096
:102C000021460022002500F037F87460284670BD88
:102C100082B041F21800C4F202000168022241F0C1
:102C200001010160016801F0010101910199416810
:102C300041F080514160406800F080500090009861
:102C40000420C4F20100016862F31A61016002B05D
:102C500070470000002848BF704700F01F010122A4
:102C600002FA01F11C2202EAD0004EF20012CEF26A
:102C7000000281507047000010B54EF60C5CCEF299
:102C8000000CDCF80030C3F3022E8EF00704042C95
:102C900028BF0424BEF103034FF0FF3E0EFA04F4F4
:102CA00038BF0023A14399400EFA03F39A4311431E
:102CB00000F00F0200F160430901043A03F5644398
:102CC0006244002848BF02F10C03197010BD0000D7
:102CD0004EF60C51CEF200010A684FF6FF031A407F
:102CE00060F30A2242F0806040F0FD700860704797
:102CF000002804BF012070472DE9F04381B042F263
:102D00000008C4F202080446D8F800000D4600F09E
:102D1000070081420CD9D8F8000020F007002843B2
:102D2000C8F80000D8F8000000F00700A8426CD1F5
:102D3000206841F204098107C4F2020917D541074E
:102D400005D5D9F8001041F4E061C9F80010010779
:102D500005D5D9F8001041F46051C9F80010D9F830
:102D60000010A26821F0F0011143C9F80010C0075B
:102D700042D1D8F8000000F0070085420CD2D8F804
:102D8000000020F007002843C8F80000D8F8000031
:102D900000F00700A84238D12068410707D5D9F8CC
:102DA0000010E26821F4E0611143C9F80010000747
:102DB00008D5D9F80000216920F4605040EAC1002C
:102DC000C9F80000D9F8002002F00C00082841F2F0
:102DD0000020C0F27A004DD145F28643C2F3834110
:102DE000C0F60003595CD20338D440F60010C0F29C
:102DF0003D0048433EE000BF606859F8041C0228CB
:102E000008D0012826D1890306D4012001B0BDE8ED
:102E1000F08300BF8901F8D5D9F8001021F0030133
:102E20000843C9F80000FFF7A7FE064641F28837BD
:102E3000D9F80000616800F00C00B0EB810F98D069
:102E4000FFF79AFE801BB842F2D9032001B0BDE81B
:102E5000F08300BF8907D8D5DEE700BFD9F800208E
:102E600045F28443C2F34042C0F600039A5C4843F3
:102E7000B0FBF2F0D9F8001045F26C42C1F3031137
:102E8000C0F60002515C40F2080220FA01F140F263
:102E90000400C2F200000068C2F200021160FFF7F5
:102EA00093FE002001B0BDE8F083000040F208006E
:102EB00041F20401C2F20000C4F202010068096894
:102EC00045F27C42C1F30221C0F60002515CC840C9
:102ED0007047000040F2080041F20401C2F2000015
:102EE000C4F202010068096845F27C42C1F3C221C4
:102EF000C0F60002515CC84070470000002804BFC3
:102F0000012070472DE9F04182B00446007841F27B
:102F10000006C007C4F202060CD0706800F00C0076
:102F2000042840F081803068800303D56068002861
:102F300000F04681207880071BD5706810F00C0FD8
:102F400009D0706800F00C00082840F08780706895
:102F5000C00300F183803068800703D52069012811
:102F600040F02E813068616920F0F80040EAC1002D
:102F700030602078000713D4207840072CD4E5690E
:102F8000002D00F01881706800F00C00082840F057
:102F9000A780012D40F00481012002B0BDE8F0813E
:102FA000A069002800F084800020C4F242200121A2
:102FB000C0F88014FFF7E0FD054600BF706A800787
:102FC00000F1B280FFF7D8FD401B0228F6D903209C
:102FD00002B0BDE8F08100BFF0695FEAC00808D424
:102FE000F06940F08050F061F06900F0805000908E
:102FF000009847F20007C4F200073868C00549D4BA
:10300000386840F480703860FFF7B6FD054600BFB1
:103010003868C0053ED4FFF7AFFD401B6428F7D9E0
:10302000032002B0BDE8F081706800F00C000828B1
:1030300003D17068C0033FF576AF6168306800293E
:1030400000F00C81B1F5A02F00F00081B1F5803FB8
:1030500040F01A8140F480301CE100BF2069002854
:1030600040F20000C4F2422000F08880012101609B
:10307000FFF782FD054600BF306880073FF572AF5D
:10308000FFF77AFD401B0228F6D9032002B0BDE805
:10309000F08100BFE168306A002900F09D800529B9
:1030A00000F09280012940F0AF8040F00100B1E0D3
:1030B0000020C4F242200021C0F88014FFF75CFD1C
:1030C000054600BF706A80077FF556AFFFF754FDD5
:1030D000401B0228F6D9032002B0BDE8F08100BFF2
:1030E0000027C4F2422700203866FFF745FD022D75
:1030F00005460DD13068800140F1DE80FFF73CFDD0
:10310000401B02284FF00300F4D902B0BDE8F08163
:10311000306880014FD5FFF72FFD401B02284FF08C
:103120000300F5D9F1E700BF40F20800C2F2000049
:10313000006844F6D351C1F26201A0FB0101480AC4
:10314000019000BF00BF0198411E002801913FF48B
:1031500013AF00BF0198411E002801913FF40CAF4E
:1031600000BF0198411E002801913FF405AF00BF48
:103170000198411E00280191E4D1FDE60021016083
:10318000FFF7FAFC054600BF306880077FF5F1AE17
:10319000FFF7F2FC401B02284FF00300F4D9B4E71C
:1031A0007068216A00F480328A4209D1616A00F4B1
:1031B0007010884204D1002002B0BDE8F08100BF49
:1031C000012002B0BDE8F08140F004003062306AB6
:1031D00040F001001EE000BF20F001003062306AC4
:1031E00020F004003062FFF7C7FC054641F2883743
:1031F000306A800720D5FFF7BFFC401BB8424FF074
:103200000300F5D981E700BF20F001003062306A89
:1032100020F004003062FFF7AFFC054641F288372A
:10322000306A800708D4FFF7A7FC401BB842F7D9E3
:10323000032002B0BDE8F081B8F1000F3FF59FAE6A
:10324000F06920F08050F06199E600BF40F48020E2
:103250003060306840F480301CE000BF20F48030E3
:103260003060306820F480203060FFF785FC054630
:10327000306880037FF55EAEFFF77EFC401B64285C
:103280004FF00300F4D940E720F48030306030681C
:1032900020F480203060FFF76FFC05463068800323
:1032A0003FF548AEFFF768FC401B6428F6D90320C1
:1032B00002B0BDE8F08100BF206AB0F5803F05D1C3
:1032C0007168A26821F40031114371607168626A0B
:1032D00021F4741111430843706001203866FFF730
:1032E0004BFC0446306880013FF565AFFFF744FCB6
:1032F000001B02284FF00300F4D906E7411E00200E
:10330000B0EB116F1CBF012070474EF21002CEF2DD
:10331000000251604EF62351CEF20001F0230B70F3
:1033200007219060116070477047000070470000EF
:1033300090F83C20012A4FF0020236D010B580F8F8
:103340003D200268D2F804E0D2F808C00C682EF0E4
:103350007003234340F2FF74C4F20004A24253609E
:103360000ADCB2F1804F13D040F20043C4F20003F4
:103370009A420DD011E000BF42F60043C4F20103AF
:103380009A4205D040F60003C4F200039A4204D1E9
:1033900049682CF08003194391600121002280F8D4
:1033A0003D1080F83C20BDE81040104670470000FA
:1033B000002804BF0120704710B590F83D1031B9C6
:1033C000002180F83C10044600F070F820460221ED
:1033D00080F83D10016840F2FF740B68C4F20004ED
:1033E00042F6004CA142C4F2010C15DCB1F1804F51
:1033F0001AD040F20042C4F20002914214D0A1421D
:1034000018DCB1F1804F1DD040F20042C4F200023E
:10341000914217D01AE000BF614505D040F6000286
:10342000C4F200029142EAD1826823F07003134390
:10343000A142E6DD614505D040F60002C4F200027B
:10344000914203D1026923F440731343846923F04A
:103450008002D0F804E0C368224361450A60CB6271
:10346000C1F828E002D14269CCF8302001224A613B
:103470000B69DB0703D00B6923F001030B6180F8B4
:10348000462080F83E2080F83F2080F8402080F8D9
:10349000412080F8422080F8432080F8442080F8C2
:1034A000452080F83D20002010BD000010B584B0FC
:1034B000006840F60001C4F2000188422AD040F2C0
:1034C0000041C4F20001884214D0B0F1804F1CBF0B
:1034D00004B010BD41F21C00C4F2020001681C24BB
:1034E00041F001010160006800F0010003900398C1
:1034F0001EE000BF41F21C00C4F2020001681D245E
:1035000041F002010160006800F0020002900298A0
:103510000EE000BF41F21C00C4F2020001681E244C
:1035200041F004010160006800F00400019001987E
:10353000204600210022FFF79FFB204604B0BDE893
:103540001040FFF787BB000090F83C20012A4FF0A5
:1035500002026CD080B580F83D20D0F800C04FF654
:103560007772DCF8083023EA0202CCF808200B68F6
:103570004F2B29DC1F2B45DD202B46D0302B44D090
:10358000402B40F0AF80D1F804E0C968DCF820306F
:10359000DCF8202022F00102CCF82020DCF81820F2
:1035A00022F0F00242EA011123F00A0242EA0E027E
:1035B000CCF81810CCF82020DCF8081041F04701B6
:1035C00021F0300128E000BF6F2B33DDB3F5005F41
:1035D00074D0B3F5805F21D0702B40F08380D1E9A7
:1035E00001E3C968DCF8082043EA0E0322F47F42B5
:1035F00043EA01211143CCF80810DCF8081041F02F
:10360000770109E00BB1102B6CD1DCF8081021F028
:103610007001194341F00701CCF808100022012184
:1036200080F83D10002180F83C10BDE88040104635
:10363000704700BF502B21D0602B53D1D1F804E04C
:10364000C968DCF82030DCF8202022F01002CCF829
:103650002020DCF8182022F4704242EA013123F0E5
:10366000A00242EA0E12CCF81810CCF82020DCF8A8
:10367000081041F0670121F01001CDE7D1F804E016
:10368000C968DCF82030DCF8202022F00102CCF8F8
:103690002020DCF8182022F0F00242EA011123F089
:1036A0000A0242EA0E02CCF81810CCF82020DCF80E
:1036B000081041F0570121F02001ADE7D1E901E305
:1036C000C968DCF8082043EA0E0322F47F4243EA8B
:1036D00001211143CCF80810DCF8081041F48041B6
:1036E0009AE700BF01229AE77047000070B50446D0
:1036F0000068C5680669B10716D515F0020113D038
:103700006FF002010161012121778069800703D0F8
:103710002046FFF7E9FF05E0204600F08FF820463D
:1037200000F08EF800202077700719D515F00400FE
:1037300016D020686FF004010161022121778069B1
:1037400010F4407F04D02046FFF7CEFF06E000BF14
:10375000204600F073F8204600F072F80020207731
:10376000300717D515F0080014D020686FF0080155
:10377000016104212177C069800703D02046FFF74B
:10378000B3FF05E0204600F059F8204600F058F855
:1037900000202077F00619D515F0100016D020680B
:1037A0006FF01001016108212177C06910F4407F9A
:1037B00004D02046FFF798FF06E000BF204600F047
:1037C0003DF8204600F03CF800202077F00718BFB5
:1037D00015F0010002D1300609D412E020686FF024
:1037E00001010161204600F02DF8300609D515F0E1
:1037F000800006D020686FF0800101612046FFF74D
:1038000093FD700609D515F0400006D020686FF0D2
:1038100040010161204600F017F8B00658BF70BDA6
:1038200015F0200008D021686FF0200220460A61C0
:10383000BDE87040FFF77ABD70BD00007047000022
:10384000704700007047000070470000704700009C
:103850007047000010B500BF016851E8031F0268FF
:1038600021F4907142E80313BBB3016851E8031FD0
:10387000026821F4907142E8031373B3016851E8C0
:10388000031F026821F4907142E803132BB301680F
:1038900051E8031F026821F4907142E80313002BE2
:1038A000DAD11AE0016851E8051F026821F0010130
:1038B00042E80513DBB1016851E8051F026821F0F9
:1038C000010142E8051393B1016851E8051F026840
:1038D00021F0010142E805134BB1016851E8051FD1
:1038E000026821F0010142E80513002BDAD1016BD7
:1038F000012924D1016851E8031F026821F0100159
:1039000042E80313DBB1016851E8031F026821F0AC
:10391000100142E8031393B1016851E8031F0268E4
:1039200021F0100142E803134BB1016851E8031F75
:10393000026821F0100142E80313002BDAD101687C
:103940004969490636D500BF016851E8051F02687C
:1039500021F0400142E80513DBB1016851E8051F81
:10396000026821F0400142E8051393B1016851E873
:10397000051F026821F0400142E805134BB10168C0
:1039800051E8051F026821F0400142E80513002BB1
:10399000DAD1C16B71B1044644F23170C0F6000057
:1039A00048630846FEF76AFF60B1E06B416B8847E9
:1039B000002010BD00212022C18580F84220016333
:1039C000FFF746FF002010BD70470000B0B582B081
:1039D00001680A68CC684B6902F02F05202D04F0BD
:1039E000200505D125B102B0BDE8B04000F0AABE67
:1039F0005FEA027C1EBF03F0010E04F4907313EB28
:103A00000E0341D1036BD50618D5012B16D114F046
:103A1000100313D0002201920A6801924A680192B1
:103A2000019A496949064BD4818DC28DC38D002B03
:103A300018BF914240F0F48102B0B0BD13062DD5FD
:103A400014F080032AD090F84120212AF4D1826812
:103A5000B2F5805F03D10269002A00F06782026A32
:103A6000531C036212784A60C28C013A1304C28468
:103A7000E2D1C86820F08000C860C86840F040000B
:103A8000C86002B0B0BD00BFD30718BF14F4807384
:103A900040F0D080530700F1D380D8E05206CBD558
:103AA00014F04002C8D0CA6822F04002CA60202147
:103AB00080F8411002B0BDE8B04000F07DBC00BF0E
:103AC000C16B0A68526893B2002BB5D0858DAB42AA
:103AD000B2D2C2858969202900F0A180016851E82D
:103AE000031F026821F4807142E80313DBB101680F
:103AF00051E8031F026821F4807142E8031393B177
:103B0000016851E8031F026821F4807142E8031341
:103B10004BB1016851E8031F026821F4807142E84B
:103B20000313002BDAD1016851E8051F026821F068
:103B3000010142E80513C3B3016851E8051F02689B
:103B400021F0010142E805137BB3016851E8051F2C
:103B5000026821F0010142E8051333B3016851E81E
:103B6000051F026821F0010142E80513002BDAD19C
:103B70001BE000BF016851E8051F026821F0400109
:103B800042E80513DBB1016851E8051F026821F026
:103B9000400142E8051393B1016851E8051F02682E
:103BA00021F0400142E805134BB1016851E8051FBF
:103BB000026821F0400142E80513002BDAD12021F0
:103BC00080F8421000210163016851E8031F026878
:103BD00021F0100142E80313DBB1016851E8031F33
:103BE000026821F0100142E8031393B1016851E823
:103BF000031F026821F0100142E803134BB1016872
:103C000051E8031F026821F0100142E80313002B62
:103C1000DAD1C16B04460846FEF70CFE20460221AD
:103C20004163818DC28D891A89B202B0BDE8B0406E
:103C3000FFF70CBE436C43F001034364530706D502
:103C4000BEF1000F03D0436C43F0020343649307BB
:103C500006D5BEF1000F03D0436C43F00403436468
:103C6000BCF1000F06D55EEA050303D0436C43F0B8
:103C700008034364436C002B3FF4DEAE920605D587
:103C800025B1044600F05EFD216820464969426C7A
:103C900001F0400102F00802891800F0B98000BF6D
:103CA000016851E8031F026821F4907142E8031390
:103CB000BBB3016851E8031F026821F4907142E828
:103CC000031373B3016851E8031F026821F4907174
:103CD00042E803132BB3016851E8031F026821F483
:103CE000907142E80313002BDAD11AE0016851E821
:103CF000051F026821F0010142E80513DBB10168EC
:103D000051E8051F026821F0010142E8051393B153
:103D1000016851E8051F026821F0010142E805131E
:103D20004BB1016851E8051F026821F0010142E82A
:103D30000513002BDAD1016B012924D1016851E868
:103D4000031F026821F0100142E80313DBB1016890
:103D500051E8031F026821F0100142E8031393B1F8
:103D6000016851E8031F026821F0100142E80313C3
:103D70004BB1016851E8031F026821F0100142E8CD
:103D80000313002BDAD1202180F8421000210163B7
:103D900001684969490640F1C380016851E8051F7F
:103DA000026821F0400142E80513DBB1016851E8E7
:103DB000051F026821F0400142E8051393B1016834
:103DC00051E8051F026821F0400142E805134BB19C
:103DD000016851E8051F026821F0400142E805131F
:103DE000002BDAD1C16B002900F09A8044F22572D1
:103DF000C0F60002044608464A63FEF73FFD00286D
:103E00003FF41AAEE06B416B02B0BDE8B04008472A
:103E10000446FFF7D9FD0020606402B0B0BD00BFCA
:103E2000891A00BF026852E8032F036822F49072D7
:103E300043E80325BDB3026852E8032F036822F468
:103E4000907243E8032575B3026852E8032F0368B4
:103E500022F4907243E803252DB3026852E8032F41
:103E6000036822F4907243E80325002DDAD11AE0AA
:103E7000026852E8052F036822F0010243E8052595
:103E8000DDB1026852E8052F036822F0010243E821
:103E9000052595B1026852E8052F036822F001025A
:103EA00043E805254DB1026852E8052F036822F06A
:103EB000010243E80525002DDAD1202280F84220B6
:103EC00000220263026852E8032F036822F0100206
:103ED00043E80325DDB1026852E8032F036822F0AE
:103EE000100243E8032595B1026852E8032F0368E6
:103EF00022F0100243E803254DB1026852E8032F77
:103F0000036822F0100243E80325002DDAD10222D3
:103F100089B2426302B0BDE8B040FFF797BC00BF72
:103F200002B0BDE8B040FFF74FBD00BF026A32F8F3
:103F3000023B6FF35F234B60026295E5002804BFEC
:103F40000120704710B5044690F8410028B90020C0
:103F500084F84000204600F063F8242084F84100F3
:103F60002068D4E90212C36823F40053C3600369D4
:103F700023F440531A430261D4E904231143C26875
:103F8000194341F20C639A431143C1604169A2692C
:103F900021F44071114343F60002C4F20102904241
:103FA000416103D0FEF782FF02E000BFFEF792FFFF
:103FB000D4E90023192148439900B0FBF1F048F2FD
:103FC0001F5CC5F2EB1CA0FB0C314FF69C7349093A
:103FD000C0F6FF7301FB0300322303EB0010A0FBCC
:103FE0000C03F02000EA531000EB0110C3F343115F
:103FF000084490601069202120F4904010615069BD
:1040000020F02A005061D06840F40050D0600020B9
:10401000606484F8411084F84210606310BD0000B1
:10402000F0B585B0006844F20041C4F20001884256
:104030004FF00001CDE90311CDE9011122D043F683
:104040000001C4F20101884253D141F21800C4F2C8
:1040500002000168252441F48041016001684FF4A9
:10406000806701F4804100910099016841F00401EA
:104070000160006800F00400009000984FF40070A8
:1040800019E000BF41F21800C4F202004168262482
:1040900041F4003141604168082701F4003100918A
:1040A0000099016841F004010160006800F004001B
:1040B0000090009804200190022040F60005029034
:1040C0000320C4F2010501AE049028463146FEF7F4
:1040D00045FC0020CDE90200284631460197FEF755
:1040E0003DFC204600210022FEF7C6FD2046FEF7DB
:1040F000B1FD05B0F0BD000090F84230202B07D193
:1041000000294FF0010318BF002A05D11846704757
:1041100002231846704700BF0023036381622221F7
:104120008285C285436480F842100169006819B134
:10413000C16841F48071C160416941F00101416190
:10414000C16841F02001C16018467047006843F61D
:104150000001C4F20101884218BF704740F2E81024
:10416000C2F20000B0F80024B0F800146FF3DF32A0
:1041700040F2FE339A4221D86FF3DF316F2915D315
:10418000B0F800146FF3DF31415C7D290ED1B0F837
:1041900000146FF3DF31014411F8011C7D2905D1B2
:1041A000B0F8001441F40041A0F80014B0F8002465
:1041B000B0F80014013262F30E0104E048F200028C
:1041C000CFF6FF721143A0F80014B0F800140122DA
:1041D0006FF3DF31014440F25810C2F20000FFF7E4
:1041E0008BBF00002DE9F04381B0044690F84100F8
:1041F000202809D100294FF0010018BF002A07D15B
:1042000001B0BDE8F08300BF022001B0BDE8F0833B
:104210000020606421201D460E4684F841001746A8
:10422000FEF7AAFCA784E784A1688146B1F5805F08
:1042300002D1206900285DD037460020E28C216839
:10424000002A5DD06A1C24D0002D4AD0804600BFD1
:104250000868000608D4FEF78FFCA0EB0900A8420E
:104260007AD82168C868F3E717B117F8010B04E0A2
:1042700038F8020B00276FF35F204860E08C0138AC
:10428000E084E08C0028E3D13AE000BF0A6812061F
:1042900009D40A68120606D40A6812065CBF0A68C6
:1042A0005FEA0262F2D51FB117F8012B05E000BFEB
:1042B00030F8022B00276FF35F224A60E28C013A4C
:1042C000E284E28C002AE4D11AE000BF30F8022B2D
:1042D00000276FF35F224A60E28C013AE284E28CAD
:1042E00072B10A68120635D5002FEFD017F8012BEE
:1042F000F1E700BF00273046E28C2168002AA1D1F7
:10430000086840061ED42DB3681C14D10868400606
:104310002AD40868400627D40868400624D40868D0
:1043200040064FF00000F1D50DE000BF2068C168E5
:104330000068400618D4FEF71FFCA0EB0900A84255
:10434000F4D909E00020202184F8411001B0BDE833
:10435000F08300BFFEF710FC0320202184F84110F9
:1043600001B0BDE8F08300BF0020202184F8411097
:1043700001B0BDE8F083000090F84130202B07D158
:1043800000294FF0010318BF002A05D118467047D5
:1043900002231846704700BF016200232121828456
:1043A000C284436480F841100068C16841F0800114
:1043B000C16018467047000070470000FEE700002B
:1043C0002DE9F04786B04FF0000841F21800CDE922
:1043D0000488CDE90288C4F20200016840F60004B6
:1043E00041F0100101600168C4F2010401F0100104
:1043F00001910199016804F5006541F02001016017
:104400000168002201F020010191019901684FF437
:10441000005741F004010160016801F004010191BD
:104420000199016841F00801016000684FF40051F2
:1044300000F00800019001982846FEF797FB2046FF
:10444000702101224FF00109FEF790FB20468021E8
:104450000022FEF78BFB04F5806630462021012206
:104460004FF0200AFEF782FB11200297CDE90308E6
:10447000032002AF059028463946FEF76FFAF02078
:10448000CDE90209022520463946CDF81080059570
:10449000FEF764FA30463946CDE902A9CDE9048534
:1044A000FEF75CFA06B0BDE8F087000080B586B084
:1044B00040F280000021C2F200004FF0804247230A
:1044C0004FF6FF7C0591CDE90311CDE90011C0E95C
:1044D0000023C0E9021C01618161FEF769FF002829
:1044E00018BFFEF7A1F94FF48050029040F280000F
:1044F000C2F2000002A9FFF727F8002818BFFEF754
:1045000093F940F28000C2F200006946FEF710FF06
:10451000002818BFFEF788F906B080BD80B586B0C8
:1045200040F2C80040F200420021C2F20000C4F292
:104530000002082341F2931C0591CDE90311CDE956
:104540000011C0E90023C0E9021C01618161FEF78E
:104550002FFF002818BFFEF767F94FF48050029034
:1045600040F2C800C2F2000002A9FEF7EDFF0028E9
:1045700018BFFEF759F940F2C800C2F200006946C0
:10458000FEF7D6FE002818BFFEF74EF906B080BD34
:1045900080B586B040F210100021C2F2000040F653
:1045A00000024CF24F3C0591CDE90311CDE9001119
:1045B000C4F2000241F61F43C0E9021C01618021E0
:1045C000C0E900238161FEF7F3FE002818BFFEF763
:1045D0002BF94FF48050029040F21010C2F200000C
:1045E00002A9FEF7B1FF002818BFFEF71DF940F23F
:1045F0001010C2F200006946FEF79AFE002818BFAC
:10460000FEF712F906B080BD80B540F2581043F6AF
:104610000001C2F20000C4F2010100234FF00C0CB3
:104620004FF4E13280E80E00C0E90333C0E905C36E
:10463000C361FFF783FC002808BF80BDBDE8804050
:10464000FEF7F2B880B540F2A01044F20041C2F289
:104650000000C4F2000100234FF00C0C4FF4E132D3
:1046600080E80E00C0E90333C0E905C3C361FFF76A
:1046700065FC002808BF80BDBDE88040FEF7D4B8C7
:10468000FEE70000FEE700007047000070470000F2
:10469000FEF778BA7047000040F28000C2F20000D6
:1046A000FFF724B840F2C800C2F20000FFF71EB8BE
:1046B00040F21010C2F20000FFF718B883B0B0B596
:1046C00081B0CDE90512079338B340F6EC24C2F26D
:1046D0000004054620464FF48061FBF7B3FF05ABAD
:1046E000204640F2FF312A460093FBF7D9FD2046D1
:1046F000FBF767FF40F60D22211822520020887038
:104700002046FBF75EFF82B240F2A010C2F200002A
:1047100021464FF47A73FFF765FD01B0BDE8B04064
:1047200003B07047406A0021C185C184FFF74CB9CE
:10473000406A00212022C18580F842200163FFF7F2
:1047400087B8000081B090F84210222921D18368F7
:104750000246B3F5805F09D152F8281F52F8183C81
:10476000002B63D003685B680AE000BF52F8281F83
:1047700013B90369002BF5D003685B6803F07F036E
:104780000B70116801311160C18D01390A04C185B6
:1047900002D001B0704700BF0168CA6822F0200251
:1047A000CA60CA6822F48072CA604A6922F00102B3
:1047B0004A61202180F8421000214163026B012AE6
:1047C0003CD10163016851E8031F026821F0100128
:1047D00042E80313DBB1016851E8031F026821F0CE
:1047E000100142E8031393B1016851E8031F026806
:1047F00021F0100142E803134BB1016851E8031F97
:10480000026821F0100142E80313002BDAD101689D
:104810000A68D20606D5002200920A68009249680A
:1048200000910099818D01B0FFF710B802685268BD
:104830006FF35F2221F8022B8162A5E701B0FFF739
:1048400085BC000040F25810C2F20000FFF7BEB86D
:1048500040F2A010C2F20000FFF7B8B8FEE7000077
:1048600090B0FEF79DF900240120CDE90B44CDE97D
:10487000094406900A904FF4E0104FF4803102256D
:104880000F9006A8CDE90714CDE90D51FEF736FBD0
:1048900020B1EFF3108072B6FEE700BF0F20CDE924
:1048A00001054FF48060CDE9040401A802210394BE
:1048B000FEF71EFA20B1EFF3108072B6FEE700BFDC
:1048C00040F60004C4F20104FFF77AFDFFF79CFEF6
:1048D000FFF7B8FEFFF722FEFFF7E8FDFFF758FEEF
:1048E000FDF754FBFDF7EEF8FDF798FCFDF716FD1C
:1048F000FDF720F9FEF740F940F2700940F2780622
:1049000040F2E81BC2F20009C2F2000601274FF094
:10491000000AC2F2000BC9F8040002E00A20FEF708
:1049200009F8B078202127EA00022046FEF71EF998
:10493000F27820468021FEF719F93079402127EAE4
:1049400000022046FEF712F97079102127EA0002D2
:104950002046FEF70BF900F051F8FEF70DF999F833
:104960000010A9B9F179012912D189F80070B57840
:10497000F1783279737980462846FCF795FE16A0C7
:1049800089F800A086F807A0FFF798FE404600BF10
:1049900099F800100029C1D1BBF900140029BDD439
:1049A000F1790029BAD1D9F804104EF66122411AE2
:1049B0009142B6D30546FDF755FA022809D0FDF716
:1049C000E5FAFDF77FF8FDF729FCFDF7A7FCFDF7F9
:1049D000B1F8C9F80450A4E74D5154542050756201
:1049E0006C6973683A20537563636573732028504C
:1049F000617273652049646C6529000070B540F2EE
:104A0000E814C2F20004B4F90004B0F1FF3FC8BFDB
:104A100070BD40F27006C2F200060120307040F214
:104A20005810C2F20000FEF715FF24A02146FFF740
:104A300045FEB4F800142BA06FF3DF31FFF73EFE04
:104A400033A12046FBF7ABFD60B1054634A0FFF76C
:104A500035FE28467B21FBF798FD48B10130FDF774
:104A6000D9FC05E045F20670C0F60000FFF726FE0F
:104A700020464FF48061FBF7E5FDB4F80004012205
:104A800000F40040A4F80004B4F800046FF3DF3031
:104A9000A4F80004B4F800046FF3DF30211840F2EA
:104AA0005810C2F20000FFF727FB45F2B540C0F6F0
:104AB0000000FFF703FE0020307070BD4D61696E8D
:104AC000204C6F6F703A20526563656976652043AC
:104AD0006F6D706C65746520446174613A20257354
:104AE000000000004D61696E204C6F6F703A2052DB
:104AF00065636569766520436F6D706C65746520CC
:104B00004461746120284C656E3A202564290000B8
:104B10004D515454535542524543563A00000000FB
:104B20004D61696E204C6F6F703A205374617274DE
:104B3000205061727365204D515454205061636B55
:104B4000657400005FEA400C08BF91F0000F4FEA67
:104B50008C234FEAC12243EA51514FEA1C5018BF3F
:104B600000F5F0404FEA300018BF41F000415FEA25
:104B70006C5C00F02980BCF1FF3F08BF40F0804032
:104B80007047130C06BF12044FF0100C4FF0000CCE
:104B9000130E04BF12020CF1080C130F04BF120114
:104BA0000CF1040C930F04BF92000CF1020CD30F14
:104BB00004BF52000CF1010C11464FF00002A0F1AD
:104BC0001F00A0EB0C00704711F0004F08BF7047AA
:104BD00031F000413FF4D5AF0B0C06BF09044FF094
:104BE000100C4FF0000C0B0E04BF09020CF1080C66
:104BF0000B0F04BF09010CF1040C8B0F04BF8900DB
:104C00000CF1020CCB0F04BF49000CF1010CCCF1EC
:104C1000200322FA03F341EA030102FA0CF2A0EBAB
:104C20000C0000F10100704723F07F4720F07F4C1B
:104C300080EA030000F00040ACEB070303F57C536F
:104C400003F1FF032DE9804909B44FEA144324EA34
:104C500003484FEA154B25EA0B4E0FF2042606EBEC
:104C600013273E7803FB0667C7F5000707FB06F628
:104C70004FEAD64606F102064FEA543707FB066CA8
:104C8000CCF1005C4FEA1C472CEA074C0CFB06F504
:104C900007FB06F404EB15464FEA961649085FEA4F
:104CA000320234BF00204FF000404FEAD13706FBFC
:104CB00007FC4FEA1C4C0CFB0BF7D21B03FB0CF759
:104CC00061EB07010CFB0EF7B0EB074072EB1742EC
:104CD0000CFB08F734BFA2EB0742B2EB074261EBD3
:104CE00017414FEA0C444FEA910706FB07FC4FEAD5
:104CF0001C4C0CFB0BF7B0EBC74072EB573203FBBD
:104D00000CF734BFA2EBC742B2EBC74261EB57319D
:104D10000CFB0EF7B0EBC70072EB57720CFB08F7F9
:104D200034BFA2EBC702B2EBC70261EB57714FEA87
:104D3000816141EA92114FEA826242EA90124FEA9F
:104D4000806004EBCC04039F4FEAD13706FB07FCDD
:104D50004FEA1C4C0CFB0BF7D21B03FB0CF761EB6F
:104D600007010CFB0EF7B0EB074072EB17420CFB90
:104D700008F734BFA2EB0742B2EB074261EB1741E1
:104D80004FEA8C5504EB9C244FEA910706FB07FC85
:104D90004FEA1C4C0CFB0BF7B0EBC74072EB5732E1
:104DA00003FB0CF734BFA2EBC742B2EBC74261EB87
:104DB00057310CFB0EF7B0EBC70072EB57720CFBD0
:104DC00008F734BFA2EBC702B2EBC70261EB577121
:104DD0004FEA816141EA92114FEA826242EA9012FF
:104DE0004FEA806015EB4C2544F100044FEAD137BF
:104DF00006FB07FC4FEA1C4C0CFB0BF7D21B03FB1A
:104E00000CF761EB07010CFB0EF7B0EB074072EB00
:104E100017420CFB08F734BFA2EB0742B2EB074284
:104E200061EB17414FEA813141EA92414FEA823208
:104E300042EA90424FEA80304FEA0C7615EB1C159F
:104E400044F1000448EA03434EEA0B484FF0000ED9
:104E5000B2EB080C71EB030724BF624639464EEBF8
:104E60000E0E4FF0000B0018524149414BEB0B0B5B
:104E7000B2EB080C71EB03077BF1000B24BF624619
:104E800039464EEB0E0E4FF0000B001852414941CF
:104E90004BEB0B0BB2EB080C71EB03077BF1000B38
:104EA00024BF624639464EEB0E0E51EA020718BF88
:104EB00046F0010616EB0E7655F1000254F10001A2
:104EC00003D5BDE88901BDE80088BDE88901BDE8DA
:104ED0000048B619524141EB0101A3F101037047AB
:104EE00080807F7E7D7C7B7A797877767675747327
:104EF000727171706F6E6E6D6C6C6B6A6A696868E6
:104F0000676666656464636362616160605F5F5E7B
:104F10005E5D5D5C5C5B5B5A5A59595858575756F1
:104F20005655555554545353525252515150505056
:104F30004F4F4F4E4E4D4D4D4C4C4C4B4B4B4A4AA8
:104F40004A494949484848474747474646464545EC
:104F50004544444444434343434242424241414125
:104F60009C46002B30D477002BD04FEA37071CB576
:104F700003B44FF010004FF01001BAF1000F06D04B
:104F8000BCF1000FDCBF40F0080040F008014FF01A
:104F900000000FBCBDE810400BF1010BBBF1010F8D
:104FA00008BF5FEA170722BF12F1010211F10101E8
:104FB0004FF0004143F1000300F0004043EA0000DD
:104FC0007047F9D35708D0E746EA06464FEA164637
:104FD00013F1400F1FDD13F1200FDFBF16430A4608
:104FE000002120335B42BED0C3F1200746EA0646CB
:104FF0004FEA164602FA07F746EA070622FA03F2D4
:10500000C3F1200701FA07F742EA070221FA03F188
:105010004FF00003A7E746EA020646EA06464FEAD3
:10502000164646EA0106BCBF46EA0646360C4FF075
:1050300000034FF000024FF0000194E72DE9804C8F
:1050400070B49A46934691E8380007C831EA400C9C
:1050500048BF34EA430C03D5FFF7E6FDFFF780FFB6
:10506000F0BCBDE8008C2DE9804C70B49A469346A4
:1050700091E8380007C810F0804F08BF13F0804F48
:1050800003D100F005F8FFF76BFFF0BCBDE8008C22
:1050900020F07F4723F07F4C80EA030000F00040BF
:1050A00007EB0C03A3F57C53A3F1FE0392F0000F72
:1050B00000F0B38095F0000F00F077802DE90149F2
:1050C0004FEA114021EA00484FEA144624EA064715
:1050D00000FB06FC08FB06F607FB08F818EB064881
:1050E0004CEB164C00FB07F718EB07484CEB17404E
:1050F0004FEA124B22EA0B4E4FEA154625EA0647C5
:105100000BFB06FC0EFB06F607FB0EFE1EEB064E27
:105110004CEB164C0BFB07F71EEB074E4CEB174BFB
:1051200018EB0B0840F1000018EB0E0B58EB0008D1
:1051300040F100008F1A4FF000014FF000063CBF15
:10514000C943661B14BFB5EB040C00213CBFC94327
:10515000F61B4FEA174427EA04454FEA1C472CEA9E
:10516000074C04FB076205FB07F70CFB05F616EB83
:10517000074642EB174204FB0CFC16EB0C4642EBD5
:105180001C421BEB060658EB020241414EEA8E0E12
:1051900046EA9E0601D5BDE80189B619524141EBA8
:1051A0000101A3F10103BDE801894FEA144524EA96
:1051B00005464FEA114721EA074C05FB07F406FBB9
:1051C00007F70CFB06F111EB074144EB174405FB15
:1051D0000CFC11EB0C4144EB1C444FEA124722EA51
:1051E000074C05FB07F206FB07F70CFB06F616EB70
:1051F000074642EB174205FB0CFC16EB0C4642EB54
:105200001C456A1854F1000148BF7047B619524155
:1052100041EB0101A3F10103704795F0000F37D076
:105220004FEA114221EA02464FEA144724EA074CAA
:1052300002FB07F106FB07F70CFB06F414EB07442F
:1052400041EB174102FB0CFC14EB0C4441EB1C41FD
:105250004FEA154725EA074C02FB07F506FB07F75F
:105260000CFB06F616EB074645EB174502FB0CFC5C
:1052700016EB0C4645EB1C42121951F1000148BFD8
:105280007047B619524141EB0101A3F10103704788
:105290004FEA144524EA05464FEA114721EA074C34
:1052A00005FB07F106FB07F70CFB06F212EB0742C2
:1052B00041EB174105FB0CFC12EB0C4251EB1C417E
:1052C0004FF0000648BF7047921841EB0101A3F16F
:1052D00001037047490050EAC12018BF04204A0D5D
:1052E00018BF40F0010040F2FF72B2EB515F08BFFF
:1052F00040F00200012808BF0520704730380A2816
:1053000001D20120704700207047000010B500292D
:105310000AD00878002807D005487844FBF7E4F95C
:10532000002801D0002010BD0248784410BD0000C4
:10533000CA0D0000C20D000010B500290AD008787F
:10534000002807D005487844FBF7CEF9002801D0A3
:10535000002010BD0248784410BD0000AE0E0000D1
:10536000A60E0000FBF763BDFBF798BE0400000823
:10537000000000000000000200010000100000001A
:105380000000000000000000303132333435363781
:105390003839414243444546403058003031323379
:1053A0003435363738396162636465664030780079
:1053B000303132333435363738396162636465668B
:1053C0007870003031323334353637383941424322
:1053D000444546585000000002400000000000A074
:1053E0000000000005400000000000C800000000B0
:1053F0000C4000000000409C00000000194000002C
:105400000020BCBE0000000034400000BFC91B8E5D
:1054100000000004B5400000504BCFD06607E2CF3B
:10542000010000006C4100003E8251AADFEEA7346B
:1054300001000000D9420000DCB5A0E23A301F971D
:10544000FFFFFFFFB4450000FD25A0C8E9A3C14F41
:10545000FFFFFFFFFF3F0000000000800000000092
:10546000FF3F00000000008000000000000000007E
:105470000000000001020304060708090000000004
:1054800001020304010202030405060708090A0BCE
:105490000C0D0E0F101041542B4D515454505542C9
:1054A0005241573D25642C222573222C25642C3033
:1054B0002C300D0A004D61696E204C6F6F703A20E0
:1054C00042756666657220436C65617265642C2066
:1054D000526561647920666F72204E65787420523F
:1054E0006563656976650A0041542B4D51545455E6
:1054F0005345524346473D25642C25642C22257391
:10550000222C222573222C222573222C25642C2563
:10551000642C22004D51545420496E666F3A20533A
:10552000696E676C6520436F6E6E656374696F6E3C
:10553000204D6F646520284D61702049442035203E
:10554000746F2041697468696E6B657220494420EC
:105550003029004553503832363620415420436FAD
:105560006D6D616E642054657374204661696C656D
:10557000642C205265747279696E672E2E2E202855
:1055800025642F3130290054435020436C69656EE7
:105590007420496E6974204661696C65643A2057CD
:1055A000694669204C696E6B204572726F722028C3
:1055B000436865636B20535349442F505744290077
:1055C000455350383236362053656E64696E672015
:1055D000536F667420526573657420436F6D6D61FF
:1055E0006E64202841542B52535429004D51545479
:1055F000205075626C697368204661696C65643A15
:10560000204A534F4E2053697A65204572726F725B
:1056100020282564290054435020436C69656E742A
:1056200020496E666F3A2054727920746F20436F60
:105630006E6E6563742054435020536572766572B4
:10564000202825733A2564290045535038323636D0
:1056500020415020456E6372797074696F6E204DE1
:105660006F646520496E76616C696420284F6E6CAA
:105670007920307E3420416C6C6F7765642900544A
:10568000435020436C69656E74205761726E3A20F6
:105690005472616E73706172656E74204D6F6465D3
:1056A00020456E61626C65204661696C65642028E6
:1056B000557365204E6F6E2D5472616E73706172FA
:1056C000656E74204D6F646529004D51545420530C
:1056D0007563636573733A20436F6E6E65637465BB
:1056E0006420746F204D5154542053657276657256
:1056F000202841697468696E6B6572204669726D15
:105700007761726529004D61696E204C6F6F703A48
:10571000204E6F6E2D4D515454205061636B657453
:10572000202849676E6F726529004553503832361C
:1057300036204C494E4B204150204661696C6564CF
:105740002028535349443A2025732C20436865632D
:105750006B2050617373776F72642F486F7473702E
:105760006F74205369676E616C2900544350204365
:105770006C69656E7420496E666F3A20446174618D
:105780002053656E6420746F20455350383236368E
:105790002053756363657373202857696C6C2054BC
:1057A00072616E73706172656E7420746F205365E0
:1057B00072766572290054435020436C69656E749B
:1057C000204572726F723A20446174612053656E95
:1057D0006420746F20455350383236362046616954
:1057E0006C656420285541525431204572726F72A5
:1057F00029004553503832363620415020506173CD
:1058000073776F726420496E76616C6964202845F5
:105810006E6372797074204D6F6465204E656564A7
:10582000206174206C65617374203820427974653E
:1058300073290054435020436C69656E7420496E8F
:10584000666F3A205472616E73706172656E742077
:105850004D6F646520456E61626C652053756363AE
:10586000657373202853656E6420272B2B2B27200C
:10587000746F2045786974290045535038323636A4
:10588000204150205353494420496E76616C69642D
:10589000202843616E6E6F74206265204E554C4C1B
:1058A000206F7220456D707479290045535038324D
:1058B000363620204E6574776F726B204D6F6465AD
:1058C0002E2E2E2E2E003139322E3136382E302EFD
:1058D0003130300051713331383439383633383162
:1058E0000041542B4349504D4F44453D31004154F4
:1058F0002B43574D4F44453D310054502D4C494E9C
:105900004B5F423446320045535038323636204CD5
:10591000494E4B204150204572726F723A205061BF
:105920007373776F7264206973204E554C4C206FEF
:1059300072204C656E677468203C2038002B4357FA
:105940004C41503A003D3D3D3D3D20416974686900
:105950006E6B65722045535038323636204D5154A7
:1059600054204C696E6B20436F6D706C6574656478
:10597000203D3D3D3D3D003D3D3D3D3D204553509D
:1059800038323636205354412054435020436C69FA
:10599000656E7420496E697420436F6D706C657418
:1059A0006564203D3D3D3D3D003D3D3D3D3D205339
:1059B00074617274204F6E654E4554204D5154549D
:1059C00020546F70696320537562736372696265F6
:1059D000203D3D3D3D3D003D3D3D3D3D20537461FD
:1059E00072742041697468696E6B6572204553500A
:1059F00038323636204D51545420536572766572D4
:105A0000204C696E6B203D3D3D3D3D003D3D3D3DA3
:105A10003D206C697374207570203D3D3D3D3D0017
:105A20003D3D3D3D3D2041697468696E6B65722066
:105A30004D515454204C696E6B2041626F7274203A
:105A40003D3D3D3D3D003D3D3D3D3D2045535038B4
:105A5000323636205354412054435020436C6965FC
:105A60006E7420496E69742041626F7274203D3DEE
:105A70003D3D3D003D3D3D3D3D204F6E654E455415
:105A8000204D5154542053756273637269626520CE
:105A9000526570616C79203D3D3D3D3D00766572FB
:105AA00073696F6E3D323031382D31302D333126F0
:105AB0007265733D70726F647563747325324656F8
:105AC00052706836634132615625324664657669A4
:105AD000636573253246686F6D652665743D3830A1
